:060000000A128A11122809
:10000800FE00030E83120313D6000408D7000A0863
:10001800D8007F08D9000A128A114B280A128A11BF
:10002800152883135A30840064300A128A15A820D0
:100038000A128A11D4308400DF300A128A15A820E7
:100048000A128A118317AE308400BF300A128A154B
:10005800A8200A128A118313D430FD001630FE003E
:10006800B630FF00C43084000A168A11CA260A1264
:100078008A110A168A118B260A128A11E4000A16B6
:100088008A118C26E50083010A168A119D2E0C1F01
:10009800A72A1E0883160313DC01DC071E08DB01F0
:1000A800DB07BA01BB01A0308400C43083120313FC
:1000B800D2000408D3001030D400520884008313FF
:1000C8000008D500D20A5308840055088000D30AD6
:1000D800D40B61280030A000A030A1003B30A20062
:1000E800831603135C08F901F9075B08F801F807A0
:1000F8000A168A1176270A128A11780883120313BE
:10010800A3007908A4007A08A5000A128A110C260F
:100118000A128A1183120313200883160313BD00E1
:1001280083120313210883160313BE0083120313DB
:10013800220883160313BF003D0883120313C4006B
:10014800831603133E0883120313C5008316031393
:100158003F0883120313C600B130D2005208C7000B
:100168000A128A11DF260A128A1183120313D30096
:10017800530883160313B000E830F0000330F10091
:100188005C08F301F3075B08F201F2070A128A150B
:100198005D230A128A117008303E83120313D200BD
:1001A800520883160313D4000A30F9000030FA000D
:1001B8006430F0000030F1005C08F301F3075B08DD
:1001C800F201F2070A128A155D230A128A117108D0
:1001D800FC01FC077008FB01FB070A128A15B5220F
:1001E8000A128A117908303E83120313D20052088A
:1001F80083160313D5000A30F9000030FA000A30DC
:10020800F0000030F1005C08F301F3075B08F2012D
:10021800F2070A128A155D230A128A117108FC0175
:10022800FC077008FB01FB070A128A15B5220A129F
:100238008A117908303E83120313D20052088316BC
:100248000313D6000A30F9000030FA005C08FC01FC
:10025800FC075B08FB01FB070A128A15B5220A1284
:100268008A117908303E83120313D200520883168C
:100278000313D700F501F50A00300A168A11EA2699
:100288000A128A118D30FC008030FD000A168A118E
:10029800DD270A128A11F501F50A07300A168A11B4
:1002A800EA260A128A11003083120313B000803044
:1002B800B1003F30B2000030A000C830A100423089
:1002C800A200831603133D0883120313A3008316A9
:1002D80003133E0883120313A400831603133F0875
:1002E80083120313A5000A128A110C260A128A1116
:1002F800831203132008B3002108B4002208B500B4
:100308000A128A1548270A128A1183120313300821
:1003180083160313C00083120313310883160313D3
:10032800C10083120313320883160313C200400866
:1003380083120313C40083160313410883120313A3
:10034800C50083160313420883120313C600B33093
:10035800D2005208C7000A128A11DF260A128A112F
:1003680083120313D300530883160313C3004308EF
:10037800FC000130FD000A168A11DD270A128A11D5
:100388009430F1008030F2000A168A1197270A1279
:100398008A11831603134308F1000130F2000A168C
:1003A8008A1197270A128A11F501F50A10300A16E0
:1003B8008A11EA260A128A119730FC008030FD0063
:1003C8000A168A11DD270A128A11F50100300A1669
:1003D8008A11EA260A128A11D73083120313A00061
:1003E8002330A1003E30A200831603134008831275
:1003F8000313A30083160313410883120313A400F5
:1004080083160313420883120313A5000A128A11E4
:100418000C260A128A118312031320088316031369
:10042800B50083120313210883160313B600831241
:100438000313220883160313B70035088312031326
:10044800B00083160313360883120313B100831612
:100458000313370883120313B2000A128A152B26D6
:100468000A128A1183120313310883160313B90180
:10047800B90783120313300883160313B801B807AA
:100488005C08803AFF0080307F02031D4D2AC83087
:100498005B020318532A8312031308118815831665
:1004A80003135C08803AFF0080307F02031D5E2A38
:1004B800C9305B02031C642A8312031308158811D0
:1004C80083160313B91B842AFF308312D2008316C4
:1004D80003133A08A03E84008312031352088313BF
:1004E8008000FF3083160313B8070318B90AFF30DA
:1004F800B9070130BA070318BB0A0030BB07642AE2
:10050800A03083120313D200520883160313BC00D1
:100518003C08FC000030FD000A168A11DD270A128B
:100528008A11063083120313D4001330D300B1307C
:10053800D200D20B9D2AD30B9D2AD40B9D2AA42A24
:10054800831203130C138C1EBC2A5B30F10080301D
:10055800F2000A168A1197270A128A110A168A11B6
:1005680004270A128A110A168A118D260A128A117C
:10057800831203135908FF0058088A00570884009B
:10058800560E8300FE0E7E0E090083120313BE0072
:100598002B30B3003308B9000130AA07FF302A070F
:1005A80084000A128A150A200A128A11B300330835
:1005B800C300C3080319002D4308253A0319F02A7C
:1005C8004308B3003E0884003308831780000130D5
:1005D800B3003308BE07D02ABF01C001B8012A08FA
:1005E80084000A128A150A200A128A110A168A1128
:1005F800A8260A128A11031C432B83120313BF0176
:10060800C0010A30F0000030F100831203134008E3
:10061800F301F3073F08F201F2070A168A11BA2715
:100628000A128A11710883120313C001C0077008E7
:10063800BF01BF072A0884000A128A150A200A1275
:100648008A11D03EB300FF3003180030B4003308DD
:10065800BF070318C00A3408C0070130B3003308C5
:10066800AA072A0884000A128A150A200A128A117F
:100678000A168A11A8260A128A110318052B831252
:1006880003132A0884000A128A150A200A128A11FA
:100698002E3A031D912B0130B3003308AA07C1017C
:1006A800C2012A0884000A128A150A200A128A112D
:1006B8000A168A11A8260A128A11031C9D2B831276
:1006C80003134208F101F1074108F001F0070A306D
:1006D800F2000030F3000A168A11BA270A128A11AA
:1006E800831203132A0884000A128A150A200A12A0
:1006F8008A117007B3000030031801307107B40085
:100708003308D03EC10034080318013EFF3EC20042
:100718000130B3003308AA07552B83120313C10114
:10072800C2019D2B38169D2BC030B3003308B80486
:10073800B42B013083120313AA07FF302A07840061
:100748000A128A150A200A128A11C300003A0319EC
:10075800002D6C3A0319962B193A0319982BD02AB5
:10076800381EC62B3908840083130008BA00840A8F
:100778000008BB00840A0008BC00840A0008BD0009
:100788000430D52B3908840083130008B300840A89
:100798000008B4003308BA003408BB00BC01BD012E
:1007A8000230B3003308B90742084104031DE82B9F
:1007B8003D083C043B043A04031DE82B0130C10703
:1007C8000318C20A0030C207C301C30A43080A3A21
:1007D80003192A2C4308B30001300310B30DFF3E60
:1007E800031DF12B0310330D013E84000A128A15F4
:1007F8000A200A128A11B4000A128A150A200A125B
:100808008A11B5000A128A150A200A128A11B6003E
:100818000A128A150A200A128A11B70037083D02FF
:10082800031D202C36083C02031D202C35083B02F2
:10083800031D202C34083A02031C2A2C0130B30073
:100848003308C30743080A3A031DEE2B4308B300D5
:10085800B401B31BB4033408803AB5004208803AA7
:100868003502031D392C410833020318422C831228
:1008780003134108B3003308C3005C2C831203132D
:100888004308B300B401B31BB4034208803AB5006F
:100898003408803A3502031D532C330841020318EB
:1008A8005C2C831203134308C100C201C11BC2039D
:1008B800831203134308B300B401B31BB403340811
:1008C800803AB5004008803A3502031D6D2C3F0878
:1008D800330203187D2C831203134308B300B401B9
:1008E800B31BB4033308BF023408031CC003C0029F
:1008F800812C83120313BF01C00140083F04031970
:10090800F12C2030B3003E088400330883178000A0
:100918000130B3003308BE07FF30BF070318C00A11
:10092800FF30C007812C0030A3000030A200003047
:10093800A1000A30A0004108B30001300310B30D34
:10094800FF3E031DA22C0310330D013E84000A1242
:100958008A150A200A128A11F0000A128A150A203A
:100968000A128A11F1000A128A150A200A128A113B
:10097800F2000A128A150A200A128A11F3003D08A9
:10098800F7003C08F6003B08F5003A08F4000A12A4
:100998008A1571240A128A11730883120313A70097
:1009A8007208A6007108A5007008A4000A128A152A
:1009B80067220A128A11831203132008303EB400FA
:1009C8003408C3004308B3003E0884003308831783
:1009D80080000130B3003308BE07FF30C107031899
:1009E800C20AFF30C207FF304206031DFD2CFF304C
:1009F80041060319D02A972C3E08840083178001EA
:100A08000800780883120313A0007908A1007A0867
:100A1800A2000310210D220DA3002308A6007B08C5
:100A2800A0007C08A1007D08A2000310210D220D62
:100A3800A3002308A500260803192E2D2508260241
:100A48000318352D2603FF3A2507A0001930200288
:100A5800031C352D7B08F8007C08F9007D08FA0096
:100A68000800250803190800260825020318442D44
:100A78002503FF3A2607A0001930200203180800B2
:100A88000630A0002008A400FA1BA417FD1B241799
:100A9800F917FF30F805FF30F9050030FA05FC17A3
:100AA800FF30FB05FF30FC050030FD052508260258
:100AB8000318842D01300310FB0DFC0DFD0DFF3EC6
:100AC800031D5F2D0130A5022508260603197F2D79
:100AD8000130A4022408073903197F2D5E2D013047
:100AE8000310FA0CF90CF80CFF3E031D742D0130AD
:100AF800A0002008A607260825060319AD2D732D8A
:100B0800260825020318AD2D01300310F80DF90D44
:100B1800FA0DFF3E031D892D0130A6022508260681
:100B28000319A92D0130A402240807390319A92D96
:100B3800882D01300310FD0CFC0CFB0CFF3E031D3F
:100B48009E2D0130A0002008A50726082506031DB4
:100B58009D2DA41FBF2DFF30F806FF30F906FF308A
:100B6800FA060130F807003003180130F9070030A1
:100B780003180130FA07241FD12DFF30FB06FF3080
:100B8800FC06FF30FD060130FB070030031801307A
:100B9800FC07003003180130FD07A4017808FB07A3
:100BA800790803110318790A031DFC077A08031151
:100BB80003187A0A031DFD07FD1FF42DFF30FB06FD
:100BC800FF30FC06FF30FD060130FB07003003183C
:100BD8000130FC07003003180130FD07A401A40A06
:100BE8007B08F0007C08F1007D08F2002608A000D0
:100BF8002008F3002408A1002108F4000A128A152D
:100C0800CF247008F8007108F9007208FA0008008B
:100C1800831203132008A6002108A7002208A800B1
:100C28000310270D280DA9002908AA00AA08031DEA
:100C3800242E0030A0000030A1000030A2000800DF
:100C48002308A6002408A7002508A8000310270DDC
:100C5800280DA9002908AF00AF08031D3A2E00305F
:100C6800A0000030A1000030A20008002F087B3E41
:100C7800A6002608AA072008A6002108A70022081F
:100C8800A80010300310A80CA70CA60CFF3E031DEB
:100C9800462E2608A9002908AF002308A600240824
:100CA800A7002508A80010300310A80CA70CA60C54
:100CB800FF3E031D582E2608A9002908AF068030DC
:100CC800A6002608AF05A117A417FF30A305FF301B
:100CD800A4050030A5050030AB000030AC000030A2
:100CE800AD000730A6002608AE00201C892E230878
:100CF800AB07240803110318240A031DAC072508B1
:100D080003110318250A031DAD0701300310A20CB7
:100D1800A10CA00CFF3E031D8A2E01300310A30D69
:100D2800A40DA50DFF3E031D922E0130AE02031D3A
:100D3800792E0930A6002608AE00201CB12E230803
:100D4800AB07240803110318240A031DAC07250860
:100D580003110318250A031DAD0701300310A20C67
:100D6800A10CA00CFF3E031DB22E01300310AD0CE8
:100D7800AC0CAB0CFF3E031DBA2E0130AE02031DB6
:100D8800A12E2B08F0002C08F1002D08F2002A08EB
:100D9800A6002608F3002F08A7002708F4000A1267
:100DA8008A15CF24700883120313A0007108A100CC
:100DB8007208A2000800AE3083120313C800480866
:100DC800D1004408F0004508F1004608F200003060
:100DD800F3000030F4000030F5000A128A151424DC
:100DE8000A128A110318182F2D3083120313C80012
:100DF800510884004808831780000130C80048085B
:100E0800D1074408F0004508F1004608F2000A1628
:100E18008A1195260A128A11700883120313C400D6
:100E28007108C5007208C600831203134408B00095
:100E38004508B1004608B2000A128A152B260A1284
:100E48008A11831203133308D0003208CF00310807
:100E5800CE003008CD005008FB004F08FA004E08BD
:100E6800F9004D08F8000A128A15B0200A128A11F2
:100E7800780883120313A7007908A8007A08A90044
:100E88004408AA004508AB004608AC000A168A11B7
:100E98001F270A128A11831203132708C40028087F
:100EA800C5002908C6004408A3004508A400460850
:100EB800A5002430A0007430A1004930A2000A1215
:100EC8008A110C260A128A11831203132008B00013
:100ED8002108B1002208B2000A128A152B260A122C
:100EE8008A11831203133308CC003208CB0031086F
:100EF800CA003008C9008230C8004808AA00500853
:100F0800AE004F08AD004E08AC004D08AB004C08D1
:100F1800B2004B08B1004A08B0004908AF005108B8
:100F28000A128A11C922AE3008008316031306126A
:100F380086128312031306128612831603130610F1
:100F480086100611861183120313061086100611E7
:100F58008611623083160317960065309500950B4D
:100F6800B32F960BB32FB82F8316031797010330AF
:100F780017020318DA2F03300A128A1504230A12FB
:100F88008A11213083160317960076309500950B49
:100F9800CB2F960BCB2F000001308316031795003B
:100FA8001508970703301702031CBF2F02300A12D7
:100FB8008A1504230A128A1183160317970104302D
:100FC8001702031808001708293E84000A128A1518
:100FD8000A200A128A1195001508920000300A1298
:100FE8008A1537210A128A110130831603179500D2
:060FF80015089707E32F26
:10100000FF1B0A2883137F1883170008840A03191B
:10101000FF0A080008308A000408840A82070034A6
:1010200001340034003400340A3400340034003415
:101030006434003400340034E834033400340034C1
:101040001034273400340034A034863401340034A2
:10105000403442340F3400348034963498340034B1
:101060000034E134F53405340034CA349A343B3466
:101070001C340C34013406346C3462346D344C341A
:1010800042344D340A340D3420342D342D342D3473
:101090002D342D342D342D342034453453345434F0
:1010A0004F34553452344F34203444344534203492
:1010B000503449344C344834413420342D342D34A8
:1010C0002D342D342D342D342D3420340A340D3468
:1010D000203400340A340D34203443346134723403
:1010E0006134633474346534723420344434693484
:1010F000673469347434613464346F3420343A347E
:1011000000340C344C346F346134643469346E34DC
:10111000673420345034493443342E342E342E3442
:10112000003425346C3475342E34253436342E3462
:1011300036346C34753400344E3469347634653466
:101140006C343A3400340A345334003425340034D7
:1011500064008001840A0406031900340406A928E7
:101160008E30FC007C08FD00FF307B050319C6288B
:1011700001300310FB0CFA0CF90CF80CFF3E031DB8
:10118000B9280130FC007C08FD07B4287808F0007D
:101190007908F1007A08F2007D08FC007C08F30071
:1011A000F4010A128A15CF247008F8007108F900BA
:1011B0007208FA000800F4008312031386126330E9
:1011C000F300F30BE128E42874080319EB288312D9
:1011D00003138616EE28831203138612000083126F
:1011E000031306127208F30004300310F30CFF3EE1
:1011F000031DF52873080A128A156C210A128A1534
:1012000072080F390A128A156C2108008316031719
:101210001D0883120313FF00831603171C088400A4
:10122000831203130A128A1500200A128A15003845
:1012300003190800831603171D0883120313FF0008
:10124000831603171C088400831203130A128A15DD
:1012500000200A128A150A128A1520220A128A15FB
:101260000130831603179C0703189D0A062983166D
:101270000317940083120313861263308316031737
:101280009300930B4129442983160317140803196B
:101290004D298312031386165029831203138612D5
:1012A000000083120313061283160317120893001B
:1012B00004300310930CFF3E031D592913080A1232
:1012C0008A1504230A128A158316031712080F3988
:1012D0000A128A1504230800F10000307118013049
:1012E000F0008312031306087006FE3970068600AC
:1012F0000030F1180130F000F00D06087006FD39DD
:1013000070068600003071190130F000F00DF00D0C
:1013100006087006FB39700686000030F1190130AE
:10132000F000F00DF00DF00D06087006F7397006AC
:10133000860000008312031306160330F000F00B42
:101340009F298312031306120800FB00D429F2011F
:10135000F20A00300A128A15DB200A128A150D30B3
:10136000FA00FB30F900F90BB329FA0BB329B829BD
:1013700008000230F9007908F50001300A168A11D8
:10138000EA2608001030F9007908F20000300A124D
:101390008A15DB2008007B08F9007908F20001308B
:1013A0000A128A15DB2008007B08083A0319C229B3
:1013B000023A0319B929063A0319A729CB290800CB
:1013C000831603179201920A00300A128A153721F8
:1013D0000A128A154130831603179600EE309500E5
:1013E000950BF029960BF02900000C30831603179B
:1013F00095001508920000300A128A1537210A124A
:101400008A15F9308316031795000000950B052AFD
:10141000092A00000630831603179500150892006C
:1014200000300A128A1537210A128A15F9308316FC
:10143000031795000000950B1A2A1E2A00000800C9
:10144000831603179B00592A9201920A00300A1250
:101450008A1537210A128A150D30831603179A0050
:10146000FB309900990B322A9A0B322A372A08004E
:1014700002308316031799001908950001300A16E7
:101480008A113B27080010308316031799001908AA
:10149000920000300A128A153721080083160317BC
:1014A0001B0899001908920001300A128A15372189
:1014B0000800831603171B08083A0319432A023A47
:1014C0000319382A063A0319242A4E2A08008312DF
:1014D000031323082204210420040319AC2AA901C0
:1014E000A90AA31B812A0130A8000310A00DA10D99
:1014F000A20DA30DA80B752A0130A8002808A90782
:10150000712A23082702031D8F2A22082602031DA1
:101510008F2A21082502031D8F2A20082402031C7C
:101520009F2A2008A4022108031C210FA5022208DB
:10153000031C220FA6022308031C230FA70201305D
:101540000310A30CA20CA10CA00CFF3E031DA02AAB
:101550000130A902031D812A2708A3002608A20042
:101560002508A1002408A000080083120313A1018C
:10157000FC1FC12AFB09FC09FB0A0319FC0AA10193
:10158000A10AFA1FC82AF909FA09F90A0319FA0A7D
:101590007A0879040319F52AA001A00AFA1BDC2AAB
:1015A00001300310F90DFA0DFF3E031DD12A013061
:1015B000FD007D08A007CE2A7A087C02031DE22ADE
:1015C00079087B02031CEA2A7908FB027A08031CCB
:1015D000FC03FC0201300310FA0CF90CFF3E031D62
:1015E000EB2A0130A002031DDC2A21080319FD2A81
:1015F000FB09FC09FB0A0319FC0A7C08FA01FA073B
:101600007B08F901F90708008316031791000030E1
:101610001118013090008312031306088316031774
:101620001006FE391006831203138600003083165D
:101630000317911801309000900D831203130608D0
:10164000831603171006FD39100683120313860054
:10165000003083160317111901309000900D900D82
:10166000831203130608831603171006FB391006AE
:10167000831203138600003083160317911901307B
:101680009000900D900D900D8312031306088316A1
:1016900003171006F73910068312031386000000A3
:1016A0008312031306160330831603179000900B62
:1016B000572B8312031306120800F601F11F672B44
:1016C000F009F109F00A0319F10AF601F60AF31F0D
:1016D000722BF209F309F20A0319F30A0130F4003C
:1016E0007408F606F701F801710870040319A92BB4
:1016F000F501F50AF11B882B01300310F00DF10DF7
:10170000FF3E031D7D2B0130F4007408F5077A2B92
:1017100001300310F70DF80DFF3E031D892B7108F2
:101720007302031D952B70087202031C9E2B700818
:10173000F2027108031CF303F30277140130031063
:10174000F10CF00CFF3E031D9F2B0130F502031D31
:10175000882B76080319B12BF709F809F70A031942
:10176000F80A7808F101F1077708F001F00708009E
:1017700083120313871DD82B083083160317950097
:101780009D3094000B309300930BC42B940BC42B0F
:10179000950BC42BCB2B831603135E085D04031D2E
:1017A000D62B0130DD000030DE00D82BDD01DE015C
:1017B0000130831603135D065E04031D080000302C
:1017C000831603179000003091000A168A115727DC
:1017D0000A128A1508308316031795009D3094006D
:1017E0000B309300930BF22B940BF22B950BF22BF7
:1017F000F92B0130831603179000003091000A1670
:101800008A1157270A128A15083083160317950084
:101810009D3094000B309300930B0C2C940B0C2CEC
:10182000950B0C2C132C0800F21F3B2C0030F600FB
:101830000030F7008030F8007009F9007109FA00F3
:101840007209FB00F90A0319FA0A0319FB0A79085D
:10185000F6077A0803187A0F2E2C2F2CF7077B082F
:1018600003187B0F342C352CF8077608F000770826
:10187000F1007808F200F51F622C0030F60000300D
:10188000F7008030F8007309F9007409FA0075094F
:10189000FB00F90A0319FA0A0319FB0A7908F6078B
:1018A0007A0803187A0F552C562CF7077B08031873
:1018B0007B0F5B2C5C2CF8077608F3007708F400AC
:1018C0007808F5008030F2068030F506750872025F
:1018D000031D080074087102031D080073087002DC
:1018E00008000030FC000030FB000030FA0000303F
:1018F000F90073087204710470040319C62CFD0109
:10190000FD0AF31B912C0130F8000310F00DF10DCE
:10191000F20DF30DF80B852C0130F8007808FD0767
:10192000812C0130F8000310F90DFA0DFB0DFC0DB0
:10193000F80B932C73087702031DA82C720876020B
:10194000031DA82C71087502031DA82C70087402D1
:10195000031CB92C7008F4027108031C710FF50206
:101960007208031C720FF6027308031C730FF70250
:10197000791401300310F30CF20CF10CF00CFF3E63
:10198000031DBA2C0130FD02031D912C7C08F300CD
:101990007B08F2007A08F1007908F000080073086B
:1019A0000319D72C720871047004031DEA2C00304F
:1019B000F0000030F1000030F20008000130F500C6
:1019C0007508F30701300310F20CF10CF00CFF3E28
:1019D000031DE32CFE3072050319052DDE2C0130AA
:1019E000F5007508F3070130F007003003180130E7
:1019F000F107003003180130F20701300310F20C38
:101A0000F10CF00CFF3E031DFE2CFF307205031994
:101A1000142DEF2C0130F30201300310F00DF10D05
:101A2000F20DFF3E031D0D2DF11F0A2D73181E2D03
:101A3000FF30F0057F30F105FF30F2050310F30CA5
:101A40007308F500F601F70110300310F50DF60DDF
:101A5000F70DFF3E031D252D7508F0047608F104EF
:101A60007708F204740803190800F21708008316B7
:101A70000317A901AA0124082304031D512D1F08DF
:101A8000A5002008A6002108A7002208A80006300B
:101A90000310A50DA60DA70DA80DFF3E031D482D93
:101AA000642D831603171F08A5002008A60021082F
:101AB000A7002208A80004300310A50DA60DA70D4D
:101AC000A80DFF3E031D5C2D2808930027089200F7
:101AD00026089100250890000130970031309600CB
:101AE0002D309500003094000A128A15B9260A128A
:101AF0008A15831603171008FF3EA9001108031862
:101B0000013EFF3EAA002908831603139900981787
:101B10001813981618128316031723088316031335
:101B2000031D1815031918119814181083120313A4
:101B30009817181398121816981118119810181051
:101B4000831603138C16831203138C1208000030C3
:101B500083160317A2000030A100E130A00000307E
:101B60009F000130A3000030A4000A128A15372517
:101B70000A128A15FF30831603138500831203139C
:101B80000510831603130811831203130815831617
:101B90000313881183120313881183160313071488
:101BA00087140715871583120313871133308316A3
:101BB0000317AD00BC30AC001030AB00AB0BDE2D1A
:101BC000AC0BDE2DAD0BDE2D0A128A1199270A12FD
:101BD0008A15333083160317AD00BC30AC001030CB
:101BE000AB00AB0BF12DAC0BF12DAD0BF12D0B17A9
:101BF0008B171A3083160317AD005E30AC008630A9
:101C0000AB00AB0B012EAC0B012EAD0B012E000077
:101C10000A168A11D7260A128A15723083160317FC
:101C20009C0080309D000A128A1506210A128A152E
:101C30007F3083160317AD00D430AC00AE30AB005C
:101C4000AB0B202EAC0B202EAD0B202E272E0A1214
:101C50008A15E0210800831203133008B40031080C
:101C6000B5003208B6000310350D360DB700370841
:101C7000BD00BD08031D452E0030B3000030B2008A
:101C80000030B1000030B00008003008B400310866
:101C9000B5003208B60017300310B60CB50CB40C02
:101CA000FF3E031D4C2E3408B7003708B800B117AB
:101CB000FF30B005FF30B1050030B2053008B90083
:101CC0003108BA003208BB00BC018E30BD02BD1F16
:101CD000872E3D08803A8F3E0318772E0030B300E0
:101CE0000030B2000030B1000030B0000800013018
:101CF0000310BC0CBB0CBA0CB90CFF3E031D782EB4
:101D00000130B4003408BD070319A22E772E183015
:101D10003D02031C9F2E0030B3000030B2000030A3
:101D2000B1000030B00008000130B4000310B90D5C
:101D3000BA0DBB0DBC0DB40B962E0130BD02BD0813
:101D4000031D942E38080319B02EB909BA09BB092E
:101D5000BC09B90A0319BA0A0319BB0A0319BC0A58
:101D60003C08B3003B08B2003A08B1003908B000A3
:101D70000800831603179A01931FCB2E900991092F
:101D800092099309900A0319910A0319920A0319F7
:101D9000930A9A019A0A971FDC2E940995099609CD
:101DA0009709940A0319950A0319960A0319970AC1
:101DB0000130980018089A0600309E0000309D00FF
:101DC00000309C0000309B00130812041104100422
:101DD0000319312F9901990A931BFC2E01309800A9
:101DE0000310900D910D920D930D980BF02E013074
:101DF000980018089907EC2E0130980003109B0DED
:101E00009C0D9D0D9E0D980BFE2E13081702031DB1
:101E1000132F12081602031D132F11081502031D9C
:101E2000132F10081402031C242F10089402110809
:101E3000031C110F95021208031C120F96021308BF
:101E4000031C130F97021B1401300310930C920C08
:101E5000910C900CFF3E031D252F01309902031DAC
:101E6000FC2E1A0803193F2F9B099C099D099E0906
:101E70009B0A03199C0A03199D0A03199E0A1E084E
:101E800093001D0892001C0891001B089000080098
:101E9000831203133308B6003408B7003508B800BE
:101EA0000310370D380DB9003908BE00BE08031DF8
:101EB000602F0030B0000030B1000030B2000800E8
:101EC0003008B6003108B7003208B8000310370DEB
:101ED000380DB9003908BF00BF08031D762F003048
:101EE000B0000030B1000030B20008000030BB008C
:101EF0000030BC000030BD0089303F07B600360816
:101F0000BE023308B6003408B7003508B8001030F8
:101F10000310B80CB70CB60CFF3E031D882F360813
:101F2000B9003908BF003008B6003108B7003208E0
:101F3000B80010300310B80CB70CB60CFF3E031DF0
:101F40009A2F3608B9003908BF068030B600360827
:101F5000BF05B417FF30B305FF30B4050030B50539
:101F6000B117FF30B005FF30B1050030B2051830B1
:101F7000B6003608BA0001300310BB0DBC0DBD0D14
:101F8000FF3E031DBC2F32083502031DCD2F310843
:101F90003402031DCD2F30083302031CDA2F300822
:101FA000B3023108031C310FB4023208031C320A99
:101FB000B5023B1401300310B30DB40DB50DFF3E57
:101FC000031DDB2F0130BA02031DBB2F3B08F000BD
:101FD0003C08F1003D08F2003E08B6003608F30068
:101FE0003F08B7003708F4000A128A15CF2470089A
:101FF00083120313B0007108B1007208B200080028
:102D1600FF34FF34F000831203130C1E8E2E70084E
:102D260099000800720871047004031908008030C5
:102D3600F20608000A128A15A7250A168A110A122F
:102D46008A15B8230A168A11A22EF100F0013A302C
:102D560071020318B42E30307102031CB42EF00138
:102D6600F00A700C0800203420342034203420343B
:102D760020342034203420342034203420342034AD
:102D86002034203420347E088A007F088200C6263C
:102D96000A168A118000840A04087D060319003485
:102DA600FF0A0319FE0ACA2E831603139F179F11E3
:102DB6001F119F101F10831203139F171F131F1439
:102DC600831603130C17831203130C130800F70062
:102DD6007508013A0319F42E4030F6007608F8001B
:102DE600F52EF8017708FF3EF6007608F807780812
:102DF6008038F6007608F20000300A128A15DB20C9
:102E060008008312031398180D2F1A08F30073088D
:102E1600F4001C2F3330F1008030F2000A168A11BC
:102E260097278312031318121A08F3007308F40085
:102E360018168C1274080800803083120313A90632
:102E46002A08F8002B08F9002C08FA002708FB00CE
:102E56002808FC002908FD000A128A1105257808B1
:102E660083120313A7007908A8007A08A9000800AE
:102E76008316031797001508013A0319472F4030A8
:102E8600960016089800482F98011708FF3E9600EE
:102E96001608980718088038960016089200003021
:102EA6000A128A15372108008316031710089200A4
:102EB600920D920D920D831203131F0883160317AA
:102EC6001206C7391206831203139F002930831690
:102ED60003179200920B6D2F0000831203131F1528
:102EE6001F1D0800732FFD01F91F802FF809F9092E
:102EF600F80A0319F90AFD01FD0A7808F0007908B5
:102F0600F100F2018E30FB007B08F3007D08FC0027
:102F16007C08F4000A128A15CF247008F80071089C
:102F2600F9007208FA000800720883120313FF0002
:102F3600710884000A128A1500200A168A110038C0
:102F460003190800720883120313FF007108840036
:102F56000A128A1500200A168A110A168A118D2667
:102F66000A168A110130F1070318F20A972FF401A5
:102F7600F501701CC42F7208F4070318F50A7308CC
:102F8600F50701300310F20DF30DFF3E031DC52FAB
:102F960001300310F10CF00CFF3E031DCC2F71081D
:102FA6007004031DBC2F7508F101F1077408F001C8
:102FB600F00708007D0883120313FF007C088400D5
:102FC6000A128A1500200A168A1100380319080009
:102FD6007D0883120313FF007C0884000A128A15F9
:102FE60000200A168A110A128A15A5210A168A11C4
:0A2FF6000130FC070318FD0ADD2F6F
:02400E0072FF3F
:00000001FF
