:060000000A128A11122809
:10000800FE00030E83120313D6000408D7000A0863
:10001800D8007F08D9000A128A114B280A128A11BF
:10002800152883135A30840064300A168A11622610
:100038000A128A11D4308400DF300A168A11622627
:100048000A128A118317AE308400BF300A168A114B
:1000580062260A128A118313D430FD001630FE007E
:100068008330FF00C43084000A168A1197260A12CA
:100078008A110A128A11FC270A128A11E4000A124C
:100088008A11FD27E50083010A168A116A2E0C1FC2
:10009800A72A1E0883160313DC01DC071E08DB01F0
:1000A800DB07BA01BB01A0308400C43083120313FC
:1000B800D2000408D3001030D400520884008313FF
:1000C8000008D500D20A5308840055088000D30AD6
:1000D800D40B61280030A000A030A1003B30A20062
:1000E800831603135C08F901F9075B08F801F807A0
:1000F8000A168A1143270A128A11780883120313F1
:10010800A3007908A4007A08A5000A128A11E92632
:100118000A128A1183120313200883160313BD00E1
:1001280083120313210883160313BE0083120313DB
:10013800220883160313BF003D0883120313C4006B
:10014800831603133E0883120313C5008316031393
:100158003F0883120313C600B130D2005208C7000B
:100168000A128A1546270A128A1183120313D3002A
:10017800530883160313B000E830F0000330F10091
:100188005C08F301F3075B08F201F2070A128A150B
:100198003D220A128A117008303E83120313D200DE
:1001A800520883160313D4000A30F9000030FA000D
:1001B8006430F0000030F1005C08F301F3075B08DD
:1001C800F201F2070A128A153D220A128A117108F1
:1001D800FC01FC077008FB01FB070A128A15952130
:1001E8000A128A117908303E83120313D20052088A
:1001F80083160313D5000A30F9000030FA000A30DC
:10020800F0000030F1005C08F301F3075B08F2012D
:10021800F2070A128A153D220A128A117108FC0196
:10022800FC077008FB01FB070A128A1595210A12C0
:100238008A117908303E83120313D20052088316BC
:100248000313D6000A30F9000030FA005C08FC01FC
:10025800FC075B08FB01FB070A128A1595210A12A5
:100268008A117908303E83120313D200520883168C
:100278000313D700F501F50A00300A168A11B726CC
:100288000A128A11B930FC008030FD000A128A1562
:1002980003200A128A11F501F50A07300A168A1195
:1002A800B7260A128A11003083120313B000803077
:1002B800B1003F30B2000030A000C830A100423089
:1002C800A200831603133D0883120313A3008316A9
:1002D80003133E0883120313A400831603133F0875
:1002E80083120313A5000A128A11E9260A128A1139
:1002F800831203132008B3002108B4002208B500B4
:100308000A128A158E260A128A11831203133008DC
:1003180083160313C00083120313310883160313D3
:10032800C10083120313320883160313C200400866
:1003380083120313C40083160313410883120313A3
:10034800C50083160313420883120313C600B33093
:10035800D2005208C7000A128A1546270A128A11C3
:1003680083120313D300530883160313C3004308EF
:10037800FC000130FD000A128A1503200A128A11B6
:10038800C030F1008030F2000A168A1164270A1280
:100398008A11831603134308F1000130F2000A168C
:1003A8008A1164270A128A11F501F50A10300A1613
:1003B8008A11B7260A128A11C330FC008030FD006A
:1003C8000A128A1503200A128A11F50100300A164A
:1003D8008A11B7260A128A11D73083120313A00094
:1003E8002330A1003E30A200831603134008831275
:1003F8000313A30083160313410883120313A400F5
:1004080083160313420883120313A5000A128A11E4
:10041800E9260A128A11831203132008831603138C
:10042800B50083120313210883160313B600831241
:100438000313220883160313B70035088312031326
:10044800B00083160313360883120313B100831612
:100458000313370883120313B2000A128A15712591
:100468000A128A1183120313310883160313B90180
:10047800B90783120313300883160313B801B807AA
:100488005C08803AFF0080307F02031D4D2AC83087
:100498005B020318532A8312031308118815831665
:1004A80003135C08803AFF0080307F02031D5E2A38
:1004B800C9305B02031C642A8312031308158811D0
:1004C80083160313B91B842AFF308312D2008316C4
:1004D80003133A08A03E84008312031352088313BF
:1004E8008000FF3083160313B8070318B90AFF30DA
:1004F800B9070130BA070318BB0A0030BB07642AE2
:10050800A03083120313D200520883160313BC00D1
:100518003C08FC000030FD000A128A1503200A126C
:100528008A11063083120313D4001330D300B1307C
:10053800D200D20B9D2AD30B9D2AD40B9D2AA42A24
:10054800831203130C138C1EC52A3330F10080303C
:10055800F2000A168A1164270A128A118730F100FC
:100568008030F2000A168A1164270A128A110A16C4
:100578008A11D1260A128A110A168A1152260A12DB
:100588008A11831203135908FF0058088A00570874
:100598008400560E8300FE0E7E0E0900831203139C
:1005A800BE002B30B3003308B9000130AA07FF3072
:1005B8002A0784000A128A111F260A128A11B30018
:1005C8003308C300C3080319092D4308253A031942
:1005D800F92A4308B3003E088400330883178000D3
:1005E8000130B3003308BE07D92ABF01C001B801E2
:1005F8002A0884000A128A111F260A128A110A166A
:100608008A1175260A128A11031C4C2B83120313B4
:10061800BF01C0010A30F0000030F100831203135B
:100628004008F301F3073F08F201F2070A168A119E
:1006380087270A128A11710883120313C001C007A1
:100648007008BF01BF072A0884000A128A111F26F2
:100658000A128A11D03EB300FF3003180030B400EC
:100668003308BF070318C00A3408C0070130B300B5
:100678003308AA072A0884000A128A111F260A12B8
:100688008A110A168A1175260A128A1103180E2B66
:10069800831203132A0884000A128A111F260A12D9
:1006A8008A112E3A031D9A2B0130B3003308AA078A
:1006B800C101C2012A0884000A128A111F260A12DF
:1006C8008A110A168A1175260A128A11031CA62B8A
:1006D800831203134208F101F1074108F001F00702
:1006E8000A30F2000030F3000A168A1187270A122E
:1006F8008A11831203132A0884000A128A111F26FA
:100708000A128A117007B30000300318013071070C
:10071800B4003308D03EC10034080318013EFF3E40
:10072800C2000130B3003308AA075E2B83120313FB
:10073800C101C201A62B3816A62BC030B30033085E
:10074800B804BD2B013083120313AA07FF302A0710
:1007580084000A128A111F260A128A11C300003A5D
:100768000319092D6C3A03199F2B193A0319A12B68
:10077800D92A381ECF2B3908840083130008BA0001
:10078800840A0008BB00840A0008BC00840A000828
:10079800BD000430DE2B3908840083130008B30041
:1007A800840A0008B4003308BA003408BB00BC014E
:1007B800BD010230B3003308B90742084104031DE4
:1007C800F12B3D083C043B043A04031DF12B013096
:1007D800C1070318C20A0030C207C301C30A43088D
:1007E8000A3A0319332C4308B30001300310B30D40
:1007F800FF3E031DFA2B0310330D013E84000A123D
:100808008A111F260A128A11B4000A128A111F2699
:100818000A128A11B5000A128A111F260A128A11B1
:10082800B6000A128A111F260A128A11B700370861
:100838003D02031D292C36083C02031D292C3508CE
:100848003B02031D292C34083A02031C332C0130C7
:10085800B3003308C30743080A3A031DF72B4308BC
:10086800B300B401B31BB4033408803AB50042089E
:10087800803A3502031D422C4108330203184B2CE1
:10088800831203134108B3003308C300652C831295
:1008980003134308B300B401B31BB4034208803AFE
:1008A800B5003408803A3502031D5C2C3308410238
:1008B8000318652C831203134308C100C201C11B2E
:1008C800C203831203134308B300B401B31BB40378
:1008D8003408803AB5004008803A3502031D762C6A
:1008E8003F0833020318862C831203134308B3000E
:1008F800B401B31BB4033308BF023408031CC0039C
:10090800C0028A2C83120313BF01C00140083F04B0
:100918000319FA2C2030B3003E08840033088317EB
:1009280080000130B3003308BE07FF30BF0703184B
:10093800C00AFF30C0078A2C0030A3000030A20094
:100948000030A1000A30A0004108B30001300310B4
:10095800B30DFF3E031DAB2C0310330D013E840085
:100968000A128A111F260A128A11F0000A128A1125
:100978001F260A128A11F1000A128A111F260A126A
:100988008A11F2000A128A111F260A128A11F3002C
:100998003D08F7003C08F6003B08F5003A08F4006B
:1009A8000A128A1551230A128A1173088312031333
:1009B800A7007208A6007108A5007008A4000A1212
:1009C8008A1547210A128A11831203132008303E20
:1009D800B4003408C3004308B3003E088400330859
:1009E800831780000130B3003308BE07FF30C1070A
:1009F8000318C20AFF30C207FF304206031D062D46
:100A0800FF3041060319D92AA02C3E088400831719
:100A180080010800780883120313A0007908A10058
:100A28007A08A2000310210D220DA3002308A600B6
:100A38007B08A0007C08A1007D08A2000310210DFE
:100A4800220DA3002308A50026080319372D250821
:100A5800260203183E2D2603FF3A2507A000193069
:100A68002002031C3E2D7B08F8007C08F9007D0855
:100A7800FA000800250803190800260825020318AB
:100A88004D2D2503FF3A2607A00019302002031830
:100A980008000630A0002008A400FA1BA417FD1BBC
:100AA8002417F917FF30F805FF30F9050030FA056B
:100AB800FC17FF30FB05FF30FC050030FD0525085D
:100AC800260203188D2D01300310FB0DFC0DFD0DC2
:100AD800FF3E031D682D0130A502250826060319CF
:100AE800882D0130A402240807390319882D672DA1
:100AF80001300310FA0CF90CF80CFF3E031D7D2D94
:100B08000130A0002008A607260825060319B62DDF
:100B18007C2D260825020318B62D01300310F80D88
:100B2800F90DFA0DFF3E031D922D0130A60225088E
:100B380026060319B22D0130A40224080739031927
:100B4800B22D912D01300310FD0CFC0CFB0CFF3E67
:100B5800031DA72D0130A0002008A507260825069B
:100B6800031DA62DA41FC82DFF30F806FF30F90677
:100B7800FF30FA060130F807003003180130F90792
:100B8800003003180130FA07241FDA2DFF30FB0666
:100B9800FF30FC06FF30FD060130FB07003003186C
:100BA8000130FC07003003180130FD07A401780864
:100BB800FB07790803110318790A031DFC077A0853
:100BC800031103187A0A031DFD07FD1FFD2DFF30D1
:100BD800FB06FF30FC06FF30FD060130FB07003046
:100BE80003180130FC07003003180130FD07A40189
:100BF800A40A7B08F0007C08F1007D08F2002608B2
:100C0800A0002008F3002408A1002108F4000A121B
:100C18008A1515247008F8007108F9007208FA009E
:100C28000800FF1B1F2E83137F1883170008840AF0
:100C38000319FF0A080006308A000408840A82079C
:100C4800003401340034003400340A3400340034F1
:100C580000346434003400340034E834033400349D
:100C680000341034273400340034A034863401347E
:100C78000034403442340F3400348034963498348D
:100C880000340034E134F53405340034CA349A347D
:100C98003B341C340C34013406346C3462346D3407
:100CA8004C3442344D340A340D34203445346E34D7
:100CB800743472346F34753420346E3461342034B3
:100CC800663475346E34633461346F34203464347C
:100CD8006534203449346E34743465347234723473
:100CE80075347034633461346F342034643461345F
:100CF80020345534533441345234543400340A3493
:100D08000D3420342D342D342D342D342D342D3400
:100D18002D3420344534533454344F3455345234FC
:100D28004F342034443445342034503449344C341E
:100D38004834413420342D342D342D342D342D3481
:100D48002D342D3420340A340D34203400340A3440
:100D58000D34203443346134723461346334743470
:100D680065347234203444346934673469347434F3
:100D7800613464346F3420343A3400340C344C34E5
:100D88006F346134643469346E34673420345034D9
:100D9800493443342E342E342E34003425346C3404
:100DA80075342E34253436342E3436346C34753458
:100DB80000344E346934763465346C343A34003453
:100DC8000D345334003425340034831203132008BF
:100DD800A6002108A7002208A8000310270D280D47
:100DE800A9002908AA00AA08031D012F0030A000A5
:100DF8000030A1000030A20008002308A600240843
:100E0800A7002508A8000310270D280DA900290808
:100E1800AF00AF08031D172F0030A0000030A1005D
:100E28000030A20008002F087B3EA6002608AA076B
:100E38002008A6002108A7002208A80010300310E7
:100E4800A80CA70CA60CFF3E031D232F2608A900FB
:100E58002908AF002308A6002408A7002508A80031
:100E680010300310A80CA70CA60CFF3E031D352F4D
:100E78002608A9002908AF068030A6002608AF0575
:100E8800A117A417FF30A305FF30A4050030A5055E
:100E98000030AB000030AC000030AD000730A600D9
:100EA8002608AE00201C662F2308AB072408031170
:100EB8000318240A031DAC07250803110318250A83
:100EC800031DAD0701300310A20CA10CA00CFF3EBE
:100ED800031D672F01300310A30DA40DA50DFF3EC0
:100EE800031D6F2F0130AE02031D562F0930A600D7
:100EF8002608AE00201C8E2F2308AB0724080311F8
:100F08000318240A031DAC07250803110318250A32
:100F1800031DAD0701300310A20CA10CA00CFF3E6D
:100F2800031D8F2F01300310AD0CAC0CAB0CFF3E32
:100F3800031D972F0130AE02031D7E2F2B08F000F2
:100F48002C08F1002D08F2002A08A6002608F30054
:100F58002F08A7002708F4000A128A15152470081C
:100F680083120313A0007108A1007208A2000800F0
:100F7800831603179201920A00300A128A15572025
:100F88000A128A114130831603179600EE30950035
:100F9800950BCC2F960BCC2F00000C308316031723
:100FA80095001508920000300A128A1557200A1277
:100FB8008A11F9308316031795000000950BE12F6D
:100FC800E52F0000063083160317950015089200D8
:100FD80000300A128A1557200A128A11F93083162E
:100FE800031795000000950BF62FFA2F0000080054
:040FF800FF34FF348F
:101006007D0883120313FF007C0884000A128A11EC
:1010160015260A128A150038031908007D0883125E
:101026000313FF007C0884000A128A1115260A128F
:101036008A150A128A15C5200A128A150130FC077C
:101046000318FD0A0328831603171D0883120313CA
:10105600FF00831603171C088400831203130A1269
:101066008A1115260A128A150038031908008316F4
:1010760003171D0883120313FF00831603171C08AA
:101086008400831203130A128A1115260A128A157E
:101096000A128A1500210A128A15013083160317CF
:1010A6009C0703189D0A26288316031794008312AB
:1010B600031386126330831603179300930B61287C
:1010C600642883160317140803196D288312031363
:1010D60086167028831203138612000083120313E8
:1010E6000612831603171208930004300310930C9C
:1010F600FF3E031D792813080A128A15E4210A12F5
:101106008A158316031712080F390A128A15E42165
:101116000800F100003071180130F000831203134B
:1011260006087006FE39700686000030F118013098
:10113600F000F00D06087006FD39700686000030D6
:1011460071190130F000F00DF00D06087006FB393C
:10115600700686000030F1190130F000F00DF00D38
:10116600F00D06087006F739700686000000831237
:10117600031306160330F000F00BBF288312031387
:1011860006120800FB00F428F201F20A00300A16E3
:101196008A11D5270A128A150D30FA00FB30F9009C
:1011A600F90BD328FA0BD328D82808000230F90007
:1011B6007908F50001300A168A11B72608001030A2
:1011C600F9007908F20000300A168A11D5270800BE
:1011D6007B08F9007908F20001300A168A11D52732
:1011E60008007B08083A0319E228023A0319D928AD
:1011F600063A0319C728EB280800831603179B0035
:1012060039299201920A00300A128A1557200A12C9
:101216008A150D30831603179A00FB309900990B37
:1012260012299A0B12291729080002308316031770
:1012360099001908950001300A168A110827080036
:1012460010308316031799001908920000300A120D
:101256008A1557200800831603171B0899001908DA
:10126600920001300A128A155720080083160317C8
:101276001B08083A03192329023A03191829063AC2
:10128600031904292E2908008312031323082204B4
:101296002104200403198C29A901A90AA31B612989
:1012A6000130A8000310A00DA10DA20DA30DA80BDF
:1012B60055290130A8002808A90751292308270223
:1012C600031D6F2922082602031D6F292108250206
:1012D600031D6F2920082402031C7F292008A4026D
:1012E6002108031C210FA5022208031C220FA602B7
:1012F6002308031C230FA70201300310A30CA20C22
:10130600A10CA00CFF3E031D80290130A902031D7C
:1013160061292708A3002608A2002508A1002408A1
:10132600A000080083120313A101FC1FA129FB09D9
:10133600FC09FB0A0319FC0AA101A10AFA1FA82944
:10134600F909FA09F90A0319FA0A7A087904031954
:10135600D529A001A00AFA1BBC2901300310F90DFA
:10136600FA0DFF3E031DB1290130FD007D08A007DF
:10137600AE297A087C02031DC22979087B02031C68
:10138600CA297908FB027A08031CFC03FC02013017
:101396000310FA0CF90CFF3E031DCB290130A00205
:1013A600031DBC2921080319DD29FB09FC09FB0AD9
:1013B6000319FC0A7C08FA01FA077B08F901F90708
:1013C60008008316031791000030111801309000B1
:1013D600831203130608831603171006FE39100638
:1013E6008312031386000030831603179118013009
:1013F6009000900D83120313060883160317100638
:10140600FD39100683120313860000308316031776
:10141600111901309000900D900D831203130608E8
:10142600831603171006FB39100683120313860072
:10143600003083160317911901309000900D900D1E
:10144600900D831203130608831603171006F73947
:101456001006831203138600000083120313061678
:101466000330831603179000900B372A8312031359
:1014760006120800F601F11F472AF009F109F00AE1
:101486000319F10AF601F60AF31F522AF209F309C3
:10149600F20A0319F30A0130F4007408F606F7019C
:1014A600F801710870040319892AF501F50AF11B80
:1014B600682A01300310F00DF10DFF3E031D5D2A71
:1014C6000130F4007408F5075A2A01300310F70DAD
:1014D600F80DFF3E031D692A71087302031D752A64
:1014E60070087202031C7E2A7008F2027108031C3F
:1014F600F303F302771401300310F10CF00CFF3EF6
:10150600031D7F2A0130F502031D682A7608031998
:10151600912AF709F809F70A0319F80A7808F10178
:10152600F1077708F001F007080083120313871DFF
:10153600B82A08308316031795009D3094000B30A7
:101546009300930BA42A940BA42A950BA42AAB2AE6
:10155600831603135E085D04031DB62A0130DD0001
:101566000030DE00B82ADD01DE01013083160313E8
:101576005D065E04031D0800003083160317900005
:10158600003091000A168A1124270A128A1508309B
:101596008316031795009D3094000B309300930B30
:1015A600D22A940BD22A950BD22AD92A0130831635
:1015B60003179000003091000A168A1124270A1298
:1015C6008A1508308316031795009D3094000B305A
:1015D6009300930BEC2A940BEC2A950BEC2AF32A36
:1015E6000800F21F1B2B0030F6000030F700803099
:1015F600F8007009F9007109FA007209FB00F90A8E
:101606000319FA0A0319FB0A7908F6077A08031878
:101616007A0F0E2B0F2BF7077B0803187B0F142B63
:10162600152BF8077608F0007708F1007808F20025
:10163600F51F422B0030F6000030F7008030F8002E
:101646007309F9007409FA007509FB00F90A031910
:10165600FA0A0319FB0A7908F6077A0803187A0FBB
:10166600352B362BF7077B0803187B0F3B2B3C2BC0
:10167600F8077608F3007708F4007808F50080305C
:10168600F2068030F50675087202031D080074081C
:101696007102031D08007308700208000030FC0088
:1016A6000030FB000030FA000030F90073087204C5
:1016B600710470040319A62BFD01FD0AF31B712B9F
:1016C6000130F8000310F00DF10DF20DF30DF80BDB
:1016D600652B0130F8007808FD07612B0130F80012
:1016E6000310F90DFA0DFB0DFC0DF80B732B7308A7
:1016F6007702031D882B72087602031D882B71085A
:101706007502031D882B70087402031C992B700840
:10171600F4027108031C710FF5027208031C720FA4
:10172600F6027308031C730FF702791401300310D5
:10173600F30CF20CF10CF00CFF3E031D9A2B01305A
:10174600FD02031D712B7C08F3007B08F2007A086A
:10175600F1007908F00008008316031306128612BA
:1017660083120313061286128316031306108610BD
:1017760006118611831203130610861006118611B0
:10178600623083160317960065309500950BC92BBA
:10179600960BC92BCE2B831603179701033017021E
:1017A6000318F02B03300A128A15E4210A128A154F
:1017B600213083160317960076309500950BE12BA2
:1017C600960BE12B000001308316031795001508D0
:1017D600970703301702031CD52B02300A128A150D
:1017E600E4210A128A15831603179701043017029B
:1017F600031808001708293E84000A128A111F26BA
:101806000A128A1595001508920000300A128A15E8
:1018160057200A128A1501308316031795001508FA
:101826009707F92B730803191D2C720871047004AD
:10183600031D302C0030F0000030F1000030F200C3
:1018460008000130F5007508F30701300310F20CAB
:10185600F10CF00CFF3E031D292CFE307205031916
:101866004B2C242C0130F5007508F3070130F007E6
:10187600003003180130F107003003180130F20779
:1018860001300310F20CF10CF00CFF3E031D442C4A
:10189600FF30720503195A2C352C0130F302013042
:1018A6000310F00DF10DF20DFF3E031D532CF11F39
:1018B600502C7318642CFF30F0057F30F105FF3093
:1018C600F2050310F30C7308F500F601F70110306A
:1018D6000310F50DF60DF70DFF3E031D6B2C750875
:1018E600F0047608F1047708F20474080319080076
:1018F600F217080083160317A901AA012408230476
:10190600031D972C1F08A5002008A6002108A70084
:101916002208A80006300310A50DA60DA70DA80DD8
:10192600FF3E031D8E2CAA2C831603171F08A50045
:101936002008A6002108A7002208A80004300310EA
:10194600A50DA60DA70DA80DFF3E031DA22C280868
:101956009300270892002608910025089000013080
:101966009700313096002D309500003094000A1211
:101976008A15FF250A128A15831603171008FF3EDB
:10198600A90011080318013EFF3EAA002908831684
:10199600031399009817181398161812831603172D
:1019A600230883160313031D181503191811981419
:1019B60018108312031398171813981218169811F3
:1019C600181198101810831603138C16831203131C
:1019D6008C120800003083160317A2000030A10005
:1019E600E130A00000309F000130A3000030A400C9
:1019F6000A128A157D240A128A15FF3083160313EC
:101A0600850083120313051083160313081183122E
:101A16000313081583160313881183120313881101
:101A260083160313071487140715871583120313E8
:101A36008711333083160317AD00BC30AC0010306D
:101A4600AB00AB0B242DAC0B242DAD0B242D0A12B1
:101A56008A15AF230A128A15333083160317AD0091
:101A6600BC30AC001030AB00AB0B372DAC0B372DB8
:101A7600AD0B372D0B178B171A3083160317AD00D6
:101A86005E30AC008630AB00AB0B472DAC0B472D60
:101A9600AD0B472D00000A168A11A4260A128A15D4
:101AA6009E30831603179C0080309D000A128A150B
:101AB60026200A128A157F3083160317AD00D4300C
:101AC600AC00AE30AB00AB0B662DAC0B662DAD0B90
:101AD600662D6D2D0A128A11BC2708008312031386
:101AE6003008B4003108B5003208B6000310350DD1
:101AF600360DB7003708BD00BD08031D8B2D00301D
:101B0600B3000030B2000030B1000030B000080071
:101B16003008B4003108B5003208B600173003109B
:101B2600B60CB50CB40CFF3E031D922D3408B7005D
:101B36003708B800B117FF30B005FF30B1050030E7
:101B4600B2053008B9003108BA003208BB00BC0142
:101B56008E30BD02BD1FCD2D3D08803A8F3E031845
:101B6600BD2D0030B3000030B2000030B1000030AF
:101B7600B000080001300310BC0CBB0CBA0CB90C49
:101B8600FF3E031DBE2D0130B4003408BD07031906
:101B9600E82DBD2D18303D02031CE52D0030B300A5
:101BA6000030B2000030B1000030B0000800013053
:101BB600B4000310B90DBA0DBB0DBC0DB40BDC2D72
:101BC6000130BD02BD08031DDA2D38080319F62DB4
:101BD600B909BA09BB09BC09B90A0319BA0A031932
:101BE600BB0A0319BC0A3C08B3003B08B2003A081A
:101BF600B1003908B0000800831603179A01931F35
:101C0600112E9009910992099309900A0319910AD4
:101C16000319920A0319930A9A019A0A971F222E08
:101C26009409950996099709940A0319950A0319BF
:101C3600960A0319970A0130980018089A06003088
:101C46009E0000309D0000309C0000309B00130871
:101C56001204110410040319772E9901990A931B93
:101C6600422E013098000310900D910D920D930DA8
:101C7600980B362E0130980018089907322E01303D
:101C8600980003109B0D9C0D9D0D9E0D980B442EE8
:101C960013081702031D592E12081602031D592E8A
:101CA60011081502031D592E10081402031C6A2E72
:101CB600100894021108031C110F95021208031C48
:101CC600120F96021308031C130F97021B14013000
:101CD6000310930C920C910C900CFF3E031D6B2E7F
:101CE60001309902031D422E1A080319852E9B09FD
:101CF6009C099D099E099B0A03199C0A03199D0AC2
:101D060003199E0A1E0893001D0892001C089100E4
:101D16001B0890000800831203133308B60034082A
:101D2600B7003508B8000310370D380DB90039086B
:101D3600BE00BE08031DA62E0030B0000030B10064
:101D46000030B20008003008B6003108B70032088B
:101D5600B8000310370D380DB9003908BF00BF08A9
:101D6600031DBC2E0030B0000030B1000030B200C0
:101D760008000030BB000030BC000030BD008930D8
:101D86003F07B6003608BE023308B6003408B7006F
:101D96003508B80010300310B80CB70CB60CFF3E6F
:101DA600031DCE2E3608B9003908BF003008B6002C
:101DB6003108B7003208B80010300310B80CB70C61
:101DC600B60CFF3E031DE02E3608B9003908BF06E3
:101DD6008030B6003608BF05B417FF30B305FF30B4
:101DE600B4050030B505B117FF30B005FF30B105B9
:101DF6000030B2051830B6003608BA0001300310BC
:101E0600BB0DBC0DBD0DFF3E031D022F3208350272
:101E1600031D132F31083402031D132F300833021C
:101E2600031C202F3008B3023108031C310FB40203
:101E36003208031C320AB5023B1401300310B30DFD
:101E4600B40DB50DFF3E031D212F0130BA02031D4F
:101E5600012F3B08F0003C08F1003D08F2003E0867
:101E6600B6003608F3003F08B7003708F4000A1238
:101E76008A151524700883120313B0007108B10087
:101E86007208B2000800AE3083120313C800480877
:101E9600D1004408F0004508F1004608F200003081
:101EA600F3000030F4000030F5000A128A15F4221F
:101EB6000A128A1503187F2F2D3083120313C800C8
:101EC600510884004808831780000130C80048087C
:101ED600D1074408F0004508F1004608F2000A164A
:101EE6008A115A260A128A15700883120313C4002F
:101EF6007108C5007208C600831203134408B000B7
:101F06004508B1004608B2000A128A1571250A1260
:101F16008A15831203133308D0003208CF00310824
:101F2600CE003008CD005008FB004F08FA004E08DE
:101F3600F9004D08F8000A168A11AA270A128A150E
:101F4600780883120313A7007908A8007A08A90065
:101F56004408AA004508AB004608AC000A168A11D8
:101F6600EC260A128A15831203132708C4002808D0
:101F7600C5002908C6004408A3004508A400460871
:101F8600A5002430A0007430A1004930A2000A1236
:101F96008A11E9260A128A15831203132008B00053
:101FA6002108B1002208B2000A128A1571250A1208
:101FB6008A15831203133308CC003208CB0031088C
:101FC600CA003008C900AE30C8004808AA00500848
:101FD600AE004F08AD004E08AC004D08AB004C08F3
:101FE600B2004B08B1004A08B0004908AF005108DA
:0A1FF6000A128A11D222AE30080050
:102CA400F000831203130C1E532E700899000800C1
:102CB400720871047004031908008030F2060800D9
:102CC40064008001840A0406031900340406632E98
:102CD4000A128A15ED240A168A110A128A159822F4
:102CE4000A168A116F2EF100F0013A3071020318AE
:102CF400812E30307102031C812EF001F00A700C19
:102D0400080020342034203420342034203420346B
:102D1400203420342034203420342034203420340F
:102D240020347E088A007F08820093260A168A11BE
:102D34008000840A04087D0603190034FF0A03197D
:102D4400FE0A972E831603139F179F111F119F10BE
:102D54001F10831203139F171F131F1483160313CB
:102D64000C17831203130C130800F7007508013ABB
:102D74000319C12E4030F6007608F800C22EF8017F
:102D84007708FF3EF6007608F80778088038F600E2
:102D94007608F20000300A168A11D527080083123B
:102DA40003139818DA2E1A08F3007308F400E92EB6
:102DB4005F30F1008030F2000A168A116427831212
:102DC400031318121A08F3007308F40018168C126F
:102DD40074080800803083120313A9062A08F80037
:102DE4002B08F9002C08FA002708FB002808FC002F
:102DF4002908FD000A128A110E257808831203138C
:102E0400A7007908A8007A08A90008008316031708
:102E140097001508013A0319142F4030960016083C
:102E24009800152F98011708FF3E9600160898077A
:102E34001808803896001608920000300A128A1585
:102E4400572008008316031710089200920D920D64
:102E5400920D831203131F08831603171206C73932
:102E64001206831203139F0029308316031792005E
:102E7400920B3A2F0000831203131F151F1D080025
:102E8400402FFD01F91F4D2FF809F909F80A03191C
:102E9400F90AFD01FD0A7808F0007908F100F20151
:102EA4008E30FB007B08F3007D08FC007C08F400F6
:102EB4000A128A1515247008F8007108F9007208BE
:102EC400FA000800720883120313FF0071088400DB
:102ED4000A128A1115260A168A11003803190800E5
:102EE400720883120313FF00710884000A128A1106
:102EF40015260A168A110A168A1152260A168A11EA
:102F04000130F1070318F20A642FF401F501701C73
:102F1400912F7208F4070318F50A7308F5070130B6
:102F24000310F20DF30DFF3E031D922F0130031029
:102F3400F10CF00CFF3E031D992F71087004031D62
:102F4400892F7508F101F1077408F001F0070800F2
:102F54008E30FC007C08FD00FF307B050319C02F78
:102F640001300310FB0CFA0CF90CF80CFF3E031DA6
:102F7400B32F0130FC007C08FD07AE2F7808F00069
:102F84007908F1007A08F2007D08FC007C08F3005F
:102F9400F4010A128A1515247008F8007108F90062
:102FA4007208FA000800F4008312031386126330D7
:102FB400F300F30BDB2FDE2F74080319E52F8312C4
:102FC40003138616E82F831203138612000083125C
:102FD400031306127208F30004300310F30CFF3ECF
:102FE400031DEF2F73080A128A158C200A168A1102
:0C2FF40072080F390A128A158C200800A0
:02400E0072FF3F
:00000001FF
