:060000000A128A11122809
:10000800FE00030E83120313D6000408D7000A0863
:10001800D8007F08D9000A128A1152280A128A11B8
:10002800152883135A3084006B300A128A11F82776
:100038000A128A11C5308400DA300A128A11F827A8
:100048000A128A118317BE30FD001530FE00B33046
:10005800FF00AE3084000A168A11C7250A128A11D9
:10006800831603130A168A1178250A128A11DA00F0
:100078000A168A1179250A128A11DB0083120313E2
:100088000A168A117A250A128A11EB000A168A11B1
:100098007B25EC0083010A168A118C2D0C1F6C2B12
:1000A8001E0883160313C601C6071E08C501C50727
:1000B800B801B901A0308400AE3083120313D20016
:1000C8000408D3001030D4005208840083170008B5
:1000D800D500D20A53088400831355088000D30A38
:1000E800D40B6828831603135B085A04031D232ABC
:1000F800003083120313A000A030A1003B30A200FF
:10010800831603134608F901F9074508F801F807AB
:100118000A168A1154260A128A11780883120313C0
:10012800A3007908A4007A08A5000A128A112527D5
:100138000A128A1183120313200883160313BD00C1
:1001480083120313210883160313BE0083120313BB
:10015800220883160313BF003D0883120313C4004B
:10016800831603133E0883120313C5008316031373
:100178003F0883120313C600B130D2005208C700EB
:100188000A128A1546270A128A1183120313D3000A
:10019800530883160313B000003083120313B00012
:1001A8008030B1003F30B2000030A000C830A1005C
:1001B8004230A200831603133D0883120313A300E1
:1001C800831603133E0883120313A4008316031334
:1001D8003F0883120313A5000A128A1125270A1261
:1001E8008A11831203132008B3002108B4002208DF
:1001F800B5000A128A158E260A128A118312031371
:10020800300883160313C0008312031331088316C2
:100218000313C10083120313320883160313C200A9
:10022800400883120313C400831603134108831282
:100238000313C50083160313420883120313C60071
:10024800BB30D2005208C7000A128A1546270A1284
:100258008A1183120313D300530883160313C400AF
:10026800F501F50A00300A168A11E7250A128A11E3
:100278007A30FC008030FD000A168A1198260A128E
:100288008A118530F1008030F2000A168A11BB26E7
:100298000A128A118316031344080A128A1549217F
:1002A8000A128A11F1000030F2000A168A11BB26E0
:1002B8000A128A11F501F50A04300A168A11E7258F
:1002C8000A128A117630FC008030FD000A168A1165
:1002D80098260A128A11F501F50A04300A168A11BD
:1002E800E7250A128A118316031344080A128A158D
:1002F80049210A128A11FC000030FD000A168A11F1
:1003080098260A128A11F501F50A07300A168A1189
:10031800E7250A128A118830FC008030FD000A1691
:100328008A1198260A128A11F50100300A168A11D4
:10033800E7250A128A11D73083120313A00023304D
:10034800A1003E30A2008316031340088312031352
:10035800A30083160313410883120313A400831612
:100368000313420883120313A5000A128A112527D2
:100378000A128A1183120313200883160313B30089
:1003880083120313210883160313B4008312031383
:10039800220883160313B500330883120313B00031
:1003A80083160313340883120313B100831603134F
:1003B800350883120313B2000A128A1571250A122E
:1003C8008A1183120313310883160313B701B70781
:1003D80083120313300883160313B601B607B71B3D
:1003E800122AFF3083120313D2008316031338082E
:1003F800A03E840083120313520883138000FF3049
:1004080083160313B6070318B70AFF30B70701307E
:10041800B8070318B90A0030B907F329A0308312C6
:100428000313D200520883160313BA003A08FC00DB
:100438000030FD000A168A1198260A128A11013026
:10044800831603135A065B04031D262B0030831200
:100458000313A000A030A1003B30A20083160313B1
:100468004608F901F9074508F801F8070A168A113C
:1004780054260A128A11780883120313A3007908F4
:10048800A4007A08A5000A128A1125270A128A11DF
:1004980083120313200883160313BD00831203136A
:1004A800210883160313BE00831203132208831640
:1004B8000313BF00003083120313B0008030B10073
:1004C8003F30B2000030A000C830A1004230A20086
:1004D800831603133D0883120313A3008316031323
:1004E8003E0883120313A400831603133F088312E4
:1004F8000313A5000A128A1125270A128A118312EA
:1005080003132008B3002108B4002208B5000A121A
:100518008A158E260A128A1183120313300883164D
:100528000313C00083120313310883160313C10099
:1005380083120313320883160313C2004008831280
:100548000313C40083160313410883120313C50061
:1005580083160313420883120313C600BB30D2006C
:100568005208C7000A128A1546270A128A118312EE
:100578000313D300530883160313C400F501F50AC7
:1005880009300A168A11E7250A128A117E30FC0002
:100598008030FD000A168A1198260A128A118230C4
:1005A800F1008030F2000A168A11BB260A128A115D
:1005B8008316031344080A128A1549210A128A115C
:1005C800F1000030F2000A168A11BB260A128A11BD
:1005D800F501F50A0D300A168A11E7250A128A1163
:1005E8007630FC008030FD000A168A1198260A121F
:1005F8008A11F501F50A0D300A168A11E7250A1243
:100608008A118316031344080A128A1549210A120B
:100618008A11FC000030FD000A168A1198260A1279
:100628008A11F501F50A10300A168A11E7250A120F
:100638008A118830FC008030FD000A168A1198263D
:100648000A128A11831603134608803AFF00803085
:100658007F02031D312B3230450203183D2B8316D0
:1006680003135B085A04031D3D2B8312031308115F
:100678008815831603134608803AFF0080307F02EE
:10068800031D482BC9304502031C542B8316031342
:100698005B085A04031D542B831203130815881191
:1006A800063083120313D4001330D300B130D200C4
:1006B800D20B5C2BD30B5C2BD40B5C2B632B8312E0
:1006C80003130C13FF3083160313DA00FF30DB002B
:1006D80083128C1ED62B0A168A1101260A128A1139
:1006E80083120313D200520883160313C3000A1699
:1006F8008A1101260A128A110A168A117C250A1201
:100708008A11313084000A128A150A200A128A11C5
:1007180083120313D20083160313430883120313AF
:100728005206031D992B081188152E3084000A12D1
:100738008A150A200A128A11D20083160313430865
:10074800831203135206031DAB2B08158811303092
:1007580084000A128A150A200A128A11D200831606
:1007680003134308831203135206031DC12B0130E0
:1007780083160313C7000030C8002D3084000A1206
:100788008A150A200A128A118312D20083160313CB
:100798004308831203135206031DD62B8316031333
:1007A800C701C80183125908FF0058088A00570872
:1007B8008400560E8300FE0E7E0E0900831203137A
:1007C800BE002B30B3003308B9000130AA07FF3050
:1007D8002A0784000A128A150A200A128A11B3000D
:1007E8003308C300C3080319192E4308253A03190F
:1007F800092C4308B3003E088400330883138000A3
:100808000130B3003308BE07E92BBF01C001B801AE
:100818002A0884000A128A150A200A128A110A165E
:100828008A1197250A128A11031C5C2C8312031360
:10083800BF01C0010A30F0000030F1008312031339
:100848004008F301F3073F08F201F2070A168A117C
:1008580075260A128A11710883120313C001C00792
:100868007008BF01BF072A0884000A128A150A20E7
:100878000A128A11D03EB300FF3003180030B400CA
:100888003308BF070318C00A3408C0070130B30093
:100898003308AA072A0884000A128A150A200A12AD
:1008A8008A110A168A1197250A128A1103181E2C12
:1008B800831203132A0884000A128A150A200A12CE
:1008C8008A112E3A031DAA2C0130B3003308AA0757
:1008D800C101C2012A0884000A128A150A200A12D4
:1008E8008A110A168A1197250A128A11031CB62C36
:1008F800831203134208F101F1074108F001F007E0
:100908000A30F2000030F3000A168A1175260A121E
:100918008A11831203132A0884000A128A150A20EE
:100928000A128A117007B3000030031801307107EA
:10093800B4003308D03EC10034080318013EFF3E1E
:10094800C2000130B3003308AA076E2C83120313C8
:10095800C101C201B62C3816B62CC030B30033081A
:10096800B804CD2C013083120313AA07FF302A07DD
:1009780084000A128A150A200A128A11C300003A52
:100988000319192E6C3A0319AF2C193A0319B12C13
:10099800E92B381EDF2C3908840083130008BA00BD
:1009A800840A0008BB00840A0008BC00840A000806
:1009B800BD000430EE2C3908840083130008B3000E
:1009C800840A0008B4003308BA003408BB00BC012C
:1009D800BD010230B3003308B90742084104031DC2
:1009E800012D3D083C043B043A04031D012D013050
:1009F800C1070318C20A0030C207C301C30A43086B
:100A08000A3A0319432D4308B30001300310B30D0C
:100A1800FF3E031D0A2D0310330D013E84000A1208
:100A28008A150A200A128A11B4000A128A150A20A5
:100A38000A128A11B5000A128A150A200A128A11A6
:100A4800B6000A128A150A200A128A11B700370856
:100A58003D02031D392D36083C02031D392D35088A
:100A68003B02031D392D34083A02031C432D013083
:100A7800B3003308C30743080A3A031D072D430888
:100A8800B300B401B31BB4033408803AB50042087C
:100A9800803A3502031D522D4108330203185B2D9D
:100AA800831203134108B3003308C300752D831262
:100AB80003134308B300B401B31BB4034208803ADC
:100AC800B5003408803A3502031D6C2D3308410205
:100AD8000318752D831203134308C100C201C11BFB
:100AE800C203831203134308B300B401B31BB40356
:100AF8003408803AB5004008803A3502031D862D37
:100B08003F0833020318962D831203134308B300DA
:100B1800B401B31BB4033308BF023408031CC00379
:100B2800C0029A2D83120313BF01C00140083F047D
:100B380003190A2E2030B3003E08840033088313BB
:100B480080000130B3003308BE07FF30BF07031829
:100B5800C00AFF30C0079A2D0030A3000030A20061
:100B68000030A1000A30A0004108B3000130031092
:100B7800B30DFF3E031DBB2D0310330D013E840052
:100B88000A128A150A200A128A11F0000A128A1516
:100B98000A200A128A11F1000A128A150A200A127A
:100BA8008A11F2000A128A150A200A128A11F30021
:100BB8003D08F7003C08F6003B08F5003A08F40049
:100BC8000A128A15DA220A128A1173088312031389
:100BD800A7007208A6007108A5007008A4000A12F0
:100BE8008A15D6210A128A11831203132008303E6F
:100BF800B4003408C3004308B3003E088400330837
:100C0800831380000130B3003308BE07FF30C107EB
:100C18000318C20AFF30C207FF304206031D162E12
:100C2800FF3041060319E92BB02D3E0884008313D9
:100C380080010800780883120313A0007908A10036
:100C48007A08A2000310210D220DA3002308A60094
:100C58007B08A0007C08A1007D08A2000310210DDC
:100C6800220DA3002308A50026080319472E2508EE
:100C7800260203184E2E2603FF3A2507A000193036
:100C88002002031C4E2E7B08F8007C08F9007D0822
:100C9800FA00080025080319080026082502031889
:100CA8005D2E2503FF3A2607A000193020020318FD
:100CB80008000630A0002008A400FA1BA417FD1B9A
:100CC8002417F917FF30F805FF30F9050030FA0549
:100CD800FC17FF30FB05FF30FC050030FD0525083B
:100CE800260203189D2E01300310FB0DFC0DFD0D8F
:100CF800FF3E031D782E0130A5022508260603199C
:100D0800982E0130A402240807390319982E772E4B
:100D180001300310FA0CF90CF80CFF3E031D8D2E60
:100D28000130A0002008A607260825060319C62EAC
:100D38008C2E260825020318C62E01300310F80D44
:100D4800F90DFA0DFF3E031DA22E0130A60225085B
:100D580026060319C22E0130A402240807390319F4
:100D6800C22EA12E01300310FD0CFC0CFB0CFF3E23
:100D7800031DB72E0130A0002008A5072608250668
:100D8800031DB62EA41FD82EFF30F806FF30F90633
:100D9800FF30FA060130F807003003180130F90770
:100DA800003003180130FA07241FEA2EFF30FB0633
:100DB800FF30FC06FF30FD060130FB07003003184A
:100DC8000130FC07003003180130FD07A401780842
:100DD800FB07790803110318790A031DFC077A0831
:100DE800031103187A0A031DFD07FD1F0D2FFF309D
:100DF800FB06FF30FC06FF30FD060130FB07003024
:100E080003180130FC07003003180130FD07A40166
:100E1800A40A7B08F0007C08F1007D08F20026088F
:100E2800A0002008F3002408A1002108F4000A12F9
:100E38008A159E237008F8007108F9007208FA00F4
:100E48000800831203132008A6002108A70022081F
:100E5800A8000310270D280DA9002908AA00AA0830
:100E6800031D3D2F0030A0000030A1000030A2007B
:100E780008002308A6002408A7002508A8000310D6
:100E8800270D280DA9002908AF00AF08031D532F0F
:100E98000030A0000030A1000030A20008002F0898
:100EA8007B3EA6002608AA072008A6002108A7005E
:100EB8002208A80010300310A80CA70CA60CFF3EAF
:100EC800031D5F2F2608A9002908AF002308A600E4
:100ED8002408A7002508A80010300310A80CA70CA8
:100EE800A60CFF3E031D712F2608A9002908AF068E
:100EF8008030A6002608AF05A117A417FF30A30568
:100F0800FF30A4050030A5050030AB000030AC0070
:100F18000030AD000730A6002608AE00201CA22F26
:100F28002308AB07240803110318240A031DAC0780
:100F3800250803110318250A031DAD070130031006
:100F4800A20CA10CA00CFF3E031DA32F013003101F
:100F5800A30DA40DA50DFF3E031DAB2F0130AE025E
:100F6800031D922F0930A6002608AE00201CCA2FA8
:100F78002308AB07240803110318240A031DAC0730
:100F8800250803110318250A031DAD0701300310B6
:100F9800A20CA10CA00CFF3E031DCB2F01300310A7
:100FA800AD0CAC0CAB0CFF3E031DD32F0130AE02D1
:100FB800031DBA2F2B08F0002C08F1002D08F200B1
:100FC8002A08A6002608F3002F08A7002708F4001F
:100FD8000A128A159E23700883120313A000710851
:100FE800A1007208A200080064008001840A0406B7
:100FF800031900340406F92FFF1B0A2883137F18EE
:1010080083170008840A0319FF0A080008308A00B9
:101018000408840A820700340134003400340034A0
:101028000A340034003400346434003400340034AA
:10103800E8340334003400341034273400340034E6
:10104800A034863401340034403442340F34003440
:1010580080349634983400340034E134F53405345F
:101068000034CA349A343B341C340C34013406340A
:101078006C3462346D344C3442344D340A340D349B
:1010880020342D342D342D342D342D342D342D345D
:1010980020344534533454344F34553452344F3457
:1010A8002034443445342034503449344C344834A2
:1010B800413420342D342D342D342D342D342D3419
:1010C8002D3420340A340D34203400340C344C349C
:1010D8006F346134643469346E3467342034503486
:1010E800493443342E342E342E34003425346C34B1
:1010F80075342E34253436342E3436346C34753405
:10110800003420342034203400344E3431343A341E
:1011180000344E3432343A3400340A34493400341A
:101128000A345334003425340034831603179400EA
:101138008312031386126330831603179300930BED
:10114800A328A6288316031714080319AF288312A7
:1011580003138616B2288312031386120000831223
:1011680003130612831603171208930004300310A2
:10117800930CFF3E031DBB2813080A128A1524226C
:101188000A128A158316031712080F390A128A15CC
:1011980024220800FB00FD28F201F20A00300A169A
:1011A8008A110B270A128A150D30FA00FB30F90054
:1011B800F90BDC28FA0BDC28E12808000230F900DA
:1011C8007908F50001300A168A11E7250800103061
:1011D800F9007908F20000300A168A110B27080076
:1011E8007B08F9007908F20001300A168A110B27EA
:1011F80008007B08083A0319EB28023A0319E22889
:10120800063A0319D028F428080083160317920118
:10121800920A00300A128A1599200A128A1541305A
:10122800831603179600EE309500950B1929960B37
:10123800192900000C308316031795001508920031
:1012480000300A128A1599200A128A15F930831675
:10125800031795000000950B2E293229000006304F
:101268008316031795001508920000300A128A1594
:1012780099200A128A15F930831603179500000081
:10128800950B432947290000080083120313CD005A
:10129800C901CA01CB01CC014D08840083130008A1
:1012A8002E3A031962290130C9070318CA0A003007
:1012B800CA070130F0007008CD0750294908CD024F
:1012C8004C08803AF0004A08803A7002031D6E29E3
:1012D80049084B0203188729831203134D08840019
:1012E80083130008F0004B08203E8400700880003B
:1012F8000130F0007008CD070130CB070318CC0A85
:101308000030CC0764292030F000700883120313E2
:10131800C80048080800831603179B00C8299201D3
:10132800920A00300A128A1599200A128A150D307D
:10133800831603179A00FB309900990BA1299A0B81
:10134800A129A62908000230831603179900190855
:10135800950001300A168A113826080010308316C5
:10136800031799001908920000300A128A1599206B
:101378000800831603171B0899001908920001300A
:101388000A128A1599200800831603171B08083AC1
:101398000319B229023A0319A729063A031993290E
:1013A800BD29080083120313230822042104200402
:1013B80003191B2AA901A90AA31BF0290130A800B7
:1013C8000310A00DA10DA20DA30DA80BE429013057
:1013D800A8002808A907E02923082702031DFE29D9
:1013E80022082602031DFE2921082502031DFE29C5
:1013F80020082402031C0E2A2008A4022108031C2A
:10140800210FA5022208031C220FA6022308031C91
:10141800230FA70201300310A30CA20CA10CA00CEF
:10142800FF3E031D0F2A0130A902031DF0292708DA
:10143800A3002608A2002508A1002408A00008008F
:1014480083160317910000301118013090008312A1
:1014580003130608831603171006FE3910068312B5
:10146800031386000030831603179118013090008B
:10147800900D831203130608831603171006FD390F
:101488001006831203138600003083160317111900
:1014980001309000900D900D8312031306088316F7
:1014A80003171006FB391006831203138600003059
:1014B80083160317911901309000900D900D900D2F
:1014C800831203130608831603171006F73910064C
:1014D80083120313860000008312031306160330D9
:1014E800831603179000900B772A831203130612B2
:1014F8000800F21FA42A0030F6000030F700803000
:10150800F8007009F9007109FA007209FB00F90A7C
:101518000319FA0A0319FB0A7908F6077A08031867
:101528007A0F972A982AF7077B0803187B0F9D2ABA
:101538009E2AF8077608F0007708F1007808F2008C
:10154800F51FCB2A0030F6000030F7008030F80095
:101558007309F9007409FA007509FB00F90A0319FF
:10156800FA0A0319FB0A7908F6077A0803187A0FAA
:10157800BE2ABF2AF7077B0803187B0FC42AC52A8F
:10158800F8077608F3007708F4007808F50080304B
:10159800F2068030F50675087202031D080074080B
:1015A8007102031D08007308700208000030FC0077
:1015B8000030FB000030FA000030F90073087204B4
:1015C8007104700403192F2BFD01FD0AF31BFA2A7D
:1015D8000130F8000310F00DF10DF20DF30DF80BCA
:1015E800EE2A0130F8007808FD07EA2A0130F800F1
:1015F8000310F90DFA0DFB0DFC0DF80BFC2A73080E
:101608007702031D112B72087602031D112B710836
:101618007502031D112B70087402031C222B70081D
:10162800F4027108031C710FF5027208031C720F93
:10163800F6027308031C730FF702791401300310C4
:10164800F30CF20CF10CF00CFF3E031D232B0130C0
:10165800FD02031DFA2A7C08F3007B08F2007A08D1
:10166800F1007908F00008008316031306128612A9
:1016780083120313061286128316031306108610AC
:10168800061186118312031306108610061186119F
:10169800623083160317960065309500950B522B20
:1016A800960B522B572B83160317970103301702FB
:1016B8000318792B03300A128A1524220A128A1574
:1016C800213083160317960076309500950B6A2B08
:1016D800960B6A2B00000130831603179500150836
:1016E800970703301702031C5E2B02300A128A1573
:1016F80024220A128A158316031797010430170249
:10170800031808001708293E84000A128A150A20BF
:101718000A128A1595001508920000300A128A15D7
:1017280099200A128A1501308316031795001508A7
:101738009707822B73080319A62B7208710470048B
:10174800031DB92B0030F0000030F1000030F2002A
:1017580008000130F5007508F30701300310F20C9A
:10176800F10CF00CFF3E031DB22BFE30720503197D
:10177800D42BAD2B0130F5007508F3070130F007C5
:10178800003003180130F107003003180130F20768
:1017980001300310F20CF10CF00CFF3E031DCD2BB1
:1017A800FF3072050319E32BBE2B0130F302013021
:1017B8000310F00DF10DF20DFF3E031DDC2BF11FA0
:1017C800D92B7318ED2BFF30F0057F30F105FF3072
:1017D800F2050310F30C7308F500F601F701103059
:1017E8000310F50DF60DF70DFF3E031DF42B7508DC
:1017F800F0047608F1047708F20474080319080065
:10180800F217080083120313871D3A2C0830831639
:10181800031795009D3094000B309300930B122C06
:10182800940B122C950B122C192C831603134808B1
:101838004704031D252C0130C7000030C800303094
:101848002A2C83160313C701C8012D3084000A12FD
:101858008A150A200A128A15831603179100803008
:1018680092000A168A1194270A128A1501308316E3
:10187800031347064804031D0800003083160317A6
:101888009000003091000A168A1136270A128A152C
:1018980008308316031795009D3094000B30930091
:1018A800930B542C940B542C950B542C5B2C01301B
:1018B800831603179000003091000A168A11362704
:1018C8000A128A1508308316031795009D30940074
:1018D8000B309300930B6E2C940B6E2C950B6E2C87
:1018E800752C080083160317A901AA0124082304EC
:1018F800031D902C1F08A5002008A6002108A7009A
:101908002208A80006300310A50DA60DA70DA80DE6
:10191800FF3E031D872CA32C831603171F08A50061
:101928002008A6002108A7002208A80004300310F8
:10193800A50DA60DA70DA80DFF3E031D9B2C28087D
:10194800930027089200260891002508900001308E
:101958009700313096002D309500003094000A121F
:101968008A15FF250A128A15831603171008FF3EE9
:10197800A90011080318013EFF3EAA002908831692
:10198800031399009817181398161812831603173B
:10199800230883160313031D181503191811981427
:1019A8001810831203139817181398121816981101
:1019B800181198101810831603138C16831203132A
:1019C8008C120800003083160317A2000030A10013
:1019D800E130A00000309F000130A3000030A400D7
:1019E8000A128A1576240A128A15FF308316031301
:1019F800850083120313051085108316031308113D
:101A08008312031308158316031388118312031313
:101A180088118316031388128312031388128316FE
:101A280003130714871407158715831203138711E7
:101A3800333083160317AD00BC30AC001030AB0058
:101A4800AB0B242DAC0B242DAD0B242D0A128A15BB
:101A580038230A128A15333083160317AD00BC30B9
:101A6800AC001030AB00AB0B372DAC0B372DAD0BEA
:101A7800372D0B178B171A3083160317AD005E30FE
:101A8800AC008630AB00AB0B472DAC0B472DAD0B34
:101A9800472D00000A168A11D4250A128A155B30D0
:101AA800831603179C0080309D000A168A1163274D
:101AB8000A128A157F3083160317AD00D430AC00A4
:101AC800AE30AB00AB0B662DAC0B662DAD0B662DA7
:101AD8006D2D0A128A150921080083120313300894
:101AE800B4003108B5003208B6000310350D360DC4
:101AF800B7003708BD00BD08031D8B2D0030B300AB
:101B08000030B2000030B1000030B00008003008EA
:101B1800B4003108B5003208B60017300310B60C0F
:101B2800B50CB40CFF3E031D922D3408B7003708DE
:101B3800B800B117FF30B005FF30B1050030B2056D
:101B48003008B9003108BA003208BB00BC018E3039
:101B5800BD02BD1FCD2D3D08803A8F3E0318BD2D17
:101B68000030B3000030B2000030B1000030B000E7
:101B7800080001300310BC0CBB0CBA0CB90CFF3EBA
:101B8800031DBE2D0130B4003408BD070319E82D2C
:101B9800BD2D18303D02031CE52D0030B300003088
:101BA800B2000030B1000030B00008000130B400CD
:101BB8000310B90DBA0DBB0DBC0DB40BDC2D0130F3
:101BC800BD02BD08031DDA2D38080319F62DB90921
:101BD800BA09BB09BC09B90A0319BA0A0319BB0A2D
:101BE8000319BC0A3C08B3003B08B2003A08B1002C
:101BF8003908B0000800831603179A01931F112EA5
:101C08009009910992099309900A0319910A0319F5
:101C1800920A0319930A9A019A0A971F222E940985
:101C2800950996099709940A0319950A0319960ABA
:101C38000319970A0130980018089A0600309E0088
:101C480000309D0000309C0000309B0013081204F7
:101C5800110410040319772E9901990A931B422E37
:101C6800013098000310900D910D920D930D980B73
:101C7800362E0130980018089907322E0130980046
:101C880003109B0D9C0D9D0D9E0D980B442E130863
:101C98001702031D592E12081602031D592E11088A
:101CA8001502031D592E10081402031C6A2E100871
:101CB80094021108031C110F95021208031C120F3D
:101CC80096021308031C130F97021B14013003100C
:101CD800930C920C910C900CFF3E031D6B2E01305F
:101CE8009902031D422E1A080319852E9B099C0987
:101CF8009D099E099B0A03199C0A03199D0A031949
:101D08009E0A1E0893001D0892001C0891001B08DB
:101D180090000800831203133308B6003408B70094
:101D28003508B8000310370D380DB9003908BE0062
:101D3800BE08031DA62E0030B0000030B1000030F0
:101D4800B20008003008B6003108B7003208B80001
:101D58000310370D380DB9003908BF00BF08031D3F
:101D6800BC2E0030B0000030B1000030B2000800D6
:101D78000030BB000030BC000030BD0089303F0798
:101D8800B6003608BE023308B6003408B700350876
:101D9800B80010300310B80CB70CB60CFF3E031D8A
:101DA800CE2E3608B9003908BF003008B600310811
:101DB800B7003208B80010300310B80CB70CB60CD6
:101DC800FF3E031DE02E3608B9003908BF068030F3
:101DD800B6003608BF05B417FF30B305FF30B405A9
:101DE8000030B505B117FF30B005FF30B105003040
:101DF800B2051830B6003608BA0001300310BB0D22
:101E0800BC0DBD0DFF3E031D022F32083502031D18
:101E1800132F31083402031D132F30083302031C1B
:101E2800202F3008B3023108031C310FB4023208E6
:101E3800031C320AB5023B1401300310B30DB40D74
:101E4800B50DFF3E031D212F0130BA02031D012FDE
:101E58003B08F0003C08F1003D08F2003E08B600DF
:101E68003608F3003F08B7003708F4000A128A154D
:101E78009E23700883120313B0007108B100720822
:101E8800B2000800C93083120313C8004808D10003
:101E98004408F0004508F1004608F2000030F3005D
:101EA8000030F4000030F5000A128A157D220A126B
:101EB8008A1503187F2F2D3083120313C800510889
:101EC80084004808831380000130C8004808D107FF
:101ED8004408F0004508F1004608F2000A168A1185
:101EE80084250A128A15700883120313C400710826
:101EF800C5007208C600831203134408B0004508E1
:101F0800B1004608B2000A128A1571250A128A150C
:101F1800831203133308D0003208CF003108CE00F3
:101F28003008CD005008FB004F08FA004E08F900B1
:101F38004D08F8000A168A11E0260A128A15780850
:101F480083120313A7007908A8007A08A900440897
:101F5800AA004508AB004608AC000A168A111C26E0
:101F68000A128A15831203132708C4002808C5001B
:101F78002908C6004408A3004508A4004608A5008F
:101F88002430A0007430A1004930A2000A128A113E
:101F980025270A128A15831203132008B000210886
:101FA800B1002208B2000A128A1571250A128A1590
:101FB800831203133308CC003208CB003108CA005F
:101FC8003008C9006B30C8004808AA005008AE00A5
:101FD8004F08AD004E08AC004D08AB004C08B200ED
:101FE8004B08B1004A08B0004908AF0051080A126E
:081FF8008A11E223C930080040
:102AF000FF34FF34FF34FF34F000831203130C1E45
:102B00007D2D700899000800720871047004031983
:102B100008008030F20608000A128A15E6240A1618
:102B20008A110A128A1506240A168A11912DF100BB
:102B3000F0013A3071020318A32D30307102031CEA
:102B4000A32DF001F00A700C080083160317900003
:102B5000831203130C1EA82D83160317100883126B
:102B6000031399000800203420342034203420340A
:102B700020342034203420342034203420342034B5
:102B80002034203420347E088A007F088200C32548
:102B90000A168A118000840A04087D06031900348D
:102BA000FF0A0319FE0AC72D831603139F179F11EF
:102BB0001F119F101F10831203139F171F131F1441
:102BC000831603130C17831203130C130800F7006A
:102BD0007508013A0319F12D4030F6007608F80027
:102BE000F22DF8017708FF3EF6007608F80778081E
:102BF0008038F6007608F20000300A168A110B279A
:102C000008008312031398180A2E1A08F300730899
:102C1000F400192E3330F1008030F2000A168A11C8
:102C2000BB268312031318121A08F3007308F4006A
:102C300018168C1274080800803083120313A9063A
:102C40002A08F8002B08F9002C08FA002708FB00D6
:102C50002808FC002908FD000A128A111E2678089F
:102C600083120313A7007908A8007A08A9000800B6
:102C70008316031797001508013A0319442E4030B4
:102C8000960016089800452E98011708FF3E9600FA
:102C90001608980718088038960016089200003029
:102CA0000A128A1599200800FD01F91F5E2EF80905
:102CB000F909F80A0319F90AFD01FD0A7808F0007C
:102CC0007908F100F2018E30FB007B08F3007D08EB
:102CD000FC007C08F4000A128A159E237008F80094
:102CE0007108F9007208FA000800F401F501701C7F
:102CF0007F2E7208F4070318F50A7308F5070130F0
:102D00000310F20DF30DFF3E031D802E0130031062
:102D1000F10CF00CFF3E031D872E71087004031D9B
:102D2000772E7508F101F1077408F001F00708002B
:102D30007D0883120313FF007C0884000A128A15A1
:102D400000200A168A110038031908007D08831232
:102D50000313FF007C0884000A128A1500200A165B
:102D60008A110A128A15CE200A168A110130FC0730
:102D70000318FD0A982E720883120313FF007108CE
:102D800084000A128A1500200A168A1100380319D5
:102D90000800720883120313FF00710884000A12EE
:102DA0008A1500200A168A110A168A117C250A162D
:102DB0008A110130F1070318F20A0030F207BB2E26
:102DC0008E30FC007C08FD00FF307B050319F62ED9
:102DD00001300310FB0CFA0CF90CF80CFF3E031D3C
:102DE000E92E0130FC007C08FD07E42E7808F00095
:102DF0007908F1007A08F2007D08FC007C08F300F5
:102E0000F4010A128A159E237008F8007108F9006F
:102E10007208FA000800F40083120313861263306C
:102E2000F300F30B112F142F740803191B2F8312B7
:102E3000031386161E2F83120313861200008312BB
:102E4000031306127208F30004300310F30CFF3E64
:102E5000031D252F73080A168A11C7270A168A111F
:102E600072080F390A168A11C7270800831603173C
:102E7000110883160313DB01DB0783160317100801
:102E800083160313DA01DA0783160317100892007A
:102E9000920D920D920D831203131F0883160317D0
:102EA0001206C7391206831203139F0029308316B6
:102EB00003179200920B5A2F0000831203131F1561
:102EC0001F1D0800602F831603171D0883120313AC
:102ED000FF00831603171C088400831203130A12D1
:102EE0008A1500200A168A11003803190800831673
:102EF00003171D0883120313FF00831603171C0812
:102F00008400831203130A128A1500200A168A11FC
:102F10000A128A158F210A168A11013083160317A7
:102F20009C0703189D0A632F831603171208831248
:102F30000313FF0083160317110884008312031381
:102F40000A128A1500200A168A110038031908008F
:102F500083160317120883120313FF008316031747
:102F600011088400831203130A128A1500200A161E
:102F70008A110A168A11A5250A168A1101308316AC
:102F8000031791070318920A00309207942FF1005B
:102F9000003071180130F000831203130608700628
:102FA000FE39700686000030F1180130F000F00D97
:102FB00006087006FD397006860000307119013070
:102FC000F000F00DF00D06087006FB397006860063
:102FD0000030F1190130F000F00DF00DF00D060891
:102FE0007006F73970068600000083120313061678
:102FF0000330F000F00BFA2F8312031306120800BF
:02400E0072FF3F
:00000001FF
