:060000000A128A11122809
:10000800FE00030E83120313DA000408DB000A085B
:10001800DC007F08DD000A128A116C2A0A128A1194
:100028001528EE01EF018317A4308400B5300A12B9
:100038008A1563210A128A118313E030FD00093002
:10004800FE008A30FF00CE3084000A128A157D2116
:1000580083010A128A15362B83120313BE002B3034
:10006800B3003308B9000130AA07FF302A0784001B
:100078000A128A150A200A128A11B3003308C3002B
:10008800C3080319672A4308253A03195728430860
:10009800B3003E0884003308831780000130B300A2
:1000A8003308BE073728BF01C001B8012A088400F9
:1000B8000A128A150A200A128A110A128A156B2155
:1000C8000A128A11031CAA2883120313BF01C00154
:1000D8000A30F0000030F100831203134008F301E6
:1000E800F3073F08F201F2070A128A1598220A124A
:1000F8008A11710883120313C001C0077008BF0179
:10010800BF072A0884000A128A150A200A128A11CF
:10011800D03EB300FF3003180030B4003308BF07E7
:100128000318C00A3408C0070130B3003308AA070F
:100138002A0884000A128A150A200A128A110A1249
:100148008A156B210A128A1103186C28831203136B
:100158002A0884000A128A150A200A128A112E3ADD
:10016800031DF8280130B3003308AA07C101C201F2
:100178002A0884000A128A150A200A128A110A1209
:100188008A156B210A128A11031C0429831203138E
:100198004208F101F1074108F001F0070A30F200C6
:1001A8000030F3000A128A1598220A128A11831263
:1001B80003132A0884000A128A150A200A128A11CF
:1001C8007007B3000030031801307107B40033081A
:1001D800D03EC10034080318013EFF3EC200013082
:1001E800B3003308AA07BC2883120313C101C20154
:1001F800042938160429C030B3003308B8041B2971
:10020800013083120313AA07FF302A0784000A1259
:100218008A150A200A128A11C300003A0319672AAC
:100228006C3A0319FD28193A0319FF283728381E94
:100238002D293908840083130008BA00840A0008AD
:10024800BB00840A0008BC00840A0008BD00043012
:100258003C293908840083130008B300840A000885
:10026800B4003308BA003408BB00BC01BD01023039
:10027800B3003308B90742084104031D4F293D085C
:100288003C043B043A04031D4F290130C1070318FD
:10029800C20A0030C207C301C30A43080A3A031955
:1002A80091294308B30001300310B30DFF3E031D2D
:1002B80058290310330D013E84000A128A150A20BA
:1002C8000A128A11B4000A128A150A200A128A111F
:1002D800B5000A128A150A200A128A11B6000A12F3
:1002E8008A150A200A128A11B70037083D02031D31
:1002F800872936083C02031D872935083B02031D60
:10030800872934083A02031C91290130B3003308C5
:10031800C30743080A3A031D55294308B300B4012B
:10032800B31BB4033408803AB5004208803A35025A
:10033800031DA029410833020318A92983120313B6
:100348004108B3003308C300C329831203134308C9
:10035800B300B401B31BB4034208803AB5003408B3
:10036800803A3502031DBA29330841020318C3290C
:10037800831203134308C100C201C11BC2038312C5
:1003880003134308B300B401B31BB4033408803A21
:10039800B5004008803A3502031DD4293F083302CE
:1003A8000318E429831203134308B300B401B31BF1
:1003B800B4033308BF023408031CC003C002E82991
:1003C80083120313BF01C00140083F040319582AD0
:1003D8002030B3003E0884003308831780000130C2
:1003E800B3003308BE07FF30BF070318C00AFF3049
:1003F800C007E8290030A3000030A2000030A100A7
:100408000A30A0004108B30001300310B30DFF3ECD
:10041800031D092A0310330D013E84000A128A15B0
:100428000A200A128A11F0000A128A150A200A12F2
:100438008A11F1000A128A150A200A128A11F2009A
:100448000A128A150A200A128A11F3003D08F700D9
:100458003C08F6003B08F5003A08F4000A128A1531
:1004680046260A128A11730883120313A70072081A
:10047800A6007108A5007008A4000A128A15422572
:100488000A128A11831203132008303EB40034087C
:10049800C3004308B3003E08840033088317800074
:1004A8000130B3003308BE07FF30C1070318C20A82
:1004B800FF30C207FF304206031D642AFF304106A1
:1004C80003193728FE293E08840083178001080095
:1004D8000C1F8C2B1E08EF01EF07831603131E0851
:1004E80083120313EE01EE070030A000A030A10034
:1004F8003B30A2006F08F901F9076E08F801F80708
:100508000A128A1554220A128A11780883120313D0
:10051800A3007908A4007A08A5000A128A11B22457
:100528000A128A11831203132008E6002108E70043
:100538002208E8006608C4006708C5006808C60005
:100548006430D8005808C7000A128A1185250A1293
:100558008A1183120313D9005908DE00F501F50A40
:1005680000300A128A15C7210A128A117430FC0059
:100578008030FD000A128A1575220A128A11F501C7
:10058800F50A07300A128A15C7210A128A11CD30D6
:1005980083120313B0004C30B1003F30B20000307A
:1005A800A000C830A1004230A2006608A300670876
:1005B800A4006808A5000A128A11B2240A128A1136
:1005C800831203132008B3002108B4002208B500E1
:1005D8000A128A113F260A128A118312031330085D
:1005E800E9003108EA003208EB006908C4006A082B
:1005F800C5006B08C6006430D8005808C7000A1246
:100608008A1185250A128A1183120313D900590801
:10061800E2006208FC000130FD000A128A1575220A
:100628000A128A11F501F50A10300A128A15C72133
:100638000A128A117B30FC008030FD000A128A15EC
:1006480075220A128A11F50100300A128A15C7218B
:100658000A128A11D73083120313A0002330A10095
:100668003E30A2006908A3006A08A4006B08A50030
:100678000A128A11B2240A128A118312031320085B
:10068800DF002108E0002208E1005F08B0006008F0
:10069800B1006108B2000A128A1572270A128A117B
:1006A800831203133108ED01ED073008EC01EC0764
:1006B8000A128A15BB220A128A11831203136D08C3
:1006C800A101A1076C08A001A0070A128A15F62447
:1006D8000A128A11831203136D08D301D3076C0819
:1006E800D201D2072F3084000A128A150A200A1272
:1006F8008A11D4000A128A150A200A128A11D50012
:100708000A128A11F7260A128A11831203130C138C
:100718008C1E9E2B0A128A15AF210A128A11831287
:100728000313D8005808E30063080A128A159323B4
:100738000A128A11831203135D08FF005C088A00FD
:100748005B0884005A0E8300FE0E7E0E09007808AE
:1007580083120313A0007908A1007A08A2000310ED
:10076800210D220DA3002308A6007B08A0007C0809
:10077800A1007D08A2000310210D220DA30023086B
:10078800A50026080319D42B250826020318DB2BFD
:100798002603FF3A2507A00019302002031CDB2B93
:1007A8007B08F8007C08F9007D08FA000800250895
:1007B80003190800260825020318EA2B2503FF3A27
:1007C8002607A00019302002031808000630A000F0
:1007D8002008A400FA1BA417FD1B2417F917FF30E3
:1007E800F805FF30F9050030FA05FC17FF30FB0566
:1007F800FF30FC050030FD052508260203182A2CC9
:1008080001300310FB0DFC0DFD0DFF3E031D052CF3
:100818000130A502250826060319252C0130A4025B
:10082800240807390319252C042C01300310FA0C6D
:10083800F90CF80CFF3E031D1A2C0130A00020080B
:10084800A607260825060319532C192C2608250265
:100858000318532C01300310F80DF90DFA0DFF3E63
:10086800031D2F2C0130A6022508260603194F2C3C
:100878000130A4022408073903194F2C2E2C01300B
:100888000310FD0CFC0CFB0CFF3E031D442C013037
:10089800A0002008A50726082506031D432CA41F31
:1008A800652CFF30F806FF30F906FF30FA060130F4
:1008B800F807003003180130F90700300318013039
:1008C800FA07241F772CFF30FB06FF30FC06FF30A9
:1008D800FD060130FB07003003180130FC0700302B
:1008E80003180130FD07A4017808FB0779080311F4
:1008F8000318790A031DFC077A08031103187A0AFA
:10090800031DFD07FD1F9A2CFF30FB06FF30FC0678
:10091800FF30FD060130FB07003003180130FC07EB
:10092800003003180130FD07A401A40A7B08F00079
:100938007C08F1007D08F2002608A0002008F300DA
:100948002408A1002108F4000A128A150A27700851
:10095800F8007108F9007208FA00080083120313FE
:100968002008A6002108A7002208A8000310270DC8
:10097800280DA9002908AA00AA08031DCA2C0030BE
:10098800A0000030A1000030A20008002308A60043
:100998002408A7002508A8000310270D280DA90082
:1009A8002908AF00AF08031DE02C0030A00000307C
:1009B800A1000030A20008002F087B3EA6002608F0
:1009C800AA072008A6002108A7002208A8001030BE
:1009D8000310A80CA70CA60CFF3E031DEC2C260840
:1009E800A9002908AF002308A6002408A7002508A5
:1009F800A80010300310A80CA70CA60CFF3E031D7E
:100A0800FE2C2608A9002908AF068030A600260873
:100A1800AF05A117A417FF30A305FF30A4050030C8
:100A2800A5050030AB000030AC000030AD00073049
:100A3800A6002608AE00201C2F2D2308AB0724088B
:100A480003110318240A031DAC0725080311031812
:100A5800250A031DAD0701300310A20CA10CA00C40
:100A6800FF3E031D302D01300310A30DA40DA50D6D
:100A7800FF3E031D382D0130AE02031D1F2D093026
:100A8800A6002608AE00201C572D2308AB07240813
:100A980003110318240A031DAC07250803110318C2
:100AA800250A031DAD0701300310A20CA10CA00CF0
:100AB800FF3E031D582D01300310AD0CAC0CAB0CE0
:100AC800FF3E031D602D0130AE02031D472D2B088C
:100AD800F0002C08F1002D08F2002A08A6002608CC
:100AE800F3002F08A7002708F4000A128A150A271E
:100AF800700883120313A0007108A1007208A200F5
:100B08000800A43083120313C8004808D100440821
:100B1800F0004508F1004608F2000030F30000300C
:100B2800F4000030F5000A128A15E9250A128A1124
:100B38000318BE2D2D3083120313C80051088400FA
:100B48004808831780000130C8004808D1074408C6
:100B5800F0004508F1004608F2000A128A155B21E8
:100B68000A128A11700883120313C4007108C500A1
:100B78007208C600831203134408B0004508B10088
:100B88004608B2000A128A1572270A128A118312BD
:100B980003133308D0003208CF003108CE003008E4
:100BA800CD005008FB004F08FA004E08F9004D0828
:100BB800F8000A128A150B230A128A117808831280
:100BC8000313A7007908A8007A08A9004408AA0016
:100BD8004508AB004608AC000A128A15FD210A1226
:100BE8008A11831203132708C4002808C50029089E
:100BF800C6004408A3004508A4004608A500243000
:100C0800A0007430A1004930A2000A128A11B2244F
:100C18000A128A11831203132008B0002108B100B8
:100C28002208B2000A128A1572270A128A11831240
:100C380003133308CC003208CB003108CA0030084F
:100C4800C9006930C8004808AA005008AE004F081B
:100C5800AD004E08AC004D08AB004C08B2004B0884
:100C6800B1004A08B0004908AF0051080A128A11B9
:100C78003020A4300800831203133308B600340868
:100C8800B7003508B8000310370D380DB90039081A
:100C9800BE00BE08031D572E0030B0000030B10062
:100CA8000030B20008003008B6003108B70032083A
:100CB800B8000310370D380DB9003908BF00BF0858
:100CC800031D6D2E0030B0000030B1000030B200BE
:100CD80008000030BB000030BC000030BD00893087
:100CE8003F07B6003608BE023308B6003408B7001E
:100CF8003508B80010300310B80CB70CB60CFF3E1E
:100D0800031D7F2E3608B9003908BF003008B60029
:100D18003108B7003208B80010300310B80CB70C0F
:100D2800B60CFF3E031D912E3608B9003908BF06E0
:100D38008030B6003608BF05B417FF30B305FF3062
:100D4800B4050030B505B117FF30B005FF30B10567
:100D58000030B2051830B6003608BA00013003106A
:100D6800BB0DBC0DBD0DFF3E031DB32E3208350271
:100D7800031DC42E31083402031DC42E300833026B
:100D8800031CD12E3008B3023108031C310FB40202
:100D98003208031C320AB5023B1401300310B30DAC
:100DA800B40DB50DFF3E031DD22E0130BA02031D4E
:100DB800B22E3B08F0003C08F1003D08F2003E0866
:100DC800B6003608F3003F08B7003708F4000A12E7
:100DD8008A150A27700883120313B0007108B1003E
:100DE8007208B200080083160313C801C901CC01B8
:100DF800CD01831203135308F901F9075208F801CA
:100E0800F8070A128A1554220A128A1178088312DE
:100E18000313C4007908C5007A08C600C830D60094
:100E28005608C7000A128A1185250A128A118312E8
:100E38000313D700570883160313CB004B0884000D
:100E4800831700080A3A0319752F4D084C04031D2F
:100E5800572F2F3084000A128A150A200A128A1185
:100E680083120313D6000A128A150A200A128A115D
:100E7800D70057085506031D432F56085406031D6F
:100E8800472F5330482F4930D600831603134C0898
:100E9800A03E840083120313560883138000013098
:100EA800831603136F2F4B088400831700088312DF
:100EB8000313D600831603134C08A03E8400831244
:100EC80003135608831380000130D6005608831692
:100ED8000313CB070130CC070318CD0A0030CD0728
:100EE800222FA03083120313D6005608831603134B
:100EF800CA004A088400831300080A128A15E121EF
:100F08000800FF30831603138500831203130510AE
:100F1800831603130811831203130815831603138A
:100F28008811831203138811831603130714871477
:100F3800071587158312031387110711333083169A
:100F48000317A000BC309F0010309E009E0BAA2FF4
:100F58009F0BAA2FA00BAA2F0A128A15A4260A12E1
:100F68008A11333083160317A000BC309F0010305D
:100F78009E009E0BBD2F9F0BBD2FA00BBD2F0B17E7
:100F88008B171A3083160317A0005E309F00863037
:100F98009E009E0BCD2F9F0BCD2FA00BCD2F0000B9
:100FA8000A128A159C210A128A11593083160317CE
:100FB8009C0080309D000A128A1562230A128A1149
:100FC8007F3083160317A000D4309F00AE309E00F8
:100FD8009E0BEC2F9F0BEC2FA00BEC2FF32F0A127C
:100FE8008A156F24080083120313871D0800871DC4
:100FF800080008158811FB2FFF1B0A2883137F1888
:1010080083170008840A0319FF0A080008308A00B9
:101018000408840A820700340134003400340034A0
:101028000A340034003400346434003400340034AA
:10103800E8340334003400341034273400340034E6
:10104800A034863401340034403442340F34003440
:1010580080349634983400340034E134F53405345F
:101068000034CA349A343B341C340C34013406340A
:1010780001340034003400340A340D3420342D3463
:101088002D342D342D342D342D342D342034453445
:10109800533454344F34553452344F342034443458
:1010A80045342034503449344C34483441342034A5
:1010B8002D342D342D342D342D342D342D3420342D
:1010C8000A340D34203400340C344C346F34613419
:1010D800643469346E3467342034503449344334CA
:1010E8002E342E342E34003425346C3475342E349A
:1010F800253436342E3436346C34753400344E345A
:101108006934763465346C343A3400342534003428
:1012A600F000831203130C1E5429700899000800DD
:1012B600720871047004031908008030F2060800F1
:1012C60064008001840A04060319003404066429B4
:1012D600F100F0013A3071020318772930307102BB
:1012E600031C7729F001F00A700C08007E088A00BA
:1012F6007F08820079210A128A158000840A040870
:101306007D0603190034FF0A0319FE0A7D292034DD
:101316002034203420342034203420342034203427
:101326002034203420342034203420342034FF3438
:10133600FF34831603139F179F111F119F101F1051
:10134600831203139F171F131F14831603130C17FF
:10135600831203130C130800831203139818B82979
:101366001A08F3007308F400C42931300A128A15EA
:10137600E1218312031318121A08F3007308F4000C
:1013860018168C1274080800F7007508013A03193C
:10139600D1294030F6007608F800D229F8017708FE
:1013A600FF3EF6007608F80778088038F6007608DB
:1013B600F20000300A128A15E0220800F2007208D4
:1013C60084000A128A150A200A128A15003803199F
:1013D6000800720884000A128A150A200A128A1561
:1013E6000A128A1553210A128A150130F100710872
:1013F600F207E229803083120313A9062A08F800AF
:101406002B08F9002C08FA002708FB002808FC0026
:101416002908FD000A128A11AB23780883120313E8
:10142600A7007908A8007A08A90008008316031700
:1014360097001508013A0319252A40309600160828
:101446009800262A98011708FF3E96001608980766
:101456001808803896001608920000300A128A157D
:10146600C62308008316031710089200920D920DEA
:10147600920D831203131F08831603171206C7392A
:101486001206831203139F00293083160317920056
:10149600920B4B2A0000831203131F151F1D080011
:1014A600512AFD01F91F5E2AF809F909F80A0319FC
:1014B600F90AFD01FD0A7808F0007908F100F20149
:1014C6008E30FB007B08F3007D08FC007C08F400EE
:1014D6000A128A150A277008F8007108F9007208BE
:1014E600FA0008007D0883120313FF007C088400BD
:1014F6000A128A1500200A128A15003803190800F4
:101506007D0883120313FF007C0884000A128A15E3
:1015160000200A128A150A128A1534240A128A151C
:101526000130FC070318FD0A752AF401F501701C49
:10153600A22A7208F4070318F50A7308F5070130A2
:101546000310F20DF30DFF3E031DA32A0130031015
:10155600F10CF00CFF3E031DAA2A71087004031D4E
:101566009A2A7508F101F1077408F001F0070800DE
:10157600831203136F08803AFF0080307F02031D39
:10158600C62AA0306E020318CE2A42300A128A15E5
:1015960093230A128A15831203136F08803AFF00F9
:1015A60080307F02031DD92AA1306E02031C080079
:1015B60062300A128A1593230800F400831203137B
:1015C60086126330F300F30BE62AE92A740803193E
:1015D600F02A831203138616F32A83120313861244
:1015E60000008312031306127208F300043003107E
:1015F600F30CFF3E031DFA2A73080A128A15FB2311
:101606000A128A1572080F390A128A15FB23080076
:101616008E30FC007C08FD00FF307B050319212B72
:1016260001300310FB0CFA0CF90CF80CFF3E031DFD
:10163600142B0130FC007C08FD070F2B7808F00006
:101646007908F1007A08F2007D08FC007C08F300B6
:10165600F4010A128A150A277008F8007108F900C1
:101666007208FA0008000A128A1185270A128A15DA
:1016760083120313071D5F2B013083160317900097
:10168600003091000A128A1535220A128A1508308E
:1016960083160317A3009D30A2000B30A100A10BF7
:1016A600522BA20B522BA30B522B592B0A128A1127
:1016B600F7270A128A153F2B0A128A111228831657
:1016C60003171D0883120313FF00831603171C0854
:1016D6008400831203130A128A1500200A128A153F
:1016E600003803190800831603171D088312031315
:1016F600FF00831603171C088400831203130A12C3
:101706008A1500200A128A150A128A15AF240A12AF
:101716008A150130831603179C0703189D0A622B4E
:10172600F3007308423A031DA12B83120313081119
:10173600881542300A128A15E12108007308623AB8
:10174600031DAE2B831203130815881162300A128B
:101756008A15E121080073084D3A031DBA2B83123E
:10176600031308164D300A128A15E1210800730882
:101776006D3A031D08008312031308126D300A1216
:101786008A15E121080083160317940083120313B8
:1017960086126330831603179300930BD02BD32B3B
:1017A6008316031714080319DC2B831203138616FA
:1017B600DF2B831203138612000083120313061213
:1017C600831603171208930004300310930CFF3E90
:1017D600031DE82B13080A128A1590250A128A158A
:1017E6008316031712080F390A128A159025080066
:1017F600F100003071180130F0008312031306085F
:101806007006FE39700686000030F1180130F000CF
:10181600F00D06087006FD39700686000030711955
:101826000130F000F00DF00D06087006FB39700669
:1018360086000030F1190130F000F00DF00DF00DCA
:1018460006087006F7397006860000008312031337
:1018560006160330F000F00B2E2C8312031306122B
:101866000800FB00632CF201F20A00300A128A1506
:10187600E0220A128A150D30FA00FB30F900F90B46
:10188600422CFA0B422C472C08000230F90079084A
:10189600F50001300A128A15C72108001030F90038
:1018A6007908F20000300A128A15E02208007B0847
:1018B600F9007908F20001300A128A15E0220800C0
:1018C6007B08083A0319512C023A0319482C063AA8
:1018D6000319362C5A2C0800831603179201920A14
:1018E60000300A128A15C6230A128A154130831659
:1018F60003179600EE309500950B7F2C960B7F2CE8
:1019060000000C308316031795001508920000306E
:101916000A128A15C6230A128A15F9308316031786
:1019260095000000950B942C982C00000630831629
:10193600031795001508920000300A128A15C6236F
:101946000A128A15F9308316031795000000950BC5
:10195600A92CAD2C00000800831603179B00E82C69
:101966009201920A00300A128A15C6230A128A15B3
:101976000D30831603179A00FB309900990BC12C82
:101986009A0BC12CC62C0800023083160317990047
:101996001908950001300A128A151922080010301C
:1019A6008316031799001908920000300A128A1547
:1019B600C6230800831603171B089900190892000E
:1019C60001300A128A15C6230800831603171B085E
:1019D600083A0319D22C023A0319C72C063A0319FE
:1019E600B32CDD2C080083120313B601B701263091
:1019F6008400CE30A2000408A3001030A400220800
:101A0600840083130008A500A20A23088400250881
:101A16008000A30AA40B022DA11B252DFF30A200D6
:101A26003608263E840022088000FF30A0070318EF
:101A3600A10AFF30A1070130B6070318B70A003024
:101A4600B7070F2D2630A2002208B8003808FC0080
:101A56000030FD000A128A1575220A128A15063010
:101A660083120313A4001330A300B130A200A20B0B
:101A76003A2DA30B3A2DA40B3A2D412D08008312C3
:101A8600031323082204210420040319872DA90126
:101A9600A90AA31B5C2D0130A8000310A00DA10DFF
:101AA600A20DA30DA80B502D0130A8002808A907E8
:101AB6004C2D23082702031D6A2D22082602031D2A
:101AC6006A2D21082502031D6A2D20082402031C05
:101AD6007A2D2008A4022108031C210FA502220842
:101AE600031C220FA6022308031C230FA7020130A2
:101AF6000310A30CA20CA10CA00CFF3E031D7B2D12
:101B06000130A902031D5C2D2708A3002608A200A8
:101B16002508A1002408A0000800831603179100D9
:101B26000030111801309000831203130608831643
:101B360003171006FE3910068312031386000030C1
:101B460083160317911801309000900D831203132A
:101B56000608831603171006FD39100683120313B1
:101B66008600003083160317111901309000900D7E
:101B7600900D831203130608831603171006FB390C
:101B8600100683120313860000308316031791197B
:101B960001309000900D900D900D831203130608EE
:101BA600831603171006F7391006831203138600EF
:101BB60000008312031306160330831603179000E2
:101BC600900BE32D8312031306120800F21F102E4A
:101BD6000030F6000030F7008030F8007009F90098
:101BE6007109FA007209FB00F90A0319FA0A0319C6
:101BF600FB0A7908F6077A0803187A0F032E042ED3
:101C0600F7077B0803187B0F092E0A2EF8077608BC
:101C1600F0007708F1007808F200F51F372E003043
:101C2600F6000030F7008030F8007309F9007409F7
:101C3600FA007509FB00F90A0319FA0A0319FB0AE7
:101C46007908F6077A0803187A0F2A2E2B2EF7073B
:101C56007B0803187B0F302E312EF8077608F30029
:101C66007708F4007808F5008030F2068030F50633
:101C760075087202031D080074087102031D08002E
:101C86007308700208000030FC000030FB000030D2
:101C9600FA000030F9007308720471047004031925
:101CA6009B2EFD01FD0AF31B662E0130F800031082
:101CB600F00DF10DF20DF30DF80B5A2E0130F80070
:101CC6007808FD07562E0130F8000310F90DFA0DBD
:101CD600FB0DFC0DF80B682E73087702031D7D2E95
:101CE60072087602031D7D2E71087502031D7D2E76
:101CF60070087402031C8E2E7008F4027108031C0F
:101D0600710FF5027208031C720FF6027308031CAA
:101D1600730FF702791401300310F30CF20CF10C77
:101D2600F00CFF3E031D8F2E0130FD02031D662EB3
:101D36007C08F3007B08F2007A08F1007908F000CD
:101D46000800831603130612861283120313061263
:101D56008612831603130610861006118611831247
:101D660003130610861006118611623083160317B8
:101D7600960065309500950BBE2E960BBE2EC32E93
:101D8600831603179701033017020318E52E033055
:101D96000A128A1590250A128A152130831603170E
:101DA600960076309500950BD62E960BD62E000013
:101DB600013083160317950015089707033017029D
:101DC600031CCA2E02300A128A1590250A128A1599
:101DD6008316031797010430170203180800170823
:101DE600293E84000A128A150A200A128A159500CD
:101DF6001508920000300A128A15C6230A128A159F
:101E0600013083160317950015089707EE2E730801
:101E16000319122F720871047004031D252F003058
:101E2600F0000030F1000030F20008000130F5004B
:101E36007508F30701300310F20CF10CF00CFF3EAD
:101E4600031D1E2FFE3072050319402F192F013076
:101E5600F5007508F3070130F0070030031801306C
:101E6600F107003003180130F20701300310F20CBD
:101E7600F10CF00CFF3E031D392FFF3072050319DC
:101E86004F2F2A2F0130F30201300310F00DF10D10
:101E9600F20DFF3E031D482FF11F452F7318592FD2
:101EA600FF30F0057F30F105FF30F2050310F30C2B
:101EB6007308F500F601F70110300310F50DF60D65
:101EC600F70DFF3E031D602F7508F0047608F10438
:101ED6007708F204740803190800F2170800831241
:101EE60003133008B4003108B5003208B6000310F9
:101EF600350D360DB7003708BD00BD08031D8C2F04
:101F06000030B3000030B2000030B1000030B00045
:101F160008003008B4003108B5003208B6001730A2
:101F26000310B60CB50CB40CFF3E031D932F3408FA
:101F3600B7003708B800B117FF30B005FF30B1055C
:101F46000030B2053008B9003108BA003208BB00CB
:101F5600BC018E30BD02BD1FCE2F3D08803A8F3E9C
:101F66000318BE2F0030B3000030B2000030B100BD
:101F76000030B000080001300310BC0CBB0CBA0CDA
:101F8600B90CFF3E031DBF2F0130B4003408BD0756
:101F96000319E92FBE2F18303D02031CE62F00302F
:101FA600B3000030B2000030B1000030B0000800CD
:101FB6000130B4000310B90DBA0DBB0DBC0DB40B46
:101FC600DD2F0130BD02BD08031DDB2F38080319C4
:101FD600F72FB909BA09BB09BC09B90A0319BA0A24
:101FE6000319BB0A0319BC0A3C08B3003B08B2003C
:0A1FF6003A08B1003908B0000800F5
:02400E0072FF3F
:00000001FF
