:060000000A128A11122809
:10000800FE00030E83120313DA000408DB000A085B
:10001800DC007F08DD000A128A11722A0A128A118E
:100028001528ED01EE0183160313E001E101E20159
:10003800E3018317A4308400B5300A128A150D2015
:100048000A128A118313E030FD000830FE004B309D
:10005800FF00CE3084000A128A153E2083010A125E
:100068008A15772A83120313BE002B30B300330896
:10007800B9000130AA07FF302A0784000A128A1142
:100088004F270A128A11B3003308C300C3080319A3
:100098006D2A4308253A03195D284308B3003E0832
:1000A80084003308831780000130B3003308BE078B
:1000B8003D28BF01C001B8012A0884000A128A112C
:1000C8004F270A128A110A128A151E200A128A114B
:1000D800031CB02883120313BF01C0010A30F000CB
:1000E8000030F100831203134008F301F3073F08BF
:1000F800F201F2070A128A1540210A128A117108C0
:1001080083120313C001C0077008BF01BF072A0884
:1001180084000A128A114F270A128A11D03EB300AE
:10012800FF3003180030B4003308BF070318C00AB3
:100138003408C0070130B3003308AA072A0884002E
:100148000A128A114F270A128A110A128A151E20CA
:100158000A128A1103187228831203132A088400CA
:100168000A128A114F270A128A112E3A031DFE28F5
:100178000130B3003308AA07C101C2012A0884006C
:100188000A128A114F270A128A110A128A151E208A
:100198000A128A11031C0A29831203134208F10167
:1001A800F1074108F001F0070A30F2000030F300CF
:1001B8000A128A1540210A128A11831203132A0887
:1001C80084000A128A114F270A128A117007B30095
:1001D8000030031801307107B4003308D03EC10065
:1001E80034080318013EFF3EC2000130B300330853
:1001F800AA07C22883120313C101C2010A293816AB
:100208000A29C030B3003308B80421290130831209
:100218000313AA07FF302A0784000A128A114F27FE
:100228000A128A11C300003A03196D2A6C3A03199D
:100238000329193A031905293D28381E3329390895
:10024800840083130008BA00840A0008BB00840AEB
:100258000008BC00840A0008BD000430422939089F
:10026800840083130008B300840A0008B40033082C
:10027800BA003408BB00BC01BD010230B30033082A
:10028800B90742084104031D55293D083C043B04B5
:100298003A04031D55290130C1070318C20A00306A
:1002A800C207C301C30A43080A3A03199729430836
:1002B800B30001300310B30DFF3E031D5E29031088
:1002C800330D013E84000A128A114F270A128A113F
:1002D800B4000A128A114F270A128A11B5000A12AD
:1002E8008A114F270A128A11B6000A128A114F275B
:1002F8000A128A11B70037083D02031D8D293608F6
:100308003C02031D8D2935083B02031D8D29340845
:100318003A02031C97290130B3003308C307430886
:100328000A3A031D5B294308B300B401B31BB403A5
:100338003408803AB5004208803A3502031DA629E0
:10034800410833020318AF29831203134108B3008D
:100358003308C300C929831203134308B300B40147
:10036800B31BB4034208803AB5003408803A35021A
:10037800031DC029330841020318C9298312031336
:100388004308C100C201C11BC203831203134308FF
:10039800B300B401B31BB4033408803AB500400875
:1003A800803A3502031DDA293F0833020318EA2987
:1003B800831203134308B300B401B31BB403330817
:1003C800BF023408031CC003C002EE2983120313C2
:1003D800BF01C00140083F0403195E2A2030B30062
:1003E8003E0884003308831780000130B3003308C7
:1003F800BE07FF30BF070318C00AFF30C007EE2949
:100408000030A3000030A2000030A1000A30A00094
:100418004108B30001300310B30DFF3E031D0F2A3E
:100428000310330D013E84000A128A114F270A1265
:100438008A11F0000A128A114F270A128A11F10054
:100448000A128A114F270A128A11F2000A128A1117
:100458004F270A128A11F3003D08F7003C08F600FE
:100468003B08F5003A08F4000A128A1538250A12E2
:100478008A11730883120313A7007208A600710873
:10048800A5007008A4000A128A1534240A128A11D9
:10049800831203132008303EB4003408C300430815
:1004A800B3003E0884003308831780000130B3008E
:1004B8003308BE07FF30C1070318C20AFF30C2075E
:1004C800FF304206031D6A2AFF30410603193D2802
:1004D800042A3E0884008317800108000C1FDA2BC9
:1004E800831603136308803AFF0080307F02031DE0
:1004F8007F2A053062020318A22A013083160313EB
:10050800E2070318E30A0030E307831203131E0807
:10051800EE01EE07831603131E0883120313ED0181
:10052800ED076D0883160313E0070318E10A831229
:1005380003136E0883160313E107D72B83160313DF
:10054800E201E301003083120313B000A030B100D0
:100558004030B2000030A000A030A1003B30A20023
:10056800831603136108F901F9076008F801F80711
:100578000A128A15FC200A128A11780883120313BA
:10058800A3007908A4007A08A5000A128A11002598
:100598000A128A11831203132008B3002108B40039
:1005A8002208B5000A128A118D260A128A118312AE
:1005B80003133008E0003108E1003208E200F501D9
:1005C800F50A00300A128A1570200A128A117C3046
:1005D800FC008030FD000A128A151D210A128A11BA
:1005E8007C30F1008030F2000A128A1563210A1269
:1005F8008A11F501F50A07300A128A1570200A12C5
:100608008A11CD3083120313B0004C30B1003F3053
:10061800B2000030A000C830A1004230A20060083B
:10062800A3006108A4006208A5000A128A11002527
:100638000A128A11831203132008B3002108B40098
:100648002208B5000A128A118D260A128A1183120D
:1006580003133008E7003108E8003208E9006708AA
:10066800C4006808C5006908C6005E30D80058088C
:10067800C7000A128A11D3250A128A11831203139A
:10068800D9005908EC006C08FC000130FD000A1282
:100698008A151D210A128A11831203136C08F100AE
:1006A8000130F2000A128A1563210A128A11F50133
:1006B800F50A10300A128A1570200A128A1183303E
:1006C800FC008030FD000A128A151D210A128A11C9
:1006D8008330F1008030F2000A128A1563210A1271
:1006E8008A11F50100300A128A1570200A128A113F
:1006F800D73083120313A0002330A1003E30A2009C
:100708006708A3006808A4006908A5000A128A11EE
:1007180000250A128A11831203132008E300210816
:10072800E4002208E5006308B0006408B100650829
:10073800B2000A128A15E1260A128A1183120313DB
:100748003108EB01EB073008EA01EA070A128A11BF
:10075800D9270A128A11831203136B08A101A10772
:100768006A08A001A0070A128A15E8230A128A114A
:10077800831203136B08D301D3076A08D201D20787
:100788002F3084000A128A114F270A128A11D400C6
:100798000A128A114F270A128A11D5000A128A15DD
:1007A8006F270A128A11831203130C138C1EEC2B69
:1007B8000A128A158A200A128A1183120313D80092
:1007C8005808E60066080A128A1522230A128A11B6
:1007D800831203135D08FF005C088A005B0884002D
:1007E8005A0E8300FE0E7E0E09007808831203134A
:1007F800A0007908A1007A08A2000310210D220D9B
:10080800A3002308A6007B08A0007C08A1007D089F
:10081800A2000310210D220DA3002308A50026081D
:100828000319222C250826020318292C2603FF3A2F
:100838002507A00019302002031C292C7B08F8008A
:100848007C08F9007D08FA0008002508031908004B
:10085800260825020318382C2503FF3A2607A0008E
:1008680019302002031808000630A0002008A40050
:10087800FA1BA417FD1B2417F917FF30F805FF30E2
:10088800F9050030FA05FC17FF30FB05FF30FC05C1
:100898000030FD05250826020318782C01300310C6
:1008A800FB0DFC0DFD0DFF3E031D532C0130A50271
:1008B800250826060319732C0130A40224080739D9
:1008C8000319732C522C01300310FA0CF90CF80C94
:1008D800FF3E031D682C0130A0002008A60726084B
:1008E80025060319A12C672C260825020318A12C1C
:1008F80001300310F80DF90DFA0DFF3E031D7D2C94
:100908000130A6022508260603199D2C0130A402F1
:100918002408073903199D2C7C2C01300310FD0C89
:10092800FC0CFB0CFF3E031D922C0130A00020089C
:10093800A50726082506031D912CA41FB32CFF30FC
:10094800F806FF30F906FF30FA060130F8070030E4
:1009580003180130F907003003180130FA07241F83
:10096800C52CFF30FB06FF30FC06FF30FD060130CA
:10097800FB07003003180130FC0700300318013072
:10098800FD07A4017808FB07790803110318790A01
:10099800031DFC077A08031103187A0A031DFD07D3
:1009A800FD1FE82CFF30FB06FF30FC06FF30FD067C
:1009B8000130FB07003003180130FC070030031832
:1009C8000130FD07A401A40A7B08F0007C08F100AF
:1009D8007D08F2002608A0002008F3002408A100E2
:1009E8002108F4000A128A15FC257008F80071081D
:1009F800F9007208FA000800831203132008A60001
:100A08002108A7002208A8000310270D280DA90017
:100A18002908AA00AA08031D182D0030A0000030DC
:100A2800A1000030A20008002308A6002408A7009F
:100A38002508A8000310270D280DA9002908AF00D4
:100A4800AF08031D2E2D0030A0000030A10000309B
:100A5800A20008002F087B3EA6002608AA07200847
:100A6800A6002108A7002208A80010300310A80C2F
:100A7800A70CA60CFF3E031D3A2D2608A90029083D
:100A8800AF002308A6002408A7002508A8001030F6
:100A98000310A80CA70CA60CFF3E031D4C2D26081E
:100AA800A9002908AF068030A6002608AF05A117BF
:100AB800A417FF30A305FF30A4050030A5050030BA
:100AC800AB000030AC000030AD000730A6002608AF
:100AD800AE00201C7D2D2308AB0724080311031842
:100AE800240A031DAC07250803110318250A031D52
:100AF800AD0701300310A20CA10CA00CFF3E031D92
:100B08007E2D01300310A30DA40DA50DFF3E031D7E
:100B1800862D0130AE02031D6D2D0930A600260872
:100B2800AE00201CA52D2308AB07240803110318C9
:100B3800240A031DAC07250803110318250A031D01
:100B4800AD0701300310A20CA10CA00CFF3E031D41
:100B5800A62D01300310AD0CAC0CAB0CFF3E031DF1
:100B6800AE2D0130AE02031D952D2B08F0002C0888
:100B7800F1002D08F2002A08A6002608F3002F0825
:100B8800A7002708F4000A128A15FC2570088312AA
:100B98000313A0007108A1007208A2000800A43085
:100BA80083120313C8004808D1004408F000450820
:100BB800F1004608F2000030F3000030F400003085
:100BC800F5000A128A15DB240A128A1103180C2E62
:100BD8002D3083120313C800510884004808831776
:100BE80080000130C8004808D1074408F0004508D3
:100BF800F1004608F2000A128A1505200A128A1125
:100C0800700883120313C4007108C5007208C60077
:100C1800831203134408B0004508B1004608B20027
:100C28000A128A15E1260A128A118312031333085D
:100C3800D0003208CF003108CE003008CD0050086F
:100C4800FB004F08FA004E08F9004D08F8000A1298
:100C58008A15B3210A128A11780883120313A70090
:100C68007908A8007A08A9004408AA004508AB003A
:100C78004608AC000A128A15A5200A128A118312A6
:100C880003132708C4002808C5002908C60044081B
:100C9800A3004508A4004608A5002430A00074302D
:100CA800A1004930A2000A128A1100250A128A11ED
:100CB800831203132008B0002108B1002208B200F3
:100CC8000A128A15E1260A128A11831203133308BD
:100CD800CC003208CB003108CA003008C90069309E
:100CE800C8004808AA005008AE004F08AD004E08DA
:100CF800AC004D08AB004C08B2004B08B1004A08E4
:100D0800B0004908AF0051080A128A113620A430F1
:100D18000800831203133308B6003408B7003508F7
:100D2800B8000310370D380DB9003908BE00BE08E9
:100D3800031DA52E0030B0000030B1000030B20015
:100D480008003008B6003108B7003208B8000310B0
:100D5800370D380DB9003908BF00BF08031DBB2E79
:100D68000030B0000030B1000030B20008000030A0
:100D7800BB000030BC000030BD0089303F07B60022
:100D88003608BE023308B6003408B7003508B80084
:100D980010300310B80CB70CB60CFF3E031DCD2E57
:100DA8003608B9003908BF003008B6003108B70066
:100DB8003208B80010300310B80CB70CB60CFF3E60
:100DC800031DDF2E3608B9003908BF068030B6008B
:100DD8003608BF05B417FF30B305FF30B40500303F
:100DE800B505B117FF30B005FF30B1050030B205C9
:100DF8001830B6003608BA0001300310BB0DBC0D20
:100E0800BD0DFF3E031D012F32083502031D122FB1
:100E180031083402031D122F30083302031C1F2F20
:100E28003008B3023108031C310FB4023208031C26
:100E3800320AB5023B1401300310B30DB40DB50DE1
:100E4800FF3E031D202F0130BA02031D002F3B086F
:100E5800F0003C08F1003D08F2003E08B6003608F4
:100E6800F3003F08B7003708F4000A128A15FC257A
:100E7800700883120313B0007108B1007208B20041
:100E88000800FF1B4F2F83137F1883170008840A5D
:100E98000319FF0A080007308A000408840A820739
:100EA800003401340034003400340A34003400348F
:100EB80000346434003400340034E834033400343B
:100EC80000341034273400340034A034863401341C
:100ED8000034403442340F3400348034963498342B
:100EE80000340034E134F53405340034CA349A341B
:100EF8003B341C340C3401340634013400340034DF
:100F080000340A340D3420342D342D342D342D344E
:100F18002D342D342D3420344534533454344F3447
:100F2800553452344F34203444344534203450340A
:100F380049344C344834413420342D342D342D3444
:100F48002D342D342D342D3420340A340D342034EE
:100F580000340C344C346F346134643469346E3486
:100F6800673420345034493443342E342E342E34EC
:100F7800003425346C3475342E34253436342E340C
:100F880036346C34753400344B3461346C34693421
:100F980061346E34653400344E34693476346534E3
:100FA8006C343A34003425340034831203136E0849
:100FB800803AFF0080307F02031DE42F28306D0245
:100FC8000318EC2F42300A128A1522230A128A11BA
:100FD800831203136E08803AFF0080307F02031DDE
:100FE800F72FA1306D02031C080062300A128A151F
:040FF80022230800A8
:10100A00720871047004031908008030F20608009F
:10101A0064008001840A04060319003404060E28B9
:10102A0083120313871D0800871D080008158811FD
:10103A001928F100F0013A30710203182A283030D9
:10104A007102031C2A28F001F00A700C08008316AA
:10105A0003179000831203130C1E2F2883160317FD
:10106A00100883120313990008007E088A007F087B
:10107A0082003A200A128A158000840A04087D0632
:10108A0003190034FF0A0319FE0A3E2820342034CB
:10109A0020342034203420342034203420342034A6
:1010AA00203420342034203420342034FF34FF34D8
:1010BA00831603139F179F111F119F101F1083126E
:1010CA0003139F171F131F14831603130C1783127E
:1010DA0003130C130800F7007508013A03197A285C
:1010EA004030F6007608F8007B28F8017708FF3EC2
:1010FA00F6007608F80778088038F6007608F200D5
:10110A0000300A128A1588210800831203139818DE
:10111A0093281A08F3007308F400A2283130F1006A
:10112A008030F2000A128A156321831203131812FF
:10113A001A08F3007308F40018168C1274080800D1
:10114A00803083120313A9062A08F8002B08F90035
:10115A002C08FA002708FB002808FC002908FD00D3
:10116A000A128A11F923780883120313A70079084F
:10117A00A8007A08A9000800831603179700150823
:10118A00013A0319CD284030960016089800CE2857
:10119A0098011708FF3E9600160898071808803825
:1011AA0096001608920000300A128A154222080098
:1011BA008316031710089200920D920D920D831256
:1011CA0003131F08831603171206C7391206831260
:1011DA0003139F002930831603179200920BF328FA
:1011EA000000831203131F151F1D0800F928FD01B3
:1011FA00F91F0629F809F909F80A0319F90AFD017C
:10120A00FD0A7808F0007908F100F2018E30FB003F
:10121A007B08F3007D08FC007C08F4000A128A159A
:10122A00FC257008F8007108F9007208FA00080035
:10123A007D0883120313FF007C0884000A128A11B6
:10124A0045270A128A150038031908007D088312F7
:10125A000313FF007C0884000A128A1145270A1228
:10126A008A150A128A15E7220A128A150130FC0722
:10127A000318FD0A1D29F401F501701C4A29720898
:10128A00F4070318F50A7308F50701300310F20D85
:10129A00F30DFF3E031D4B2901300310F10CF00C36
:1012AA00FF3E031D522971087004031D4229750867
:1012BA00F101F1077408F001F007080072088312BF
:1012CA000313FF00710884000A128A1145270A12C3
:1012DA008A15003803190800720883120313FF00E5
:1012EA00710884000A128A1145270A128A150A16F9
:1012FA008A11F8270A128A150130F1070318F20A2F
:10130A000030F2076329F400831203138612633054
:10131A00F300F30B8E299129740803199829831273
:10132A00031386169B298312031386120000831265
:10133A00031306127208F30004300310F30CFF3E85
:10134A00031DA22973080A128A15AE220A128A15E7
:10135A0072080F390A128A15AE2208008E30FC0074
:10136A007C08FD00FF307B050319C92901300310F1
:10137A00FB0CFA0CF90CF80CFF3E031DBC290130DA
:10138A00FC007C08FD07B7297808F0007908F1000D
:10139A007A08F2007D08FC007C08F300F4010A12C6
:1013AA008A15FC257008F8007108F9007208FA001D
:1013BA000800831603171D0883120313FF00831600
:1013CA0003171C088400831203130A128A11452783
:1013DA000A128A15003803190800831603171D0814
:1013EA0083120313FF00831603171C088400831259
:1013FA0003130A128A1145270A128A150A128A1534
:10140A00A1230A128A150130831603179C070318B1
:10141A009D0ADE2983160317120883120313FF009D
:10142A008316031711088400831203130A128A1100
:10143A0045270A128A15003803190800831603176C
:10144A00120883120313FF0083160317110884007E
:10145A00831203130A128A1145270A128A150A12DD
:10146A008A152C200A128A15013083160317910750
:10147A000318920A003092070F2A83160317940062
:10148A008312031386126330831603179300930B98
:10149A004C2A4F2A8316031714080319582A831251
:1014AA00031386165B2A8312031386120000831223
:1014BA00031306128316031712089300043003104D
:1014CA00930CFF3E031D642A13080A128A1582240C
:1014DA000A128A158316031712080F390A128A1577
:1014EA00822408000A128A1564260A128A158312AF
:1014FA000313071DAB2A743083160317910080303B
:10150A0092000A128A150F220A128A1501308316CE
:10151A0003179000003091000A128A15DD200A1282
:10152A008A15083083160317A3009D30A2000B30DA
:10153A00A100A10B9E2AA20B9E2AA30B9E2AA52AD2
:10154A000A128A1515200A128A158B2A0A128A117A
:10155A001228F100003071180130F00083120313D1
:10156A0006087006FE39700686000030F118013050
:10157A00F000F00D06087006FD397006860000308E
:10158A0071190130F000F00DF00D06087006FB39F4
:10159A00700686000030F1190130F000F00DF00DF0
:1015AA00F00D06087006F7397006860000008312EF
:1015BA00031306160330F000F00BE12A831203131B
:1015CA0006120800FB00162BF201F20A00300A127A
:1015DA008A1588210A128A150D30FA00FB30F900A3
:1015EA00F90BF52AFA0BF52AFA2A08000230F90053
:1015FA007908F50001300A128A15702008001030A7
:10160A00F9007908F20000300A128A1588210800C8
:10161A007B08F9007908F20001300A128A1588213C
:10162A0008007B08083A0319042B023A0319FB2A1B
:10163A00063A0319E92A0D2B0800F3007308423A07
:10164A00031D332B83120313081188154230F1004E
:10165A008030F2000A128A15632108007308623A80
:10166A00031D432B83120313081588116230F100FE
:10167A008030F2000A128A156321080073084D3A75
:10168A00031D522B8312031308164D30F1008030CC
:10169A00F2000A128A156321080073086D3A031DC5
:1016AA0008008312031308126D30F1008030F20033
:1016BA000A128A1563210800831603179201920AF7
:1016CA0000300A128A1542220A128A1541308316FC
:1016DA0003179600EE309500950B712B960B712B24
:1016EA0000000C308316031795001508920000308D
:1016FA000A128A1542220A128A15F930831603172A
:10170A0095000000950B862B8A2B00000630831665
:10171A00031795001508920000300A128A15422212
:10172A000A128A15F9308316031795000000950BE3
:10173A009B2B9F2B00000800831603179B00DA2BB4
:10174A009201920A00300A128A1542220A128A1556
:10175A000D30831603179A00FB309900990BB32BAF
:10176A009A0BB32BB82B0800023083160317990083
:10177A001908950001300A128A15C1200800103094
:10178A008316031799001908920000300A128A1565
:10179A0042220800831603171B08990019089200B1
:1017AA0001300A128A1542220800831603171B0801
:1017BA00083A0319C42B023A0319B92B063A03193A
:1017CA00A52BCF2B080083120313B601B7012630CD
:1017DA008400CE30A2000408A3001030A40022081E
:1017EA00840083130008A500A20A230884002508A0
:1017FA008000A30AA40BF42BA11B172CFF30A20014
:10180A003608263E840022088000FF30A00703180D
:10181A00A10AFF30A1070130B6070318B70A003042
:10182A00B707012C2630A2002208B8003808FC00AD
:10183A000030FD000A128A151D210A128A15063087
:10184A0083120313A4001330A300B130A200A20B29
:10185A002C2CA30B2C2CA40B2C2C332C080083121D
:10186A00031323082204210420040319792CA90153
:10187A00A90AA31B4E2C0130A8000310A00DA10D2C
:10188A00A20DA30DA80B422C0130A8002808A90715
:10189A003E2C23082702031D5C2C22082602031D66
:1018AA005C2C21082502031D5C2C20082402031C41
:1018BA006C2C2008A4022108031C210FA50222086F
:1018CA00031C220FA6022308031C230FA7020130C0
:1018DA000310A30CA20CA10CA00CFF3E031D6D2C3F
:1018EA000130A902031D4E2C2708A3002608A200D6
:1018FA002508A1002408A0000800831603179100F8
:10190A000030111801309000831203130608831661
:10191A0003171006FE3910068312031386000030DF
:10192A0083160317911801309000900D8312031348
:10193A000608831603171006FD39100683120313CF
:10194A008600003083160317111901309000900D9C
:10195A00900D831203130608831603171006FB392A
:10196A001006831203138600003083160317911999
:10197A0001309000900D900D900D8312031306080C
:10198A00831603171006F73910068312031386000D
:10199A000000831203130616033083160317900000
:1019AA00900BD52C8312031306120800F21F022D86
:1019BA000030F6000030F7008030F8007009F900B6
:1019CA007109FA007209FB00F90A0319FA0A0319E4
:1019DA00FB0A7908F6077A0803187A0FF52CF62C11
:1019EA00F7077B0803187B0FFB2CFC2CF8077608FB
:1019FA00F0007708F1007808F200F51F292D003071
:101A0A00F6000030F7008030F8007309F900740915
:101A1A00FA007509FB00F90A0319FA0A0319FB0A05
:101A2A007908F6077A0803187A0F1C2D1D2DF70777
:101A3A007B0803187B0F222D232DF8077608F30065
:101A4A007708F4007808F5008030F2068030F50651
:101A5A0075087202031D080074087102031D08004C
:101A6A007308700208000030FC000030FB000030F0
:101A7A00FA000030F9007308720471047004031943
:101A8A008D2DFD01FD0AF31B582D0130F8000310BE
:101A9A00F00DF10DF20DF30DF80B4C2D0130F8009D
:101AAA007808FD07482D0130F8000310F90DFA0DEA
:101ABA00FB0DFC0DF80B5A2D73087702031D6F2DD1
:101ACA0072087602031D6F2D71087502031D6F2DB2
:101ADA0070087402031C802D7008F4027108031C3C
:101AEA00710FF5027208031C720FF6027308031CC9
:101AFA00730FF702791401300310F30CF20CF10C96
:101B0A00F00CFF3E031D812D0130FD02031D582DEF
:101B1A007C08F3007B08F2007A08F1007908F000EB
:101B2A000800831603130612861283120313061281
:101B3A008612831603130610861006118611831265
:101B4A0003130610861006118611623083160317D6
:101B5A00960065309500950BB02D960BB02DB52DDE
:101B6A00831603179701033017020318D72D033082
:101B7A000A128A1582240A128A152130831603173B
:101B8A00960076309500950BC82D960BC82D00004F
:101B9A0001308316031795001508970703301702BB
:101BAA00031CBC2D02300A128A1582240A128A15D5
:101BBA008316031797010430170203180800170841
:101BCA00293E84000A128A114F270A128A159500A3
:101BDA001508920000300A128A1542220A128A1542
:101BEA00013083160317950015089707E02D73082F
:101BFA000319042E720871047004031D172E003095
:101C0A00F0000030F1000030F20008000130F50069
:101C1A007508F30701300310F20CF10CF00CFF3ECB
:101C2A00031D102EFE3072050319322E0B2E0130C1
:101C3A00F5007508F3070130F0070030031801308A
:101C4A00F107003003180130F20701300310F20CDB
:101C5A00F10CF00CFF3E031D2B2EFF307205031909
:101C6A00412E1C2E0130F30201300310F00DF10D4C
:101C7A00F20DFF3E031D3A2EF11F372E73184B2E1D
:101C8A00FF30F0057F30F105FF30F2050310F30C49
:101C9A007308F500F601F70110300310F50DF60D83
:101CAA00F70DFF3E031D522E7508F0047608F10465
:101CBA007708F204740803190800F2170800FF30C5
:101CCA008316031385008312031305108316031367
:101CDA00081183120313081583160313881183123C
:101CEA00031388118316031307148714071587151E
:101CFA008312031387110711333083160317A000C9
:101D0A00BC309F0010309E009E0B892E9F0B892E9F
:101D1A00A00B892E0A128A1596250A128A153330C3
:101D2A0083160317A000BC309F0010309E009E0B44
:101D3A009C2E9F0B9C2EA00B9C2E0B178B171A30D8
:101D4A0083160317A0005E309F0086309E009E0B0C
:101D5A00AC2E9F0BAC2EA00BAC2E00000A128A15DB
:101D6A005D200A128A155930831603179C008030A9
:101D7A009D000A128A15DE210A128A155930831625
:101D8A0003179100803092000A128A150F220A1254
:101D9A008A157F3083160317A000D4309F00AE3017
:101DAA009E009E0BD62E9F0BD62EA00BD62EDD2E76
:101DBA000A128A1561230800831203133008B4003B
:101DCA003108B5003208B6000310350D360DB700DC
:101DDA003708BD00BD08031DFB2E0030B3000030DC
:101DEA00B2000030B1000030B00008003008B40082
:101DFA003108B5003208B60017300310B60CB50C1E
:101E0A00B40CFF3E031D022F3408B7003708B80090
:101E1A00B117FF30B005FF30B1050030B205300808
:101E2A00B9003108BA003208BB00BC018E30BD02CD
:101E3A00BD1F3D2F3D08803A8F3E03182D2F0030DD
:101E4A00B3000030B2000030B1000030B00008002A
:101E5A0001300310BC0CBB0CBA0CB90CFF3E031DBD
:101E6A002E2F0130B4003408BD070319582F2D2F27
:101E7A0018303D02031C552F0030B3000030B20069
:101E8A000030B1000030B00008000130B400031087
:101E9A00B90DBA0DBB0DBC0DB40B4C2F0130BD02F0
:101EAA00BD08031D4A2F38080319662FB909BA0954
:101EBA00BB09BC09B90A0319BA0A0319BB0A0319EF
:101ECA00BC0A3C08B3003B08B2003A08B100390822
:101EDA00B000080083160313C801C901CC01CD0163
:101EEA00831203135308F901F9075208F801F80796
:101EFA000A128A15FC200A128A157808831203131B
:101F0A00C4007908C5007A08C600C830D600560849
:101F1A00C7000A128A11D3250A128A1583120313DB
:101F2A00D700570883160313CB004B088400831786
:101F3A0000080A3A0319ED2F4D084C04031DCF2F50
:101F4A002F3084000A128A114F270A128A15831227
:101F5A000313D6000A128A114F270A128A15D700CC
:101F6A0057085506031DBB2F56085406031DBF2FDD
:101F7A005330C02F4930D600831603134C08A03EB5
:101F8A0084008312031356088313800001308316DA
:101F9A000313E72F4B0884008317000883120313E7
:101FAA00D600831603134C08A03E84008312031341
:101FBA005608831380000130D6005608831603138F
:101FCA00CB070130CC070318CD0A0030CD079A2F72
:101FDA00A03083120313D600560883160313CA00CF
:101FEA004A08840083130008F1008030F2000A12C4
:061FFA008A1563210800B6
:102FF000F000831203130C1EF92F700899000800CB
:02400E0072FF3F
:00000001FF
