:060000000A128A11122809
:10000800FE00030E83120313D4000408D5000A0867
:10001800D6007F08D7000A128A11792A0A128A1193
:100028001528E901EA01EB01EC018313A0308400F3
:10003800B8300A168A11D7270A128A11D930FD005A
:100048001730FE00DF30FF00C93084000A168A111D
:10005800F3270A128A110A128A158D200A128A11A8
:10006800ED000A128A158E20EE0083010A128A1505
:10007800EF2E83120313BE002B30B3003308B900F0
:100088000130AA07FF302A0784000A128A150A20BD
:100098000A128A11B3003308C300C3080319742A6B
:1000A8004308253A031964284308B3003E0884002E
:1000B8003308831380000130B3003308BE07442897
:1000C800BF01C001B8012A0884000A128A150A2053
:1000D8000A128A110A128A11F2270A128A11031CBB
:1000E800B72883120313BF01C0010A30F0000030A3
:1000F800F100831203134008F301F3073F08F201EC
:10010800F2070A128A1560210A128A1171088312ED
:100118000313C001C0077008BF01BF072A08840085
:100128000A128A150A200A128A11D03EB300FF303B
:1001380003180030B4003308BF070318C00A340896
:10014800C0070130B3003308AA072A0884000A123E
:100158008A150A200A128A110A128A11F2270A122B
:100168008A1103187928831203132A0884000A12B3
:100178008A150A200A128A112E3A031D0529013010
:10018800B3003308AA07C101C2012A0884000A1271
:100198008A150A200A128A110A128A11F2270A12EB
:1001A8008A11031C1129831203134208F101F10774
:1001B8004108F001F0070A30F2000030F3000A129B
:1001C8008A1560210A128A11831203132A088400EF
:1001D8000A128A150A200A128A117007B300003021
:1001E800031801307107B4003308D03EC100340849
:1001F8000318013EFF3EC2000130B3003308AA07CE
:10020800C92883120313C101C20111293816112903
:10021800C030B3003308B80428290130831203130F
:10022800AA07FF302A0784000A128A150A200A1230
:100238008A11C300003A0319742A6C3A03190A296F
:10024800193A03190C294428381E3A293908840018
:1002580083130008BA00840A0008BB00840A000857
:10026800BC00840A0008BD0004304929390884000C
:1002780083130008B300840A0008B4003308BA00E6
:100288003408BB00BC01BD010230B3003308B90714
:1002980042084104031D5C293D083C043B043A0420
:1002A800031D5C290130C1070318C20A0030C207C8
:1002B800C301C30A43080A3A03199E294308B30035
:1002C80001300310B30DFF3E031D65290310330DE4
:1002D800013E84000A128A150A200A128A11B40003
:1002E8000A128A150A200A128A11B5000A128A15FA
:1002F8000A200A128A11B6000A128A150A200A125E
:100308008A11B70037083D02031D942936083C02BC
:10031800031D942935083B02031D942934083A0229
:10032800031C9E290130B3003308C30743080A3A67
:10033800031D62294308B300B401B31BB403340896
:10034800803AB5004208803A3502031DAD294108BC
:1003580033020318B629831203134108B300330884
:10036800C300D029831203134308B300B401B31B9D
:10037800B4034208803AB5003408803A3502031DB8
:10038800C729330841020318D029831203134308ED
:10039800C100C201C11BC203831203134308B30087
:1003A800B401B31BB4033408803AB5004008803A5E
:1003B8003502031DE1293F0833020318F12983128E
:1003C80003134308B300B401B31BB4033308BF02DB
:1003D8003408031CC003C002F52983120313BF01AC
:1003E800C00140083F040319652A2030B3003E08C5
:1003F80084003308831380000130B3003308BE073C
:10040800FF30BF070318C00AFF30C007F5290030C6
:10041800A3000030A2000030A1000A30A00041086B
:10042800B30001300310B30DFF3E031D162A03105D
:10043800330D013E84000A128A150A200A128A1115
:10044800F0000A128A150A200A128A11F1000A120B
:100458008A150A200A128A11F2000A128A150A203D
:100468000A128A11F3003D08F7003C08F6003B0821
:10047800F5003A08F4000A128A152B260A128A1186
:10048800730883120313A7007208A6007108A50059
:100498007008A4000A128A1525240A128A118312E8
:1004A80003132008303EB4003408C3004308B300E7
:1004B8003E0884003308831380000130B3003308FA
:1004C800BE07FF30C1070318C20AFF30C207FF305A
:1004D8004206031D712AFF304106031944280B2ADE
:1004E8003E0884008313800108000C1F252C1E0879
:1004F800EA01EA07831603131E0883120313E901AE
:10050800E9070030A000A030A1003B30A2006A0833
:10051800F901F9076908F801F8070A128A151C2178
:100528000A128A11780883120313A3007908A40019
:100538007A08A5000A128A1145250A128A1183121F
:1005480003132008E2002108E3002208E4006208FF
:10055800C4006308C5006408C6005930D2005208B8
:10056800C7000A128A1118260A128A118312031365
:10057800D3005308D800E830F0000330F1006A08CF
:10058800F301F3076908F201F2070A128A157325C5
:100598000A128A117008303E83120313D2005208DF
:1005A80083160313A0000A30F9000030FA00643003
:1005B800F0000030F100831203136A08F301F30717
:1005C8006908F201F2070A128A1573250A128A11BC
:1005D8007108FC01FC077008FB01FB070A128A1569
:1005E80073240A128A117908303E83120313D20049
:1005F800520883160313A1000A30F9000030FA00EC
:100608000A30F0000030F100831203136A08F30186
:10061800F3076908F201F2070A128A1573250A120C
:100628008A117108FC01FC077008FB01FB070A121C
:100638008A1573240A128A117908303E831203132B
:10064800D200520883160313A2000A30F9000030C2
:10065800FA00831203136A08FC01FC076908FB010E
:10066800FB070A128A1573240A128A117908303E88
:1006780083120313D200520883160313A300F50153
:10068800F50A00300A128A15AF200A128A11703052
:10069800FC008030FD000A128A1583210A128A1193
:1006A800F501F50A07300A128A15AF200A128A11D5
:1006B800003083120313B0008030B1003F30B20025
:1006C8000030A000C830A1004230A2006208A30098
:1006D8006308A4006408A5000A128A1145250A12B5
:1006E8008A11831203132008B3002108B4002208DA
:1006F800B5000A128A11D2260A128A11831203132C
:100708003008E5003108E6003208E7006508C40053
:100718006608C5006708C6005B30D2005208C700EB
:100728000A128A1118260A128A1183120313D30097
:100738005308E8006808FC000030FD000A128A151A
:1007480083210A128A118312031368080A128A1570
:10075800C2240A128A11F501F50A10300A128A1504
:10076800AF200A128A117C30FC008030FD000A128A
:100778008A1583210A128A11F50100300A128A1596
:10078800AF200A128A11D73083120313A000233036
:10079800A1003E30A2006508A3006608A40067080F
:1007A800A5000A128A1145250A128A118312031319
:1007B8002008DD002108DE002208DF005D08B00007
:1007C8005E08B1005F08B2000A128A1572270A1281
:1007D8008A11831203133108E101E1073008E001AF
:1007E800E0076A08803AFF0080307F02031DFE2B75
:1007F800C83069020318042C8312031308118815E2
:10080800831203136A08803AFF0080307F02031DB9
:100818000F2CC9306902031C152C83120313081509
:100828008811831203136108A101A1076008A001C0
:10083800A0070A128A15D9230A128A1183120313F0
:100848000C138C1E312C0A128A15C9200A128A111F
:100858000A128A158E230A128A1183120313570863
:10086800FF0056088A0055088400540E8300FE0EC7
:100878007E0E0900780883120313A0007908A100EE
:100888007A08A2000310210D220DA3002308A60058
:100898007B08A0007C08A1007D08A2000310210DA0
:1008A800220DA3002308A50026080319672C250894
:1008B800260203186E2C2603FF3A2507A0001930DC
:1008C8002002031C6E2C7B08F8007C08F9007D08C8
:1008D800FA0008002508031908002608250203184D
:1008E8007D2C2503FF3A2607A000193020020318A3
:1008F80008000630A0002008A400FA1BA417FD1B5E
:100908002417F917FF30F805FF30F9050030FA050C
:10091800FC17FF30FB05FF30FC050030FD052508FE
:1009280026020318BD2C01300310FB0DFC0DFD0D34
:10093800FF3E031D982C0130A50225082606031941
:10094800B82C0130A402240807390319B82C972CB5
:1009580001300310FA0CF90CF80CFF3E031DAD2C06
:100968000130A0002008A607260825060319E62C52
:10097800AC2C260825020318E62C01300310F80DCC
:10098800F90DFA0DFF3E031DC22C0130A602250801
:1009980026060319E22C0130A4022408073903199A
:1009A800E22CC12C01300310FD0CFC0CFB0CFF3EAB
:1009B800031DD72C0130A0002008A507260825060E
:1009C800031DD62CA41FF82CFF30F806FF30F906BB
:1009D800FF30FA060130F807003003180130F90734
:1009E800003003180130FA07241F0A2DFF30FB06D8
:1009F800FF30FC06FF30FD060130FB07003003180E
:100A08000130FC07003003180130FD07A401780805
:100A1800FB07790803110318790A031DFC077A08F4
:100A2800031103187A0A031DFD07FD1F2D2DFF3042
:100A3800FB06FF30FC06FF30FD060130FB070030E7
:100A480003180130FC07003003180130FD07A4012A
:100A5800A40A7B08F0007C08F1007D08F200260853
:100A6800A0002008F3002408A1002108F4000A12BD
:100A78008A118A277008F8007108F9007208FA00CC
:100A88000800831203132008A6002108A7002208E3
:100A9800A8000310270D280DA9002908AA00AA08F4
:100AA800031D5D2D0030A0000030A1000030A20021
:100AB80008002308A6002408A7002508A80003109A
:100AC800270D280DA9002908AF00AF08031D732DB5
:100AD8000030A0000030A1000030A20008002F085C
:100AE8007B3EA6002608AA072008A6002108A70022
:100AF8002208A80010300310A80CA70CA60CFF3E73
:100B0800031D7F2D2608A9002908AF002308A60089
:100B18002408A7002508A80010300310A80CA70C6B
:100B2800A60CFF3E031D912D2608A9002908AF0633
:100B38008030A6002608AF05A117A417FF30A3052B
:100B4800FF30A4050030A5050030AB000030AC0034
:100B58000030AD000730A6002608AE00201CC22DCC
:100B68002308AB07240803110318240A031DAC0744
:100B7800250803110318250A031DAD0701300310CA
:100B8800A20CA10CA00CFF3E031DC32D01300310C5
:100B9800A30DA40DA50DFF3E031DCB2D0130AE0204
:100BA800031DB22D0930A6002608AE00201CEA2D30
:100BB8002308AB07240803110318240A031DAC07F4
:100BC800250803110318250A031DAD07013003107A
:100BD800A20CA10CA00CFF3E031DEB2D013003104D
:100BE800AD0CAC0CAB0CFF3E031DF32D0130AE0277
:100BF800031DDA2D2B08F0002C08F1002D08F20057
:100C08002A08A6002608F3002F08A7002708F400E2
:100C18000A128A118A27700883120313A000710828
:100C2800A1007208A2000800A73083120313C800AD
:100C38004808D1004408F0004508F1004608F200D1
:100C48000030F3000030F4000030F5000A128A1575
:100C5800CE250A128A110318512E2D308312031340
:100C6800C800510884004808831380000130C80078
:100C78004808D1074408F0004508F1004608F2008A
:100C88000A168A11CF270A128A11700883120313D1
:100C9800C4007108C5007208C60083120313440813
:100CA800B0004508B1004608B2000A128A1572273A
:100CB8000A128A11831203133308D0003208CF00B6
:100CC8003108CE003008CD005008FB004F08FA006C
:100CD8004E08F9004D08F8000A128A15A6210A12D2
:100CE8008A11780883120313A7007908A8007A08E4
:100CF800A9004408AA004508AB004608AC000A123F
:100D08008A15E4200A128A11831203132708C400E3
:100D18002808C5002908C6004408A3004508A400FF
:100D28004608A5002430A0007430A1004930A20074
:100D38000A128A1145250A128A1183120313200800
:100D4800B0002108B1002208B2000A128A157227E1
:100D58000A128A11831203133308CC003208CB001D
:100D68003108CA003008C9006530C8004808AA0020
:100D78005008AE004F08AD004E08AC004D08AB005F
:100D88004C08B2004B08B1004A08B0004908AF004F
:100D980051080A128A113D20A73008008312031354
:100DA8003308B6003408B7003508B8000310370D0B
:100DB800380DB9003908BE00BE08031DEA2E003000
:100DC800B0000030B1000030B20008003008B600B2
:100DD8003108B7003208B8000310370D380DB900D4
:100DE8003908BF00BF08031D002F0030B0000030D5
:100DF800B1000030B20008000030BB000030BC0079
:100E08000030BD0089303F07B6003608BE023308FF
:100E1800B6003408B7003508B80010300310B80C15
:100E2800B70CB60CFF3E031D122F3608B90039085F
:100E3800BF003008B6003108B7003208B8001030DB
:100E48000310B80CB70CB60CFF3E031D242F360850
:100E5800B9003908BF068030B6003608BF05B41798
:100E6800FF30B305FF30B4050030B505B117FF30CA
:100E7800B005FF30B1050030B2051830B6003608AD
:100E8800BA0001300310BB0DBC0DBD0DFF3E031DA4
:100E9800462F32083502031D572F31083402031D2F
:100EA800572F30083302031C642F3008B30231086F
:100EB800031C310FB4023208031C320AB5023B147A
:100EC80001300310B30DB40DB50DFF3E031D652FA2
:100ED8000130BA02031D452F3B08F0003C08F10021
:100EE8003D08F2003E08B6003608F3003F08B70098
:100EF8003708F4000A128A118A277008831203132C
:100F0800B0007108B1007208B20008007308031934
:100F1800922F720871047004031DA52F0030F00091
:100F28000030F1000030F20008000130F5007508CB
:100F3800F30701300310F20CF10CF00CFF3E031D17
:100F48009E2FFE3072050319C02F992F0130F5002E
:100F58007508F3070130F007003003180130F10776
:100F6800003003180130F20701300310F20CF10CC5
:100F7800F00CFF3E031DB92FFF3072050319CF2F68
:100F8800AA2F0130F30201300310F00DF10DF20D1C
:100F9800FF3E031DC82FF11FC52F7318D92FFF302F
:100FA800F0057F30F105FF30F2050310F30C7308EC
:100FB800F500F601F70110300310F50DF60DF70DE9
:100FC800FF3E031DE02F7508F0047608F10477084A
:100FD800F204740803190800F2170800F100F00180
:100FE8003A3071020318FE2F30307102031CFE2FB5
:100FF800F001F00A700C0800FF1B0A2883137F1801
:1010080083170008840A0319FF0A080008308A00B9
:101018000408840A820700340134003400340034A0
:101028000A340034003400346434003400340034AA
:10103800E8340334003400341034273400340034E6
:10104800A034863401340034403442340F34003440
:1010580080349634983400340034E134F53405345F
:101068000034CA349A343B341C340C34013406340A
:101078000A340D3420342D342D342D342D342D34B0
:101088002D342D3420344534533454344F345534AE
:1010980052344F34203444344534203450344934A5
:1010A8004C344834413420342D342D342D342D34EF
:1010B8002D342D342D3420340A340D3420340034AA
:1010C8000C344C346F346134643469346E346734AE
:1010D80020345034493443342E342E342E340034E2
:1010E80025346C3475342E34253436342E34363465
:1010F8006C34753400344E346934763465346C3469
:101108003A3400346C346F346F347034003425341E
:101118000034FF34FF3483160313B80083120C1E07
:1011280092288316031338088312031399000800C2
:10113800831603139F179F111F119F101F108312EF
:1011480003139F171F131F14831603130C178312FF
:1011580003130C130800F7007508013A0319B9289E
:101168004030F6007608F800BA28F8017708FF3E04
:10117800F6007608F80778088038F6007608F20056
:1011880000300A128A15D121080083120313981817
:10119800D2281A08F3007308F400E1282D30F10072
:1011A8008030F2000A128A153D21831203131812A7
:1011B8001A08F3007308F40018168C127408080053
:1011C800803083120313A9062A08F8002B08F900B7
:1011D8002C08FA002708FB002808FC002908FD0055
:1011E8000A128A113E24780883120313A70079088B
:1011F800A8007A08A900080083160313BF003D0859
:10120800013A03190C294030BE003E08C0000D29E0
:10121800C0013F08FF3EBE003E08C00740088038B6
:10122800BE003E08BA0000300A128A155E22080085
:10123800FD01F91F2629F809F909F80A0319F90A1D
:10124800FD01FD0A7808F0007908F100F2018E30FE
:10125800FB007B08F3007D08FC007C08F4000A1200
:101268008A118A277008F8007108F9007208FA00D4
:101278000800720883120313FF00710884000A1221
:101288008A1500200A128A15003803190800720806
:1012980083120313FF00710884000A128A150020C4
:1012A8000A128A150A168A11C7270A128A150130E6
:1012B800F1070318F20A3D29F401F501701C6A29A7
:1012C8007208F4070318F50A7308F50701300310CC
:1012D800F20DF30DFF3E031D6B2901300310F10CD5
:1012E800F00CFF3E031D722971087004031D62296A
:1012F8007508F101F1077408F001F00708007D088E
:1013080083120313FF007C0884000A128A15002048
:101318000A128A150038031908007D08831203137E
:10132800FF007C0884000A128A1500200A128A1518
:101338000A128A15CC220A128A150130FC070318F2
:10134800FD0A83298E30FC007C08FD00FF307B05F8
:101358000319BC2901300310FB0CFA0CF90CF80C2A
:10136800FF3E031DAF290130FC007C08FD07AA29B8
:101378007808F0007908F1007A08F2007D08FC008E
:101388007C08F300F4010A128A118A277008F80011
:101398007108F9007208FA000800F40083120313B8
:1013A80086126330F300F30BD729DA29740803197E
:1013B800E129831203138616E42983120313861284
:1013C80000008312031306127208F300043003109E
:1013D800F30CFF3E031DEB2973080A128A159322AA
:1013E8000A128A1572080F390A128A159322080000
:1013F800831603133A0883120313FF00831603139B
:1014080039088400831203130A128A1500200A126D
:101418008A15003803190800831603133A08831243
:101428000313FF0083160313390884008312031380
:101438000A128A1500200A128A150A128A158F20A4
:101448000A128A15013083160313B9070318BA0A5A
:10145800FC2983160313450883120313FF00831620
:10146800031344088400831203130A128A15002008
:101478000A128A1500380319080083160313450851
:1014880083120313FF008316031344088400831296
:1014980003130A128A1500200A128A150A128A15DD
:1014A80047230A128A15013083160313C407031849
:1014B800C50A2D2A83160313BC0083120313861250
:1014C800633083160313BB00BB0B682A6B2A831691
:1014D80003133C080319742A831203138616772A08
:1014E8008312031386120000831203130612831655
:1014F80003133A08BB0004300310BB0CFF3E031D66
:10150800802A3B080A128A151A250A128A15831698
:1015180003133A080F390A128A151A250800F10030
:10152800003071180130F0008312031306087006AA
:10153800FE39700686000030F1180130F000F00D19
:1015480006087006FD3970068600003071190130F2
:10155800F000F00DF00D06087006FB3970068600E5
:101568000030F1190130F000F00DF00DF00D060813
:101578007006F739700686000000831203130616FA
:101588000330F000F00BC62A83120313061208007A
:10159800FB00FB2AF201F20A00300A128A15D12157
:1015A8000A128A150D30FA00FB30F900F90BDA2A15
:1015B800FA0BDA2ADF2A08000230F9007908F50068
:1015C80001300A128A15AF2008001030F900790896
:1015D800F20000300A128A15D12108007B08F900B0
:1015E8007908F20001300A128A15D12108007B0817
:1015F800083A0319E92A023A0319E02A063A0319B4
:10160800CE2AF22A080083160313BA01BA0A003058
:101618000A128A155E220A128A15413083160313AC
:10162800BE00EE30BD00BD0B172BBE0B172B000004
:101638000C3083160313BD003D08BA0000300A12AF
:101648008A155E220A128A15F93083160313BD0023
:101658000000BD0B2C2B302B000006308316031323
:10166800BD003D08BA0000300A128A155E220A122F
:101678008A15F93083160313BD000000BD0B412BFA
:10168800452B0000080083160313C300802BBA0102
:10169800BA0A00300A128A155E220A128A150D301B
:1016A80083160313C200FB30C100C10B592BC20BB8
:1016B800592B5E2B0800023083160313C100410822
:1016C800BD0001300A128A15002108001030831667
:1016D8000313C1004108BA0000300A128A155E22BD
:1016E8000800831603134308C1004108BA000130FB
:1016F8000A128A155E220800831603134308083A63
:1017080003196A2B023A03195F2B063A03194B2B6C
:10171800752B0800F1007108423A031D9C2B8312B7
:1017280003130811881542300A168A11C7270800C2
:101738007108623A031DA92B831203130815881137
:1017480062300A168A11C727080071084D3A031D2E
:10175800B52B8312031308134D300A168A11C727B5
:10176800080071086D3A031DC12B83120313081773
:101778006D300A168A11C727080071084C3A031DF4
:10178800CD2B8312031307144C300A168A11C7276E
:10179800080071086C3A031D080083120313071030
:1017A8006C300A168A11C727080083120313B60182
:1017B800B70126308400C930A2000408A300103005
:1017C800A4002208840083130008A500A20A2308A5
:1017D800840025088000A30AA40BE52BA11B082C74
:1017E800FF30A2003608263E840022088000FF3021
:1017F800A0070318A10AFF30A1070130B607031894
:10180800B70A0030B707F22B2630A2002208B8002A
:101818003808FC000030FD000A128A1583210A12DC
:101828008A15063083120313A4001330A300B130C5
:10183800A200A20B1D2CA30B1D2CA40B1D2C242CC9
:101848000800831203132308220421042004031927
:101858006A2CA901A90AA31B3F2C0130A800031078
:10186800A00DA10DA20DA30DA80B332C0130A800CB
:101878002808A9072F2C23082702031D4D2C22080E
:101888002602031D4D2C21082502031D4D2C20087E
:101898002402031C5D2C2008A4022108031C210F2C
:1018A800A5022208031C220FA6022308031C230FEB
:1018B800A70201300310A30CA20CA10CA00CFF3E40
:1018C800031D5E2C0130A902031D3F2C2708A3002D
:1018D8002608A2002508A1002408A00008008312F9
:1018E8000313A101FC1F7F2CFB09FC09FB0A031948
:1018F800FC0AA101A10AFA1F862CF909FA09F90ABA
:101908000319FA0A7A0879040319B32CA001A00A6A
:10191800FA1B9A2C01300310F90DFA0DFF3E031D36
:101928008F2C0130FD007D08A0078C2C7A087C02E2
:10193800031DA02C79087B02031CA82C7908FB0244
:101948007A08031CFC03FC0201300310FA0CF90CA2
:10195800FF3E031DA92C0130A002031D9A2C21086B
:101968000319BB2CFB09FC09FB0A0319FC0A7C08B8
:10197800FA01FA077B08F901F90708008312031333
:10198800C900CA01CB0149088400831380080319E0
:10199800FA2C4B084A04031DE52C6C086B04031D44
:1019A800D72C5330DD2C01306B066C04031DF32C4F
:1019B8004930F3004A08203E8400730883138000EE
:1019C800F32C4908840083130008F3004A08203EDA
:1019D8008400730880000130F3007308C9070130E0
:1019E800CA070318CB0A0030CB07C72C4B08803A2C
:1019F800FF0080307F02031D032D27304A020318A1
:101A08000C2D831203134A08203E8400831380019F
:101A18002030F300730883120313C8004808F1004C
:101A28000030F2000A128A153D21080083160313BC
:101A3800B900003039180130B800831203130608C2
:101A4800831603133806FE393806831203138600FB
:101A5800003083160313B9180130B800B80D83128B
:101A680003130608831603133806FD393806831254
:101A78000313860000308316031339190130B800A8
:101A8800B80DB80D8312031306088316031338061E
:101A9800FB393806831203138600003083160313BC
:101AA800B9190130B800B80DB80DB80D8312031379
:101AB8000608831603133806F7393806831203130A
:101AC80086000000831203130616033083160313DF
:101AD800B800B80B6D2D8312031306120800F60127
:101AE800F11F7D2DF009F109F00A0319F10AF60139
:101AF800F60AF31F882DF209F309F20A0319F30A0B
:101B08000130F4007408F606F701F8017108700452
:101B18000319BF2DF501F50AF11B9E2D01300310A5
:101B2800F00DF10DFF3E031D932D0130F4007408F4
:101B3800F507902D01300310F70DF80DFF3E031D3A
:101B48009F2D71087302031DAB2D70087202031CD0
:101B5800B42D7008F2027108031CF303F302771422
:101B680001300310F10CF00CFF3E031DB52D0130C0
:101B7800F502031D9E2D76080319C72DF709F809EC
:101B8800F70A0319F80A7808F101F1077708F00154
:101B9800F0070800F21FF52D0030F6000030F700BE
:101BA8008030F8007009F9007109FA007209FB0029
:101BB800F90A0319FA0A0319FB0A7908F6077A08D9
:101BC80003187A0FE82DE92DF7077B0803187B0F18
:101BD800EE2DEF2DF8077608F0007708F100780869
:101BE800F200F51F1C2E0030F6000030F7008030A0
:101BF800F8007309F9007409FA007509FB00F90A7D
:101C08000319FA0A0319FB0A7908F6077A08031870
:101C18007A0F0F2E102EF7077B0803187B0F152E4F
:101C2800162EF8077608F3007708F4007808F50010
:101C38008030F2068030F50675087202031D080030
:101C480074087102031D0800730870020800003050
:101C5800FC000030FB000030FA000030F900730887
:101C68007204710470040319802EFD01FD0AF31B30
:101C78004B2E0130F8000310F00DF10DF20DF30DAD
:101C8800F80B3F2E0130F8007808FD073B2E013095
:101C9800F8000310F90DFA0DFB0DFC0DF80B4D2E95
:101CA80073087702031D622E72087602031D622EE6
:101CB80071087502031D622E70087402031C732ECE
:101CC8007008F4027108031C710FF5027208031CF6
:101CD800720FF6027308031C730FF70279140130B0
:101CE8000310F30CF20CF10CF00CFF3E031D742EE4
:101CF8000130FD02031D4B2E7C08F3007B08F20027
:101D08007A08F1007908F000080083160313061218
:101D18008612831203130612861283160313061003
:101D280086100611861183120313061086100611F9
:101D38008611623083160313BE006530BD00BD0BEB
:101D4800A32EBE0BA32EA82E83160313BF010330A8
:101D58003F020318CA2E03300A128A151A250A12DE
:101D68008A15213083160313BE007630BD00BD0BE3
:101D7800BB2EBE0BBB2E0000013083160313BD0023
:101D88003D08BF0703303F02031CAF2E02300A1282
:101D98008A151A250A128A1583160313BF010430FF
:101DA8003F02031808003F08293E84000A128A15DA
:101DB8000A200A128A15BD003D08BA0000300A122E
:101DC8008A155E220A128A15013083160313BD0094
:101DD8003D08BF07D32EFF308316031385008312F7
:101DE8000313051083160313081183120313081530
:101DF80083160313881183120313881183160313A0
:101E08000714831203130710871133308316031343
:101E1800C800BC30C7001030C600C60B112FC70B56
:101E2800112FC80B112F0A128A1589260A128A1532
:101E3800333083160313C800BC30C7001030C60007
:101E4800C60B242FC70B242FC80B242F0B178B1757
:101E58001A3083160313C8005E30C7008630C600E8
:101E6800C60B342FC70B342FC80B342F00000A12AF
:101E78008A159C200A128A15553083160313C4004C
:101E88008030C5000A128A152D220A128A157F3061
:101E980083160313C800D430C700AE30C600C60B83
:101EA800532FC70B532FC80B532F5A2F0A128A15BB
:101EB80007230A128A1583120313071C6F2F773022
:101EC80083160313B9008030BA000A128A15FC2160
:101ED8000A128A15632F0A128A1112288312031311
:101EE8003008B4003108B5003208B6000310350DCB
:101EF800360DB7003708BD00BD08031D8C2F003014
:101F0800B3000030B2000030B1000030B00008006B
:101F18003008B4003108B5003208B6001730031095
:101F2800B60CB50CB40CFF3E031D932F3408B70054
:101F38003708B800B117FF30B005FF30B1050030E1
:101F4800B2053008B9003108BA003208BB00BC013C
:101F58008E30BD02BD1FCE2F3D08803A8F3E03183C
:101F6800BE2F0030B3000030B2000030B1000030A6
:101F7800B000080001300310BC0CBB0CBA0CB90C43
:101F8800FF3E031DBF2F0130B4003408BD070319FD
:101F9800E92FBE2F18303D02031CE62F0030B30096
:101FA8000030B2000030B1000030B000080001304D
:101FB800B4000310B90DBA0DBB0DBC0DB40BDD2F69
:101FC8000130BD02BD08031DDB2F38080319F72FA8
:101FD800B909BA09BB09BC09B90A0319BA0A03192C
:101FE800BB0A0319BC0A3C08B3003B08B2003A0814
:081FF800B1003908B000080037
:102F8E00F000831203130C1EC82F7008990008005E
:102F9E00720871047004031908008030F2060800EC
:102FAE0064008001840A0406031900340406D82F35
:102FBE002034203420342034203420342034203463
:102FCE002034203420342034203420342034203453
:102FDE007E088A007F088200EF270A168A11800079
:102FEE00840A04087D0603190034FF0A0319FE0A39
:022FFE00F32FAF
:02400E0072FF3F
:00000001FF
