:060000000A128A11122809
:10000800FE00030E83120313D6000408D7000A0863
:10001800D8007F08D9000A128A1141280A128A11C9
:10002800152883135A3084006D300A128A1505206A
:100038000A128A11D4308400DD300A128A1505208C
:100048000A128A11D430FD001730FE003E30FF003E
:10005800C43084000A168A1152270A128A110A1219
:100068008A1503200A128A11ED000A128A15042043
:10007800EE0083010A128A1576280C1F912A1E08A1
:1000880083160313DC01DC071E08DB01DB07BA015A
:10009800BB01A0308400C43083120313D2000408CB
:1000A800D3001030D4005208840083130008D50010
:1000B800D20A5308840055088000D30AD40B572865
:1000C8000030A000A030A1003B30A200831603132B
:1000D8005C08F901F9075B08F801F8070A168A11A4
:1000E800DF270A128A11780883120313A3007908FC
:1000F800A4007A08A5000A128A11FF250A128A119B
:1001080083120313200883160313BD0083120313FD
:10011800210883160313BE008312031322088316D3
:100128000313BF003D0883120313C400831603138F
:100138003E0883120313C500831603133F08831276
:100148000313C600B130D2005208C7000A128A153C
:1001580046270A128A1183120313D3005308831601
:100168000313B000E830F0000330F1005C08F3013D
:10017800F3075B08F201F2070A128A15A0230A1294
:100188008A117008303E83120313D2005208831676
:100198000313D4000A30F9000030FA006430F0008C
:1001A8000030F1005C08F301F3075B08F201F20785
:1001B8000A128A15A0230A128A117108FC01FC0789
:1001C8007008FB01FB070A128A15A0220A128A117D
:1001D8007908303E83120313D200520883160313A2
:1001E800D5000A30F9000030FA000A30F00000307B
:1001F800F1005C08F301F3075B08F201F2070A1249
:100208008A15A0230A128A117108FC01FC077008DC
:10021800FB01FB070A128A15A0220A128A11790823
:10022800303E83120313D200520883160313D600FC
:100238000A30F9000030FA005C08FC01FC075B0892
:10024800FB01FB070A128A15A0220A128A117908F3
:10025800303E83120313D200520883160313D700CB
:10026800F501F50A00300A168A1172270A128A1156
:10027800B330FC008030FD000A128A1553200A12A0
:100288008A11F501F50A07300A168A1172270A122F
:100298008A11003083120313B0008030B1003F3060
:1002A800B2000030A000C830A1004230A20083167E
:1002B80003133D0883120313A300831603133E0898
:1002C80083120313A400831603133F088312031336
:1002D800A5000A128A11FF250A128A118312031334
:1002E8002008B3002108B4002208B5000A128A15B4
:1002F8008E260A128A1183120313300883160313F9
:10030800C00083120313310883160313C10083123C
:100318000313320883160313C20040088312031321
:10032800C40083160313410883120313C500831600
:100338000313420883120313C600B330D2005208D5
:10034800C7000A128A1546270A128A118312031354
:10035800D300530883160313C3004308FC0000307E
:10036800FD000A128A1553200A128A1183160313F4
:1003780043080A128A15EF220A128A11F501F50AB2
:1003880010300A168A1172270A128A11BA30FC0034
:100398008030FD000A128A1553200A128A11F501CD
:1003A80000300A168A1172270A128A11D73083126E
:1003B8000313A0002330A1003E30A20083160313CC
:1003C800400883120313A300831603134108831202
:1003D8000313A40083160313420883120313A50012
:1003E8000A128A11FF250A128A11831203132008A0
:1003F80083160313B500831203132108831603130E
:10040800B60083120313220883160313B7003508B6
:1004180083120313B00083160313360883120313E1
:10042800B10083160313370883120313B2000A12AC
:100438008A1500260A128A118312031331088316BB
:100448000313B901B9078312031330088316031382
:10045800B801B8075C08803AFF0080307F02031DAE
:10046800372AC8305B0203183D2A83120313081188
:100478008815831603135C08803AFF0080307F02DA
:10048800031D482AC9305B02031C4E2A831203133A
:100498000815881183160313B91B6E2AFF308312BF
:1004A800D200831603133A08A03E84008312031374
:1004B800520883138000FF3083160313B80703180C
:1004C800B90AFF30B9070130BA070318BB0A003070
:1004D800BB074E2AA03083120313D200520883169A
:1004E8000313BC003C08FC000030FD000A128A150A
:1004F80053200A128A11063083120313D4001330D2
:10050800D300B130D200D20B872AD30B872AD40B61
:10051800872A8E2A831203130C138C1EAF2A2D30C0
:10052800F1008030F2000A128A150D200A128A1191
:100538008130F1008030F2000A128A150D200A126B
:100548008A110A168A118C270A128A110A168A1128
:1005580012270A128A11831203135908FF00580838
:100568008A0057088400560E8300FE0E7E0E09008E
:1005780083120313BE002B30B3003308B9000130D7
:10058800AA07FF302A0784000A128A110A270A12CA
:100598008A11B3003308C300C3080319F32C4308B6
:1005A800253A0319E32A4308B3003E0884003308B8
:1005B800831380000130B3003308BE07C32ABF018C
:1005C800C001B8012A0884000A128A110A270A12EF
:1005D8008A110A168A1122270A128A11031C362B3D
:1005E80083120313BF01C0010A30F0000030F1008C
:1005F800831203134008F301F3073F08F201F207DF
:100608000A128A1530200A128A11710883120313FC
:10061800C001C0077008BF01BF072A0884000A127A
:100628008A110A270A128A11D03EB300FF30031834
:100638000030B4003308BF070318C00A3408C007E5
:100648000130B3003308AA072A0884000A128A1165
:100658000A270A128A110A168A1122270A128A11EF
:100668000318F82A831203132A0884000A128A112D
:100678000A270A128A112E3A031D842B0130B3006F
:100688003308AA07C101C2012A0884000A128A1184
:100698000A270A128A110A168A1122270A128A11AF
:1006A800031C902B831203134208F101F107410840
:1006B800F001F0070A30F2000030F3000A128A1540
:1006C80030200A128A11831203132A0884000A129E
:1006D8008A110A270A128A117007B300003003181A
:1006E80001307107B4003308D03EC1003408031844
:1006F800013EFF3EC2000130B3003308AA07482B71
:1007080083120313C101C201902B3816902BC030FD
:10071800B3003308B804A72B013083120313AA07C8
:10072800FF302A0784000A128A110A270A128A113E
:10073800C300003A0319F32C6C3A0319892B193AB0
:1007480003198B2BC32A381EB92B3908840083134D
:100758000008BA00840A0008BB00840A0008BC002C
:10076800840A0008BD000430C82B390884008313AC
:100778000008B300840A0008B4003308BA0034083B
:10078800BB00BC01BD010230B3003308B907420801
:100798004104031DDB2B3D083C043B043A04031DC4
:1007A800DB2B0130C1070318C20A0030C207C3019E
:1007B800C30A43080A3A03191D2C4308B300013041
:1007C8000310B30DFF3E031DE42B0310330D013E50
:1007D80084000A128A110A270A128A11B4000A121E
:1007E8008A110A270A128A11B5000A128A110A27E1
:1007F8000A128A11B6000A128A110A270A128A11E5
:10080800B70037083D02031D132C36083C02031DB0
:10081800132C35083B02031D132C34083A02031C21
:100828001D2C0130B3003308C30743080A3A031DDF
:10083800E12B4308B300B401B31BB4033408803A76
:10084800B5004208803A3502031D2C2C41083302BA
:100858000318352C831203134108B3003308C3006F
:100868004F2C831203134308B300B401B31BB40322
:100878004208803AB5003408803A3502031D462CF8
:100888003308410203184F2C831203134308C10095
:10089800C201C11BC203831203134308B300B4018E
:1008A800B31BB4033408803AB5004008803A3502D7
:1008B800031D602C3F0833020318702C83120313A6
:1008C8004308B300B401B31BB4033308BF023408B0
:1008D800031CC003C002742C83120313BF01C001A0
:1008E80040083F040319E42C2030B3003E0884007C
:1008F8003308831380000130B3003308BE07FF308C
:10090800BF070318C00AFF30C007742C0030A300CB
:100918000030A2000030A1000A30A0004108B30056
:1009280001300310B30DFF3E031D952C0310330D4A
:10093800013E84000A128A110A270A128A11F0005D
:100948000A128A110A270A128A11F1000A128A1158
:100958000A270A128A11F2000A128A110A270A12B1
:100968008A11F3003D08F7003C08F6003B08F50043
:100978003A08F4000A128A1558240A128A117308D0
:1009880083120313A7007208A6007108A500700857
:10099800A4000A128A1552220A128A11831203131A
:1009A8002008303EB4003408C3004308B3003E08B2
:1009B80084003308831380000130B3003308BE0776
:1009C800FF30C1070318C20AFF30C207FF304206D2
:1009D800031DF02CFF3041060319C32A8A2C3E0858
:1009E8008400831380010800780883120313A00091
:1009F8007908A1007A08A2000310210D220DA30096
:100A08002308A6007B08A0007C08A1007D08A2009E
:100A18000310210D220DA3002308A50026080319A1
:100A2800212D250826020318282D2603FF3A25071D
:100A3800A00019302002031C282D7B08F8007C0830
:100A4800F9007D08FA00080025080319080026089F
:100A580025020318372D2503FF3A2607A000193071
:100A68002002031808000630A0002008A400FA1B82
:100A7800A417FD1B2417F917FF30F805FF30F905F7
:100A88000030FA05FC17FF30FB05FF30FC0500308D
:100A9800FD05250826020318772D01300310FB0DEC
:100AA800FC0DFD0DFF3E031D522D0130A50225084A
:100AB80026060319722D0130A402240807390319E8
:100AC800722D512D01300310FA0CF90CF80CFF3E71
:100AD800031D672D0130A0002008A607260825065B
:100AE8000319A02D662D260825020318A02D013014
:100AF8000310F80DF90DFA0DFF3E031D7C2D013092
:100B0800A6022508260603199C2D0130A4022408F4
:100B1800073903199C2D7B2D01300310FD0CFC0CAB
:100B2800FB0CFF3E031D912D0130A0002008A507F6
:100B380026082506031D902DA41FB22DFF30F806A8
:100B4800FF30F906FF30FA060130F80700300318C5
:100B58000130F907003003180130FA07241FC42DAB
:100B6800FF30FB06FF30FC06FF30FD060130FB07B7
:100B7800003003180130FC07003003180130FD076E
:100B8800A4017808FB07790803110318790A031DE3
:100B9800FC077A08031103187A0A031DFD07FD1FD5
:100BA800E72DFF30FB06FF30FC06FF30FD06013065
:100BB800FB07003003180130FC0700300318013030
:100BC800FD07A401A40A7B08F0007C08F1007D0859
:100BD800F2002608A0002008F3002408A10021083C
:100BE800F4000A128A151C257008F8007108F9002B
:100BF8007208FA000800831203132008A6002108CF
:100C0800A7002208A8000310270D280DA90029080D
:100C1800AA00AA08031D172E0030A0000030A1006A
:100C28000030A20008002308A6002408A700250811
:100C3800A8000310270D280DA9002908AF00AF0848
:100C4800031D2D2E0030A0000030A1000030A200AE
:100C580008002F087B3EA6002608AA072008A60041
:100C68002108A7002208A80010300310A80CA70C20
:100C7800A60CFF3E031D392E2608A9002908AF003F
:100C88002308A6002408A7002508A8001030031090
:100C9800A80CA70CA60CFF3E031D4B2E2608A90086
:100CA8002908AF068030A6002608AF05A117A417AB
:100CB800FF30A305FF30A4050030A5050030AB00C8
:100CC8000030AC000030AD000730A6002608AE00AA
:100CD800201C7C2E2308AB07240803110318240AC0
:100CE800031DAC07250803110318250A031DAD07CA
:100CF80001300310A20CA10CA00CFF3E031D7D2E99
:100D080001300310A30DA40DA50DFF3E031D852E74
:100D18000130AE02031D6C2E0930A6002608AE0075
:100D2800201CA42E2308AB07240803110318240A47
:100D3800031DAC07250803110318250A031DAD0779
:100D480001300310A20CA10CA00CFF3E031DA52E20
:100D580001300310AD0CAC0CAB0CFF3E031DAD2EE7
:100D68000130AE02031D942E2B08F0002C08F10070
:100D78002D08F2002A08A6002608F3002F08A7006D
:100D88002708F4000A128A151C2570088312031319
:100D9800A0007108A1007208A200080083160317BA
:100DA80010089200920D920D920D831203131F08E2
:100DB800831603171206C7391206831203139F00FE
:100DC80083160317110883120313DB01DB0783164D
:100DD8000317100883120313DA01DA072930831680
:100DE80003179200920BF62E0000831203131F15AF
:060DF8001F1D0800FC2E87
:100E0000FF1B0A2F83137F1883170008840A031916
:100E1000FF0A080007308A000408840A82070034A9
:100E200001340034003400340A3400340034003417
:100E30006434003400340034E834033400340034C3
:100E40001034273400340034A034863401340034A4
:100E5000403442340F3400348034963498340034B3
:100E60000034E134F53405340034CA349A343B3468
:100E70001C340C34013406340A340D342034453427
:100E80006E34743472346F34753420346E3461349B
:100E90002034663475346E34633461346F342034F6
:100EA00064346534203449346E34743465347234B7
:100EB000723475347034633461346F342034643484
:100EC0006134203455345334413452345434003472
:100ED0000A340D3420342D342D342D342D342D345A
:100EE0002D342D3420344534533454344F34553458
:100EF00052344F342034443445342034503449344F
:100F00004C344834413420342D342D342D342D3498
:100F10002D342D342D3420340A340D342034003453
:100F20000A340D3420344334613472346134633410
:100F30007434653472342034443469346734693429
:100F40007434613464346F3420343A3400340C34F3
:100F50004C346F346134643469346E346734203413
:100F60005034493443342E342E342E340034253456
:100F70006C3475342E34253436342E3436346C3497
:100F8000753400344E346934763465346C343A3414
:100F9000003425340034831603179400831203139E
:100FA00086126330831603179300930BD52FD82F27
:100FB0008316031714080319E12F831203138616EF
:100FC000E42F831203138612000083120313061208
:100FD000831603171208930004300310930CFF3E8E
:100FE000031DED2F13080A128A1547230A128A11CE
:100FF0008316031712080F390A128A1547230800AF
:10100600FF34FF3464008001840A040603190034A7
:1010160004060628720883120313FF007108840071
:101026000A128A1100270A128A15003803190800C5
:10103600720883120313FF00710884000A128A11D2
:1010460000270A128A150A168A1112270A128A1509
:101056000130F1070318F20A0D28F401F501701C9E
:101066003A287208F4070318F50A7308F5070130E1
:101076000310F20DF30DFF3E031D3B280130031054
:10108600F10CF00CFF3E031D422871087004031D8D
:1010960032287508F101F1077408F001F00708001D
:1010A6007D0883120313FF007C0884000A128A114C
:1010B60000270A128A150038031908007D088312D2
:1010C6000313FF007C0884000A128A1100270A1203
:1010D6008A150A128A1590210A128A150130FC0710
:1010E6000318FD0A53280A128A1584250A128A153E
:1010F6000030831603179000003091000A128A11FF
:10110600D2260A128A15083083160317A3009D30CB
:10111600A2000B30A100A10B8E28A20B8E28A30BD8
:101126008E2895288312031387199C287B28081577
:101136008811871D7B289A288E30FC007C08FD00CC
:10114600FF307B050319B52801300310FB0CFA0CA0
:10115600F90CF80CFF3E031DA8280130FC007C08A2
:10116600FD07A3287808F0007908F1007A08F20054
:101176007D08FC007C08F300F4010A128A151C2580
:101186007008F8007108F9007208FA000800F40007
:101196008312031386126330F300F30BD028D3288F
:1011A60074080319DA28831203138616DD288312BE
:1011B6000313861200008312031306127208F3004B
:1011C60004300310F30CFF3E031DE42873080A12D3
:1011D6008A1557210A128A1572080F390A128A15BA
:1011E6005721080083160317120883120313FF0002
:1011F6008316031711088400831203130A128A1137
:1012060000270A128A1500380319080083160317E7
:10121600120883120313FF008316031711088400B4
:10122600831203130A128A1100270A128A150A1654
:101236008A1130270A128A1501308316031791077F
:101246000318920AF528831603171D088312031341
:10125600FF00831603171C088400831203130A1267
:101266008A1100270A128A15003803190800831606
:1012760003171D0883120313FF00831603171C08A8
:101286008400831203130A128A1100270A128A1590
:101296000A128A150B220A128A15013083160317C1
:1012A6009C0703189D0A2629F100003071180130A9
:1012B600F0008312031306087006FE3970068600D6
:1012C6000030F1180130F000F00D06087006FD3907
:1012D60070068600003071190130F000F00DF00D37
:1012E60006087006FB39700686000030F1190130D9
:1012F600F000F00DF00DF00D06087006F7397006D7
:10130600860000008312031306160330F000F00B6C
:101316008A298312031306120800FB00BF29F20173
:10132600F20A00300A128A15CA200A128A150D30EE
:10133600FA00FB30F900F90B9E29FA0B9E29A32926
:1013460008000230F9007908F50001300A168A1102
:10135600722708001030F9007908F20000300A12EE
:101366008A15CA2008007B08F9007908F2000130C6
:101376000A128A15CA2008007B08083A0319AD2903
:10138600023A0319A429063A03199229B629080034
:10139600831603179201920A00300A128A11CB278C
:1013A6000A128A154130831603179600EE3095000F
:1013B600950BDB29960BDB2900000C3083160317EF
:1013C60095001508920000300A128A11CB270A12DE
:1013D6008A15F9308316031795000000950BF0293E
:1013E600F4290000063083160317950015089200AD
:1013F60000300A128A11CB270A128A15F930831691
:10140600031795000000950B052A092A000008001D
:10141600831603179B00442A9201920A00300A128F
:101426008A11CB270A128A150D30831603179A00E4
:10143600FB309900990B1D2A9A0B1D2A222A0800B7
:1014460002308316031799001908950001300A1611
:101456008A11C3270800103083160317990019084C
:10146600920000300A128A11CB2708008316031750
:101476001B0899001908920001300A128A11CB271D
:101486000800831603171B08083A03192E2A023A86
:101496000319232A063A03190F2A392A0800831248
:1014A600031323082204210420040319972AA901FF
:1014B600A90AA31B6C2A0130A8000310A00DA10DD8
:1014C600A20DA30DA80B602A0130A8002808A907C1
:1014D6005C2A23082702031D7A2A22082602031DF6
:1014E6007A2A21082502031D7A2A20082402031CD1
:1014F6008A2A2008A4022108031C210FA50222081B
:10150600031C220FA6022308031C230FA702013087
:101516000310A30CA20CA10CA00CFF3E031D8B2AEA
:101526000130A902031D6C2A2708A3002608A20081
:101536002508A1002408A000080083120313A101B6
:10154600FC1FAC2AFB09FC09FB0A0319FC0AA101D2
:10155600A10AFA1FB32AF909FA09F90A0319FA0ABC
:101566007A0879040319E02AA001A00AFA1BC72AFF
:1015760001300310F90DFA0DFF3E031DBC2A0130A0
:10158600FD007D08A007B92A7A087C02031DCD2A32
:1015960079087B02031CD52A7908FB027A08031C0A
:1015A600FC03FC0201300310FA0CF90CFF3E031D8C
:1015B600D62A0130A002031DC72A21080319E82AEA
:1015C600FB09FC09FB0A0319FC0A7C08FA01FA0765
:1015D6007B08F901F907080083120313C900CA0141
:1015E600CB0149088400831380080319272B4B0875
:1015F6004A04031D122B5B085A04031D042B5330A7
:101606000A2B01305A065B04031D202B4930F300D8
:101616004A08203E8400730883138000202B490863
:10162600840083130008F3004A08203E84007308F0
:1016360080000130F3007308C9070130CA07031898
:10164600CB0A0030CB07F42A4B08803AFF008030E3
:101656007F02031D302B27304A020318392B8312D1
:1016660003134A08203E8400831380012030F300D0
:10167600730883120313C8004808F1000030F20013
:101686000A128A150D2008008316031791000030F0
:1016960011180130900083120313060883160317EE
:1016A6001006FE39100683120313860000308316D7
:1016B6000317911801309000900D8312031306084A
:1016C600831603171006FD391006831203138600CE
:1016D600003083160317111901309000900D900DFC
:1016E600831203130608831603171006FB39100628
:1016F60083120313860000308316031791190130F5
:101706009000900D900D900D83120313060883161A
:1017160003171006F739100683120313860000001C
:101726008312031306160330831603179000900BDB
:101736009A2B8312031306120800F601F11FAA2B37
:10174600F009F109F00A0319F10AF601F60AF31F86
:10175600B52BF209F309F20A0319F30A0130F40072
:101766007408F606F701F801710870040319EC2BEA
:10177600F501F50AF11BCB2B01300310F00DF10D2D
:10178600FF3E031DC02B0130F4007408F507BD2B86
:1017960001300310F70DF80DFF3E031DCC2B710829
:1017A6007302031DD82B70087202031CE12B70080C
:1017B600F2027108031CF303F302771401300310DD
:1017C600F10CF00CFF3E031DE22B0130F502031D68
:1017D600CB2B76080319F42BF709F809F70A031936
:1017E600F80A7808F101F1077708F001F007080018
:1017F600F21F222C0030F6000030F7008030F8008F
:101806007009F9007109FA007209FB00F90A031957
:10181600FA0A0319FB0A7908F6077A0803187A0FF9
:10182600152C162CF7077B0803187B0F1B2C1C2C7A
:10183600F8077608F0007708F1007808F200F51F3F
:10184600492C0030F6000030F7008030F8007309AC
:10185600F9007409FA007509FB00F90A0319FA0A76
:101866000319FB0A7908F6077A0803187A0F3C2C45
:101876003D2CF7077B0803187B0F422C432CF807F7
:101886007608F3007708F4007808F5008030F20651
:101896008030F50675087202031D0800740871028F
:1018A600031D08007308700208000030FC000030B9
:1018B600FB000030FA000030F9007308720471046E
:1018C60070040319AD2CFD01FD0AF31B782C0130C1
:1018D600F8000310F00DF10DF20DF30DF80B6C2C62
:1018E6000130F8007808FD07682C0130F800031075
:1018F600F90DFA0DFB0DFC0DF80B7A2C7308770227
:10190600031D8F2C72087602031D8F2C7108750239
:10191600031D8F2C70087402031CA02C7008F4029F
:101926007108031C710FF5027208031C720FF60290
:101936007308031C730FF702791401300310F30CBC
:10194600F20CF10CF00CFF3E031DA12C0130FD0240
:10195600031D782C7C08F3007B08F2007A08F1005E
:101966007908F00008008316031306128612831204
:101976000313061286128316031306108610061129
:101986008611831203130610861006118611623023
:1019960083160317960065309500950BD02C960B91
:1019A600D02CD52C83160317970103301702031882
:1019B600F72C03300A128A1547230A128A1521309A
:1019C60083160317960076309500950BE82C960B38
:1019D600E82C0000013083160317950015089707B9
:1019E60003301702031CDC2C02300A128A15472327
:1019F6000A128A1583160317970104301702031873
:101A060008001708293E84000A128A110A270A12BA
:101A16008A1595001508920000300A128A11CB2704
:101A26000A128A15013083160317950015089707C1
:101A3600002D73080319242D720871047004031D08
:101A4600372D0030F0000030F1000030F2000800C1
:101A56000130F5007508F30701300310F20CF10CA4
:101A6600F00CFF3E031D302DFE3072050319522D7A
:101A76002B2D0130F5007508F3070130F007003013
:101A860003180130F107003003180130F207013066
:101A96000310F20CF10CF00CFF3E031D4B2DFF3032
:101AA60072050319612D3C2D0130F302013003103C
:101AB600F00DF10DF20DFF3E031D5A2DF11F572DAE
:101AC60073186B2DFF30F0057F30F105FF30F205FE
:101AD6000310F30C7308F500F601F701103003103C
:101AE600F50DF60DF70DFF3E031D722D7508F0047A
:101AF6007608F1047708F204740803190800F2174F
:101B06000800FF30831603138500831203130510A4
:101B16008316031308118312031308158316031380
:101B2600881183120313881183160313071487146D
:101B3600071587158312031387113330831603178E
:101B4600A000BC309F0010309E009E0BA82D9F0B5E
:101B5600A82DA00BA82D0A128A15B6240A128A15DA
:101B6600333083160317A000BC309F0010309E0050
:101B76009E0BBB2D9F0BBB2DA00BBB2D0B178B17E5
:101B86001A3083160317A0005E309F0086309E0031
:101B96009E0BCB2D9F0BCB2DA00BCB2D00000A1639
:101BA6008A115F270A128A159830831603179C003C
:101BB60080309D000A128A1526210A128A1598304D
:101BC600831603179100803092000A128A15F520B9
:101BD6000A128A157F3083160317A000D4309F009F
:101BE600AE309E009E0BF52D9F0BF52DA00BF52D0F
:101BF600FC2D0A128A15CB21080083120313300824
:101C0600B4003108B5003208B6000310350D360DA4
:101C1600B7003708BD00BD08031D1A2E0030B300FB
:101C26000030B2000030B1000030B00008003008CB
:101C3600B4003108B5003208B60017300310B60CF0
:101C4600B50CB40CFF3E031D212E3408B70037082F
:101C5600B800B117FF30B005FF30B1050030B2054E
:101C66003008B9003108BA003208BB00BC018E301A
:101C7600BD02BD1F5C2E3D08803A8F3E03184C2ED8
:101C86000030B3000030B2000030B1000030B000C8
:101C9600080001300310BC0CBB0CBA0CB90CFF3E9B
:101CA600031D4D2E0130B4003408BD070319772EED
:101CB6004C2E18303D02031C742E0030B300003049
:101CC600B2000030B1000030B00008000130B400AE
:101CD6000310B90DBA0DBB0DBC0DB40B6B2E013044
:101CE600BD02BD08031D692E38080319852EB909E2
:101CF600BA09BB09BC09B90A0319BA0A0319BB0A0E
:101D06000319BC0A3C08B3003B08B2003A08B1000C
:101D16003908B0000800831203133308B6003408EC
:101D2600B7003508B8000310370D380DB90039086B
:101D3600BE00BE08031DA62E0030B0000030B10064
:101D46000030B20008003008B6003108B70032088B
:101D5600B8000310370D380DB9003908BF00BF08A9
:101D6600031DBC2E0030B0000030B1000030B200C0
:101D760008000030BB000030BC000030BD008930D8
:101D86003F07B6003608BE023308B6003408B7006F
:101D96003508B80010300310B80CB70CB60CFF3E6F
:101DA600031DCE2E3608B9003908BF003008B6002C
:101DB6003108B7003208B80010300310B80CB70C61
:101DC600B60CFF3E031DE02E3608B9003908BF06E3
:101DD6008030B6003608BF05B417FF30B305FF30B4
:101DE600B4050030B505B117FF30B005FF30B105B9
:101DF6000030B2051830B6003608BA0001300310BC
:101E0600BB0DBC0DBD0DFF3E031D022F3208350272
:101E1600031D132F31083402031D132F300833021C
:101E2600031C202F3008B3023108031C310FB40203
:101E36003208031C320AB5023B1401300310B30DFD
:101E4600B40DB50DFF3E031D212F0130BA02031D4F
:101E5600012F3B08F0003C08F1003D08F2003E0867
:101E6600B6003608F3003F08B7003708F4000A1238
:101E76008A151C25700883120313B0007108B1007F
:101E86007208B20008005C3083120313C8004808C9
:101E9600D1004408F0004508F1004608F200003081
:101EA600F3000030F4000030F5000A128A15FB2317
:101EB6000A128A1503187F2F2D3083120313C800C8
:101EC600510884004808831380000130C800480880
:101ED600D1074408F0004508F1004608F2000A164A
:101EE6008A111A270A128A15700883120313C4006E
:101EF6007108C5007208C600831203134408B000B7
:101F06004508B1004608B2000A128A1500260A12D0
:101F16008A15831203133308D0003208CF00310824
:101F2600CE003008CD005008FB004F08FA004E08DE
:101F3600F9004D08F8000A128A159F200A128A1520
:101F4600780883120313A7007908A8007A08A90065
:101F56004408AA004508AB004608AC000A168A11D8
:101F6600A7270A128A15831203132708C400280814
:101F7600C5002908C6004408A3004508A400460871
:101F8600A5002430A0007430A1004930A2000A1236
:101F96008A11FF250A128A15831203132008B0003E
:101FA6002108B1002208B2000A128A1500260A1278
:101FB6008A15831203133308CC003208CB0031088C
:101FC600CA003008C900A830C8004808AA0050084E
:101FD600AE004F08AD004E08AC004D08AB004C08F3
:101FE600B2004B08B1004A08B0004908AF005108DA
:0A1FF6000A128A11BC225C300800B8
:102E2400F000831203130C1E132F7008990008007E
:102E3400720871047004031908008030F206080057
:102E4400F100F0013A30710203182E2F3030710274
:102E5400031C2E2FF001F00A700C080083160317D0
:102E64009000831203130C1E332F831603171008CC
:102E740083120313990008002034203420342034B2
:102E8400203420342034203420342034203420349E
:102E940020342034203420347E088A007F088200C5
:102EA4004E270A168A118000840A04087D06031935
:102EB4000034FF0A0319FE0A522F831603139F17C7
:102EC4009F111F119F101F10831203139F171F13AD
:102ED4001F14831603130C17831203130C13080017
:102EE400F7007508013A03197C2F4030F600760884
:102EF400F8007D2FF8017708FF3EF6007608F80702
:102F040078088038F6007608F20000300A128A1534
:102F1400CA200800831203139818952F1A08F30087
:102F24007308F400A42F5930F1008030F2000A1223
:102F34008A150D208312031318121A08F30073085C
:102F4400F40018168C1274080800803083120313DE
:102F5400A9062A08F8002B08F9002C08FA0027080B
:102F6400FB002808FC002908FD000A128A11F82435
:102F7400780883120313A7007908A8007A08A90027
:102F840008008316031797001508013A0319CF2F79
:102F94004030960016089800D02F98011708FF3E7D
:102FA40096001608980718088038960016089200AC
:102FB40000300A128A11CB270800FD01F91FE92FFE
:102FC400F809F909F80A0319F90AFD01FD0A780854
:102FD400F0007908F100F2018E30FB007B08F30069
:102FE4007D08FC007C08F4000A128A151C25700870
:0C2FF400F8007108F9007208FA000800EB
:02400E0072FF3F
:00000001FF
