:060000000A128A11122809
:10000800FE00030E83120313D6000408D7000A0863
:10001800D8007F08D9000A128A1141280A128A11C9
:10002800152883135A3084006B300A168A118E27DC
:100038000A128A11D4308400DD300A168A118E27FC
:100048000A128A11D430FD001730FE00B230FF00CA
:10005800C43084000A168A11C6270A128A110A16A1
:100068008A117C270A128A11EB000A168A117D2749
:10007800EC0083010A128A15ED2D0C1F942A1E0824
:1000880083160313DC01DC071E08DB01DB07BA015A
:10009800BB01A0308400C43083120313D2000408CB
:1000A800D3001030D4005208840083130008D50010
:1000B800D20A5308840055088000D30AD40B572865
:1000C8000030A000A030A1003B30A200831603132B
:1000D8005C08F901F9075B08F801F8070A128A15A4
:1000E80073200A128A11780883120313A30079086F
:1000F800A4007A08A5000A128A1102260A128A1197
:1001080083120313200883160313BD0083120313FD
:10011800210883160313BE008312031322088316D3
:100128000313BF003D0883120313C400831603138F
:100138003E0883120313C500831603133F08831276
:100148000313C600B130D2005208C7000A128A153C
:1001580046270A128A1183120313D3005308831601
:100168000313B000E830F0000330F1005C08F3013D
:10017800F3075B08F201F2070A128A157B230A12B9
:100188008A117008303E83120313D2005208831676
:100198000313D4000A30F9000030FA006430F0008C
:1001A8000030F1005C08F301F3075B08F201F20785
:1001B8000A128A157B230A128A117108FC01FC07AE
:1001C8007008FB01FB070A128A15D3220A128A114A
:1001D8007908303E83120313D200520883160313A2
:1001E800D5000A30F9000030FA000A30F00000307B
:1001F800F1005C08F301F3075B08F201F2070A1249
:100208008A157B230A128A117108FC01FC07700801
:10021800FB01FB070A128A15D3220A128A117908F0
:10022800303E83120313D200520883160313D600FC
:100238000A30F9000030FA005C08FC01FC075B0892
:10024800FB01FB070A128A15D3220A128A117908C0
:10025800303E83120313D200520883160313D700CB
:10026800F501F50A00300A168A11E6270A128A11E2
:10027800B330FC008030FD000A128A15DA200A1219
:100288008A11F501F50A07300A168A11E6270A12BB
:100298008A11003083120313B0008030B1003F3060
:1002A800B2000030A000C830A1004230A20083167E
:1002B80003133D0883120313A300831603133E0898
:1002C80083120313A400831603133F088312031336
:1002D800A5000A128A1102260A128A118312031330
:1002E8002008B3002108B4002208B5000A128A15B4
:1002F8008E260A128A1183120313300883160313F9
:10030800C00083120313310883160313C10083123C
:100318000313320883160313C20040088312031321
:10032800C40083160313410883120313C500831600
:100338000313420883120313C600B330D2005208D5
:10034800C7000A128A1546270A128A118312031354
:10035800D300530883160313C3004308FC0000307E
:10036800FD000A128A15DA200A128A11831603136D
:100378004308F1000030F2000A128A1594200A128C
:100388008A11F501F50A10300A168A11E6270A12B1
:100398008A11BA30FC008030FD000A128A15DA2072
:1003A8000A128A11F50100300A168A11E6270A1284
:1003B8008A11D73083120313A0002330A1003E30E6
:1003C800A20083160313400883120313A3008316A5
:1003D8000313410883120313A4008316031342086E
:1003E80083120313A5000A128A1102260A128A111F
:1003F80083120313200883160313B5008312031313
:10040800210883160313B6008312031322088316E8
:100418000313B700350883120313B00083160313C0
:10042800360883120313B1008316031337088312A7
:100438000313B2000A128A155F250A128A11831261
:100448000313310883160313B901B9078312031381
:10045800300883160313B801B8075C08803AFF0018
:1004680080307F02031D3A2AC8305B020318402AF5
:100478008312031308118815831603135C08803A46
:10048800FF0080307F02031D4B2AC9305B02031C2A
:10049800512A831203130815881183160313B91BF5
:1004A800712AFF308312D200831603133A08A03E44
:1004B800840083120313520883138000FF308316CD
:1004C8000313B8070318B90AFF30B9070130BA0790
:1004D8000318BB0A0030BB07512AA030831203134C
:1004E800D200520883160313BC003C08FC000030FD
:1004F800FD000A128A15DA200A128A1106308312C0
:100508000313D4001330D300B130D200D20B8A2A9F
:10051800D30B8A2AD40B8A2A912A831203130C1329
:100528008C1EB22A2D30F1008030F2000A128A1592
:1005380094200A128A118130F1008030F2000A12E8
:100548008A1594200A128A110A128A1501200A12A1
:100558008A110A168A117E270A128A118312031336
:100568005908FF0058088A0057088400560E83006F
:10057800FE0E7E0E090083120313BE002B30B3005B
:100588003308B9000130AA07FF302A0784000A128D
:100598008A110A270A128A11B3003308C300C30854
:1005A8000319F62C4308253A0319E62A4308B30031
:1005B8003E0884003308831380000130B3003308F9
:1005C800BE07C62ABF01C001B8012A0884000A1262
:1005D8008A110A270A128A110A168A1196270A12FC
:1005E8008A11031C392B83120313BF01C0010A307F
:1005F800F0000030F100831203134008F301F30701
:100608003F08F201F2070A128A15B7200A128A1166
:10061800710883120313C001C0077008BF01BF0728
:100628002A0884000A128A110A270A128A11D03E5F
:10063800B300FF3003180030B4003308BF070318B5
:10064800C00A3408C0070130B3003308AA072A08D3
:1006580084000A128A110A270A128A110A168A11B4
:1006680096270A128A110318FB2A831203132A08F1
:1006780084000A128A110A270A128A112E3A031DC7
:10068800872B0130B3003308AA07C101C2012A0829
:1006980084000A128A110A270A128A110A168A1174
:1006A80096270A128A11031C932B831203134208FC
:1006B800F101F1074108F001F0070A30F2000030BB
:1006C800F3000A128A15B7200A128A11831203133B
:1006D8002A0884000A128A110A270A128A11700746
:1006E800B3000030031801307107B4003308D03E5E
:1006F800C10034080318013EFF3EC2000130B300B8
:100708003308AA074B2B83120313C101C201932B91
:100718003816932BC030B3003308B804AA2B013025
:1007280083120313AA07FF302A0784000A128A11CA
:100738000A270A128A11C300003A0319F62C6C3AE8
:1007480003198C2B193A03198E2BC62A381EBC2B79
:100758003908840083130008BA00840A0008BB0023
:10076800840A0008BC00840A0008BD000430CB2BB2
:100778003908840083130008B300840A0008B40011
:100788003308BA003408BB00BC01BD010230B30015
:100798003308B90742084104031DDE2B3D083C0419
:1007A8003B043A04031DDE2B0130C1070318C20ABB
:1007B8000030C207C301C30A43080A3A0319202CB0
:1007C8004308B30001300310B30DFF3E031DE72BB0
:1007D8000310330D013E84000A128A110A270A12F7
:1007E8008A11B4000A128A110A270A128A11B5005E
:1007F8000A128A110A270A128A11B6000A128A11E5
:100808000A270A128A11B70037083D02031D162C61
:1008180036083C02031D162C35083B02031D162C16
:1008280034083A02031C202C0130B3003308C307F4
:1008380043080A3A031DE42B4308B300B401B31B71
:10084800B4033408803AB5004208803A3502031DE3
:100858002F2C410833020318382C83120313410844
:10086800B3003308C300522C831203134308B300A8
:10087800B401B31BB4034208803AB5003408803A87
:100888003502031D492C330841020318522C8312E8
:1008980003134308C100C201C11BC203831203131F
:1008A8004308B300B401B31BB4033408803AB5005D
:1008B8004008803A3502031D632C3F0833020318B1
:1008C800732C831203134308B300B401B31BB4039E
:1008D8003308BF023408031CC003C002772C8312FC
:1008E8000313BF01C00140083F040319E72C20305F
:1008F800B3003E0884003308831380000130B3003E
:100908003308BE07FF30BF070318C00AFF30C0070F
:10091800772C0030A3000030A2000030A1000A307C
:10092800A0004108B30001300310B30DFF3E031DC2
:10093800982C0310330D013E84000A128A110A27ED
:100948000A128A11F0000A128A110A270A128A1159
:10095800F1000A128A110A270A128A11F2000A12F1
:100968008A110A270A128A11F3003D08F7003C0889
:10097800F6003B08F5003A08F4000A128A153324F9
:100988000A128A11730883120313A7007208A600BB
:100998007108A5007008A4000A128A1585220A1297
:1009A8008A11831203132008303EB4003408C300B0
:1009B8004308B3003E0884003308831380000130E5
:1009C800B3003308BE07FF30C1070318C20AFF305F
:1009D800C207FF304206031DF32CFF3041060319FE
:1009E800C62A8D2C3E0884008313800108007808ED
:1009F80083120313A0007908A1007A08A20003104B
:100A0800210D220DA3002308A6007B08A0007C0866
:100A1800A1007D08A2000310210D220DA3002308C8
:100A2800A50026080319242D2508260203182B2DB6
:100A38002603FF3A2507A00019302002031C2B2D9E
:100A48007B08F8007C08F9007D08FA0008002508F2
:100A5800031908002608250203183A2D2503FF3A32
:100A68002607A00019302002031808000630A0004D
:100A78002008A400FA1BA417FD1B2417F917FF3040
:100A8800F805FF30F9050030FA05FC17FF30FB05C3
:100A9800FF30FC050030FD052508260203187A2DD5
:100AA80001300310FB0DFC0DFD0DFF3E031D552D00
:100AB8000130A502250826060319752D0130A40268
:100AC800240807390319752D542D01300310FA0C29
:100AD800F90CF80CFF3E031D6A2D0130A000200818
:100AE800A607260825060319A32D692D2608250221
:100AF8000318A32D01300310F80DF90DFA0DFF3E70
:100B0800031D7F2D0130A6022508260603199F2DF7
:100B18000130A4022408073903199F2D7E2D0130C6
:100B28000310FD0CFC0CFB0CFF3E031D942D013043
:100B3800A0002008A50726082506031D932DA41F3D
:100B4800B52DFF30F806FF30F906FF30FA06013000
:100B5800F807003003180130F90700300318013096
:100B6800FA07241FC72DFF30FB06FF30FC06FF30B5
:100B7800FD060130FB07003003180130FC07003088
:100B880003180130FD07A4017808FB077908031151
:100B98000318790A031DFC077A08031103187A0A57
:100BA800031DFD07FD1FEA2DFF30FB06FF30FC0685
:100BB800FF30FD060130FB07003003180130FC0749
:100BC800003003180130FD07A401A40A7B08F000D7
:100BD8007C08F1007D08F2002608A0002008F30038
:100BE8002408A1002108F4000A128A15F7247008C5
:100BF800F8007108F9007208FA000800831203135C
:100C08002008A6002108A7002208A8000310270D25
:100C1800280DA9002908AA00AA08031D1A2E0030C9
:100C2800A0000030A1000030A20008002308A600A0
:100C38002408A7002508A8000310270D280DA900DF
:100C48002908AF00AF08031D302E0030A000003087
:100C5800A1000030A20008002F087B3EA60026084D
:100C6800AA072008A6002108A7002208A80010301B
:100C78000310A80CA70CA60CFF3E031D3C2E26084B
:100C8800A9002908AF002308A6002408A700250802
:100C9800A80010300310A80CA70CA60CFF3E031DDB
:100CA8004E2E2608A9002908AF068030A60026087F
:100CB800AF05A117A417FF30A305FF30A405003026
:100CC800A5050030AB000030AC000030AD000730A7
:100CD800A6002608AE00201C7F2E2308AB07240898
:100CE80003110318240A031DAC0725080311031870
:100CF800250A031DAD0701300310A20CA10CA00C9E
:100D0800FF3E031D802E01300310A30DA40DA50D79
:100D1800FF3E031D882E0130AE02031D6F2E0930E1
:100D2800A6002608AE00201CA72E2308AB0724081F
:100D380003110318240A031DAC072508031103181F
:100D4800250A031DAD0701300310A20CA10CA00C4D
:100D5800FF3E031DA82E01300310AD0CAC0CAB0CEC
:100D6800FF3E031DB02E0130AE02031D972E2B0847
:100D7800F0002C08F1002D08F2002A08A600260829
:100D8800F3002F08A7002708F4000A128A15F72491
:100D9800700883120313A0007108A1007208A20052
:100DA8000800F4008312031386126330F300F30B78
:100DB800DB2EDE2E74080319E52E83120313861624
:100DC800E82E8312031386120000831203130612FF
:100DD8007208F30004300310F30CFF3E031DEF2EDE
:100DE80073080A128A158A210A128A1172080F39A1
:100DF8000A128A158A210800FF1B0A2F83137F18FD
:100E080083170008840A0319FF0A080007308A00BC
:100E18000408840A820700340134003400340034A2
:100E28000A340034003400346434003400340034AC
:100E3800E8340334003400341034273400340034E8
:100E4800A034863401340034403442340F34003442
:100E580080349634983400340034E134F534053461
:100E68000034CA349A343B341C340C34013406340C
:100E78000A340D34203445346E34743472346F348B
:100E8800753420346E3461342034663475346E34ED
:100E9800633461346F342034643465342034493425
:100EA8006E34743465347234723475347034633427
:100EB80061346F342034643461342034553453340D
:100EC80041345234543400340A340D3420342D342F
:100ED8002D342D342D342D342D342D3420344534F7
:100EE800533454344F34553452344F34203444340A
:100EF80045342034503449344C3448344134203457
:100F08002D342D342D342D342D342D342D342034DE
:100F18000A340D34203400340A340D342034433478
:100F28006134723461346334743465347234203417
:100F380044346934673469347434613464346F34E4
:100F480020343A3400340C344C346F346134643413
:100F580069346E34673420345034493443342E3481
:100F68002E342E34003425346C3475342E34253424
:100F780036342E3436346C34753400344E34693497
:100F8800763465346C343A340034253400348316AE
:100F98000317940083120313861263308316031712
:100FA8009300930BD52FD82F831603171408031912
:100FB800E12F831203138616E42F8312031386127C
:100FC80000008312031306128316031712089300F6
:100FD80004300310930CFF3E031DED2F13080A1273
:100FE8008A1522230A128A118316031712080F3949
:080FF8000A128A1522230800E9
:101002008312031398180A281A08F3007308F400CD
:1010120019285930F1008030F2000A128A15942002
:101022008312031318121A08F3007308F400181637
:101032008C1274080800803083120313A9062A0850
:10104200F8002B08F9002C08FA002708FB002808F2
:10105200FC002908FD000A128A11FB247808831279
:101062000313A7007908A8007A08A90008008316CC
:10107200031797001508013A0319442840309600D7
:1010820016089800452898011708FF3E9600160892
:1010920098071808803896001608920000300A1245
:1010A2008A11CB2708008316031710089200920DAD
:1010B200920D920D831203131F0883160317120653
:1010C200C7391206831203139F00293083160317B0
:1010D2009200920B6A280000831203131F151F1D32
:1010E20008007028FD01F91F7D28F809F909F80A9E
:1010F2000319F90AFD01FD0A7808F0007908F100E8
:10110200F2018E30FB007B08F3007D08FC007C08B6
:10111200F4000A128A15F7247008F8007108F90021
:101122007208FA000800720883120313FF007108A4
:1011320084000A128A1100270A128A15003803193C
:101142000800720883120313FF00710884000A1258
:101152008A1100270A128A150A168A117E270A1294
:101162008A150130F1070318F20A9428F401F501F7
:10117200701CC1287208F4070318F50A7308F507F2
:1011820001300310F20DF30DFF3E031DC2280130A2
:101192000310F10CF00CFF3E031DC9287108700406
:1011A200031DB9287508F101F1077408F001F00771
:1011B20008007D0883120313FF007C0884000A12D2
:1011C2008A1100270A128A150038031908007D08BF
:1011D20083120313FF007C0884000A128A1100277D
:1011E2000A128A150A128A15C3210A128A150130B7
:1011F200FC070318FD0ADA288E30FC007C08FD008B
:10120200FF307B050319132901300310FB0CFA0C84
:10121200F90CF80CFF3E031D06290130FC007C0886
:10122200FD0701297808F0007908F1007A08F20038
:101232007D08FC007C08F300F4010A128A15F724E9
:101242007008F8007108F9007208FA0008008316A5
:101252000317120883120313FF00831603171108E2
:101262008400831203130A128A1100270A128A15B4
:101272000038031908008316031712088312031398
:10128200FF008316031711088400831203130A1246
:101292008A1100270A128A150A168A11A4270A122D
:1012A2008A1501308316031791070318920A282919
:1012B200831603171D0883120313FF0083160317F7
:1012C2001C088400831203130A128A1100270A12CF
:1012D2008A15003803190800831603171D088312A4
:1012E2000313FF00831603171C08840083120313E1
:1012F2000A128A1100270A128A150A128A153E2238
:101302000A128A150130831603179C0703189D0AD7
:101312005929F100003071180130F00083120313D3
:1013220006087006FE39700686000030F11801309A
:10133200F000F00D06087006FD39700686000030D8
:1013420071190130F000F00DF00D06087006FB393E
:10135200700686000030F1190130F000F00DF00D3A
:10136200F00D06087006F739700686000000831239
:10137200031306160330F000F00BBD29831203138A
:1013820006120800FB00F229F201F20A00300A12EA
:101392008A11D5260A128A150D30FA00FB30F9009F
:1013A200F90BD129FA0BD129D62908000230F9000C
:1013B2007908F50001300A168A11E6270800103074
:1013C200F9007908F20000300A128A11D5260800C5
:1013D2007B08F9007908F20001300A128A11D52639
:1013E20008007B08083A0319E029023A0319D729B1
:1013F200063A0319C529E929080083160317920141
:10140200920A00300A128A11CB270A128A15413039
:10141200831603179600EE309500950B0E2A960B55
:101422000E2A00000C30831603179500150892004F
:1014320000300A128A11CB270A128A15F930831654
:10144200031795000000950B232A272A0000063077
:101452008316031795001508920000300A128A11AC
:10146200CB270A128A15F93083160317950000005C
:10147200950B382A3C2A00000800831603179B00AC
:10148200772A9201920A00300A128A11CB270A1295
:101492008A150D30831603179A00FB309900990BB9
:1014A200502A9A0B502A552A080002308316031735
:1014B20099001908950001300A128A15382008008F
:1014C20010308316031799001908920000300A128F
:1014D2008A11CB270800831603171B0899001908E5
:1014E200920001300A128A11CB27080083160317D3
:1014F2001B08083A0319612A023A0319562A063AC6
:101502000319422A6C2A08008312031323082204B7
:10151200210420040319CA2AA901A90AA31B9F2A8C
:101522000130A8000310A00DA10DA20DA30DA80B60
:10153200932A0130A8002808A9078F2A2308270226
:10154200031DAD2A22082602031DAD2A2108250209
:10155200031DAD2A20082402031CBD2A2008A40270
:101562002108031C210FA5022208031C220FA60238
:101572002308031C230FA70201300310A30CA20CA3
:10158200A10CA00CFF3E031DBE2A0130A902031DBF
:101592009F2A2708A3002608A2002508A1002408E4
:1015A200A000080083120313A101FC1FDF2AFB091C
:1015B200FC09FB0A0319FC0AA101A10AFA1FE62A87
:1015C200F909FA09F90A0319FA0A7A0879040319D6
:1015D200132BA001A00AFA1BFA2A01300310F90DFD
:1015E200FA0DFF3E031DEF2A0130FD007D08A00722
:1015F200EC2A7A087C02031D002B79087B02031C6B
:10160200082B7908FB027A08031CFC03FC02013058
:101612000310FA0CF90CFF3E031D092B0130A00246
:10162200031DFA2A210803191B2BFB09FC09FB0ADB
:101632000319FC0A7C08FA01FA077B08F901F90789
:101642000800831603179100003011180130900032
:10165200831203130608831603171006FE391006B9
:10166200831203138600003083160317911801308A
:101672009000900D831203130608831603171006B9
:10168200FD391006831203138600003083160317F8
:10169200111901309000900D900D8312031306086A
:1016A200831603171006FB391006831203138600F4
:1016B200003083160317911901309000900D900DA0
:1016C200900D831203130608831603171006F739C9
:1016D20010068312031386000000831203130616FA
:1016E2000330831603179000900B752B831203139C
:1016F20006120800F601F11F852BF009F109F00A24
:101702000319F10AF601F60AF31F902BF209F30905
:10171200F20A0319F30A0130F4007408F606F7011D
:10172200F801710870040319C72BF501F50AF11BC2
:10173200A62B01300310F00DF10DFF3E031D9B2B74
:101742000130F4007408F507982B01300310F70DEF
:10175200F80DFF3E031DA72B71087302031DB32B67
:1017620070087202031CBC2B7008F2027108031C81
:10177200F303F302771401300310F10CF00CFF3E77
:10178200031DBD2B0130F502031DA62B760803199C
:10179200CF2BF709F809F70A0319F80A7808F101BB
:1017A200F1077708F001F0070800F21FFD2B003067
:1017B200F6000030F7008030F8007009F900710976
:1017C200FA007209FB00F90A0319FA0A0319FB0A63
:1017D2007908F6077A0803187A0FF02BF12BF7072E
:1017E2007B0803187B0FF62BF72BF8077608F0001F
:1017F2007708F1007808F200F51F242C0030F6007B
:101802000030F7008030F8007309F9007409FA001B
:101812007509FB00F90A0319FA0A0319FB0A790888
:10182200F6077A0803187A0F172C182CF7077B088B
:1018320003187B0F1D2C1E2CF8077608F30077087F
:10184200F4007808F5008030F2068030F50675085D
:101852007202031D080074087102031D0800730858
:10186200700208000030FC000030FB000030FA007B
:101872000030F90073087204710470040319882C93
:10188200FD01FD0AF31B532C0130F8000310F00D8B
:10189200F10DF20DF30DF80B472C0130F80078082A
:1018A200FD07432C0130F8000310F90DFA0DFB0D72
:1018B200FC0DF80B552C73087702031D6A2C720875
:1018C2007602031D6A2C71087502031D6A2C7008CA
:1018D2007402031C7B2C7008F4027108031C710F44
:1018E200F5027208031C720FF6027308031C730FD1
:1018F200F702791401300310F30CF20CF10CF00C26
:10190200FF3E031D7C2C0130FD02031D532C7C087D
:10191200F3007B08F2007A08F1007908F000080071
:1019220083160313061286128312031306128612FB
:1019320083160313061086100611861183120313F1
:101942000610861006118611623083160317960060
:1019520065309500950BAB2C960BAB2CB02C8316F7
:1019620003179701033017020318D22C03300A120F
:101972008A1522230A128A1521308316031796002C
:1019820076309500950BC32C960BC32C00000130CA
:101992008316031795001508970703301702031CD7
:1019A200B72C02300A128A1522230A128A158316CC
:1019B2000317970104301702031808001708293E7D
:1019C20084000A128A110A270A128A15950015083C
:1019D200920000300A128A11CB270A128A150130AE
:1019E20083160317950015089707DB2C7308031954
:1019F200FF2C720871047004031D122D0030F000D8
:101A02000030F1000030F20008000130F5007508E6
:101A1200F30701300310F20CF10CF00CFF3E031D32
:101A22000B2DFE30720503192D2D062D0130F50008
:101A32007508F3070130F007003003180130F10791
:101A4200003003180130F20701300310F20CF10CE0
:101A5200F00CFF3E031D262DFF30720503193C2DAD
:101A6200172D0130F30201300310F00DF10DF20DCC
:101A7200FF3E031D352DF11F322D7318462DFF3009
:101A8200F0057F30F105FF30F2050310F30C730807
:101A9200F500F601F70110300310F50DF60DF70D04
:101AA200FF3E031D4D2D7508F0047608F1047708FA
:101AB200F204740803190800F217080083120313D2
:101AC2003008B4003108B5003208B6000310350DF5
:101AD200360DB7003708BD00BD08031D792D003053
:101AE200B3000030B2000030B1000030B000080096
:101AF2003008B4003108B5003208B60017300310C0
:101B0200B60CB50CB40CFF3E031D802D3408B70093
:101B12003708B800B117FF30B005FF30B10500300B
:101B2200B2053008B9003108BA003208BB00BC0166
:101B32008E30BD02BD1FBB2D3D08803A8F3E03187B
:101B4200AB2D0030B3000030B2000030B1000030E5
:101B5200B000080001300310BC0CBB0CBA0CB90C6D
:101B6200FF3E031DAC2D0130B4003408BD0703193C
:101B7200D62DAB2D18303D02031CD32D0030B300FF
:101B82000030B2000030B1000030B0000800013077
:101B9200B4000310B90DBA0DBB0DBC0DB40BCA2DA8
:101BA2000130BD02BD08031DC82D38080319E42DFC
:101BB200B909BA09BB09BC09B90A0319BA0A031956
:101BC200BB0A0319BC0A3C08B3003B08B2003A083E
:101BD200B1003908B0000800FF30831603138500F6
:101BE20083120313051083160313081183120313C0
:101BF20008158316031388118312031388118316A1
:101C0200031307148714071587158312031387110B
:101C1200333083160317A000BC309F0010309E00A3
:101C22009E0B112E9F0B112EA00B112E0A128A153C
:101C320091240A128A15333083160317A000BC3090
:101C42009F0010309E009E0B242E9F0B242EA00B73
:101C5200242E0B178B171A3083160317A0005E3041
:101C62009F0086309E009E0B342E9F0B342EA00BBD
:101C7200342E00000A168A11D3270A128A159830C8
:101C8200831603179C0080309D000A128A15592181
:101C92000A128A1598308316031791008030920039
:101CA2000A128A1528210A128A157F308316031711
:101CB200A000D4309F00AE309E009E0B5E2E9F0B84
:101CC2005E2EA00B5E2E652E0A128A15FE210A12C6
:101CD2008A150030831603179000003091000A1213
:101CE2008A1554200A128A15083083160317A00099
:101CF2009D309F000B309E009E0B7D2E9F0B7D2EF4
:101D0200A00B7D2E842E8312031387198B2E6A2E2D
:101D120008158811871D6A2E892E83120313330832
:101D2200B6003408B7003508B8000310370D380D77
:101D3200B9003908BE00BE08031DA62E0030B0004F
:101D42000030B1000030B20008003008B60031089F
:101D5200B7003208B8000310370D380DB900390842
:101D6200BF00BF08031DBC2E0030B0000030B10020
:101D72000030B20008000030BB000030BC00003070
:101D8200BD0089303F07B6003608BE023308B600F0
:101D92003408B7003508B80010300310B80CB70C7F
:101DA200B60CFF3E031DCE2E3608B9003908BF001F
:101DB2003008B6003108B7003208B80010300310FE
:101DC200B80CB70CB60CFF3E031DE02E3608B90066
:101DD2003908BF068030B6003608BF05B417FF3099
:101DE200B305FF30B4050030B505B117FF30B005BB
:101DF200FF30B1050030B2051830B6003608BA001F
:101E020001300310BB0DBC0DBD0DFF3E031D022FA3
:101E120032083502031D132F31083402031D132F1C
:101E220030083302031C202F3008B3023108031C90
:101E3200310FB4023208031C320AB5023B140130DE
:101E42000310B30DB40DB50DFF3E031D212F01305C
:101E5200BA02031D012F3B08F0003C08F1003D08C7
:101E6200F2003E08B6003608F3003F08B700370814
:101E7200F4000A128A15F724700883120313B000C3
:101E82007108B1007208B20008005A3083120313BD
:101E9200C8004808D1004408F0004508F10046088F
:101EA200F2000030F3000030F4000030F5000A12B6
:101EB2008A15D6230A128A1503187F2F2D30831212
:101EC2000313C800510884004808831380000130BE
:101ED200C8004808D1074408F0004508F100460848
:101EE200F2000A168A1186270A128A1570088312CE
:101EF2000313C4007108C5007208C60083120313DD
:101F02004408B0004508B1004608B2000A128A151A
:101F12005F250A128A15831203133308D000320890
:101F2200CF003108CE003008CD005008FB004F082A
:101F3200FA004E08F9004D08F8000A128A15FD2031
:101F42000A128A15780883120313A7007908A800D9
:101F52007A08A9004408AA004508AB004608AC006C
:101F62000A128A151C200A128A15831203132708E3
:101F7200C4002808C5002908C6004408A300450873
:101F8200A4004608A5002430A0007430A100493006
:101F9200A2000A128A1102260A128A158312031358
:101FA2002008B0002108B1002208B2000A128A15E6
:101FB2005F250A128A15831203133308CC003208F4
:101FC200CB003108CA003008C900A830C800480850
:101FD200AA005008AE004F08AD004E08AC004D08F4
:101FE200AB004C08B2004B08B1004A08B0004908E7
:0E1FF200AF0051080A128A11BF225A300800AF
:102EF800FF34FF34F000831203130C1E7F2F700879
:102F080099000800720871047004031908008030E1
:102F1800F206080064008001840A040603190034DC
:102F280004068F2FF100F0013A3071020318A22F26
:102F380030307102031CA22FF001F00A700C080057
:102F4800831603179000831203130C1EA72F8316F2
:102F58000317100883120313990008002034203443
:102F680020342034203420342034203420342034B9
:102F78002034203420342034203420347E088A0041
:102F88007F088200C2270A168A118000840A040872
:102F98007D0603190034FF0A0319FE0AC62F83169B
:102FA80003139F179F111F119F101F1083120313E4
:102FB8009F171F131F14831603130C178312031371
:102FC8000C130800F7007508013A0319F02F403078
:102FD800F6007608F800F12FF8017708FF3EF600B2
:102FE8007608F80778088038F6007608F20000308E
:082FF8000A128A11D526080017
:02400E0072FF3F
:00000001FF
