:060000000A128A11122809
:10000800FE00030E83120313D4000408D5000A0867
:10001800D6007F08D7000A128A11712A0A128A119B
:1000280015288313673084006F300A168A11512609
:100038000A128A11BE308400D5300A168A11512658
:100048000A128A11E530FD001630FE007F30FF00ED
:10005800D53084000A168A11932683010A168A115C
:10006800592E83120313BE002B30B3003308B90096
:100078000130AA07FF302A0784000A128A150A20CD
:100088000A128A11B3003308C300C30803196C2A83
:100098004308253A03195C284308B3003E08840046
:1000A8003308831380000130B3003308BE073C28AF
:1000B800BF01C001B8012A0884000A128A150A2063
:1000C8000A128A110A168A1171260A128A11031C49
:1000D800AF2883120313BF01C0010A30F0000030BB
:1000E800F100831203134008F301F3073F08F201FC
:1000F800F2070A168A1164270A128A1171088312F4
:100108000313C001C0077008BF01BF072A08840095
:100118000A128A150A200A128A11D03EB300FF304B
:1001280003180030B4003308BF070318C00A3408A6
:10013800C0070130B3003308AA072A0884000A124E
:100148008A150A200A128A110A168A1171260A12B9
:100158008A1103187128831203132A0884000A12CB
:100168008A150A200A128A112E3A031DFD28013029
:10017800B3003308AA07C101C2012A0884000A1281
:100188008A150A200A128A110A168A1171260A1279
:100198008A11031C0929831203134208F101F1078C
:1001A8004108F001F0070A30F2000030F3000A16A7
:1001B8008A1164270A128A11831203132A088400F9
:1001C8000A128A150A200A128A117007B300003031
:1001D800031801307107B4003308D03EC100340859
:1001E8000318013EFF3EC2000130B3003308AA07DE
:1001F800C12883120313C101C2010929381609292C
:10020800C030B3003308B804202901308312031327
:10021800AA07FF302A0784000A128A150A200A1240
:100228008A11C300003A03196C2A6C3A031902298F
:10023800193A031904293C28381E32293908840040
:1002480083130008BA00840A0008BB00840A000867
:10025800BC00840A0008BD00043041293908840024
:1002680083130008B300840A0008B4003308BA00F6
:100278003408BB00BC01BD010230B3003308B90724
:1002880042084104031D54293D083C043B043A0438
:10029800031D54290130C1070318C20A0030C207E0
:1002A800C301C30A43080A3A031996294308B3004D
:1002B80001300310B30DFF3E031D5D290310330DFC
:1002C800013E84000A128A150A200A128A11B40013
:1002D8000A128A150A200A128A11B5000A128A150A
:1002E8000A200A128A11B6000A128A150A200A126E
:1002F8008A11B70037083D02031D8C2936083C02D5
:10030800031D8C2935083B02031D8C2934083A0249
:10031800031C96290130B3003308C30743080A3A7F
:10032800031D5A294308B300B401B31BB4033408AE
:10033800803AB5004208803A3502031DA5294108D4
:1003480033020318AE29831203134108B30033089C
:10035800C300C829831203134308B300B401B31BB5
:10036800B4034208803AB5003408803A3502031DC8
:10037800BF29330841020318C8298312031343080D
:10038800C100C201C11BC203831203134308B30097
:10039800B401B31BB4033408803AB5004008803A6E
:1003A8003502031DD9293F0833020318E9298312AE
:1003B80003134308B300B401B31BB4033308BF02EB
:1003C8003408031CC003C002ED2983120313BF01C4
:1003D800C00140083F0403195D2A2030B3003E08DD
:1003E80084003308831380000130B3003308BE074C
:1003F800FF30BF070318C00AFF30C007ED290030DF
:10040800A3000030A2000030A1000A30A00041087B
:10041800B30001300310B30DFF3E031D0E2A031075
:10042800330D013E84000A128A150A200A128A1125
:10043800F0000A128A150A200A128A11F1000A121B
:100448008A150A200A128A11F2000A128A150A204D
:100458000A128A11F3003D08F7003C08F6003B0831
:10046800F5003A08F4000A128A15B1230A128A1113
:10047800730883120313A7007208A6007108A50069
:100488007008A4000A128A15AD220A128A11831272
:1004980003132008303EB4003408C3004308B300F7
:1004A8003E0884003308831380000130B30033080A
:1004B800BE07FF30C1070318C20AFF30C207FF306A
:1004C8004206031D692AFF30410603193C28032A06
:1004D8003E0884008313800108000C1F7C2B1E0833
:1004E800E801E807831603131E0883120313E701C4
:1004F800E7070030A000A030A1003B30A200680848
:10050800F901F9076708F801F8070A168A11202780
:100518000A128A11780883120313A3007908A40029
:100528007A08A5000A128A11A6240A128A118312CF
:1005380003132008E0002108E1002208E200600817
:10054800C4006108C5006208C6005E30D2005208C7
:10055800C7000A128A1179250A128A118312031315
:10056800D3005308D800F501F50A00300A168A119D
:10057800B3260A128A117630FC008030FD000A1674
:100588008A1187270A128A11F501F50A07300A1617
:100598008A11B3260A128A11003083120313B0009D
:1005A8008030B1003F30B2000030A000C830A10058
:1005B8004230A2006008A3006108A4006208A500F8
:1005C8000A128A11A6240A128A1183120313200818
:1005D800B3002108B4002208B5000A128A11332694
:1005E8000A128A11831203133008E3003108E40069
:1005F8003208E5006308C4006408C5006508C60041
:100608005E30D2005208C7000A128A1179250A12F0
:100618008A1183120313D3005308E6006608FC000E
:100628000030FD000A168A1187270A128A11F5017F
:10063800F50A10300A168A11B3260A128A117D307B
:10064800FC008030FD000A168A1187270A128A11D9
:10065800F50100300A168A11B3260A128A11D7301A
:1006680083120313A0002330A1003E30A2006308C8
:10067800A3006408A4006508A5000A128A11A6242C
:100688000A128A11831203132008D9002108DA00FC
:100698002208DB005908B0005A08B1005B08B20014
:1006A8000A128A1540260A128A1183120313310886
:1006B800DD01DD073008DC01DC0766080A128A154F
:1006C8009B210A128A11831203135D08A101A10755
:1006D8005C08A001A0070A128A1561220A128A1171
:1006E8000A128A15C7250A128A11831203130C13DA
:1006F8008C1E922B0A168A11CD260A128A110A1606
:100708008A1141260A128A110A168A11CD260A125E
:100718008A110A128A155D270A128A118312031395
:100728005708FF0056088A0055088400540E8300B5
:10073800FE0E7E0E0900780883120313A0007908C4
:10074800A1007A08A2000310210D220DA30023089E
:10075800A6007B08A0007C08A1007D08A200031069
:10076800210D220DA3002308A50026080319C82B74
:10077800250826020318CF2B2603FF3A2507A000D9
:1007880019302002031CCF2B7B08F8007C08F900E5
:100798007D08FA0008002508031908002608250224
:1007A8000318DE2B2503FF3A2607A0001930200284
:1007B800031808000630A0002008A400FA1BA4179C
:1007C800FD1B2417F917FF30F805FF30F905003035
:1007D800FA05FC17FF30FB05FF30FC050030FD056E
:1007E8002508260203181E2C01300310FB0DFC0DF2
:1007F800FD0DFF3E031DF92B0130A5022508260635
:100808000319192C0130A402240807390319192CDB
:10081800F82B01300310FA0CF90CF80CFF3E031DFD
:100828000E2C0130A0002008A6072608250603196B
:10083800472C0D2C260825020318472C01300310DD
:10084800F80DF90DFA0DFF3E031D232C0130A60209
:10085800250826060319432C0130A4022408073969
:100868000319432C222C01300310FD0CFC0CFB0C4B
:10087800FF3E031D382C0130A0002008A5072608DC
:100888002506031D372CA41F592CFF30F806FF300E
:10089800F906FF30FA060130F80700300318013076
:1008A800F907003003180130FA07241F6B2CFF30BA
:1008B800FB06FF30FC06FF30FD060130FB07003069
:1008C80003180130FC07003003180130FD07A401AC
:1008D8007808FB07790803110318790A031DFC0738
:1008E8007A08031103187A0A031DFD07FD1F8E2CD1
:1008F800FF30FB06FF30FC06FF30FD060130FB072A
:10090800003003180130FC07003003180130FD07E0
:10091800A401A40A7B08F0007C08F1007D08F2001D
:100928002608A0002008F3002408A1002108F400EC
:100938000A128A1196277008F8007108F9007208DF
:10094800FA000800831203132008A6002108A70054
:100958002208A8000310270D280DA9002908AA00BD
:10096800AA08031DBE2C0030A0000030A1000030F2
:10097800A20008002308A6002408A7002508A8004C
:100988000310270D280DA9002908AF00AF08031D83
:10099800D42C0030A0000030A1000030A2000800D4
:1009A8002F087B3EA6002608AA072008A6002108D3
:1009B800A7002208A80010300310A80CA70CA60C4A
:1009C800FF3E031DE02C2608A9002908AF002308D4
:1009D800A6002408A7002508A80010300310A80CBA
:1009E800A70CA60CFF3E031DF22C2608A900290817
:1009F800AF068030A6002608AF05A117A417FF3060
:100A0800A305FF30A4050030A5050030AB00003079
:100A1800AC000030AD000730A6002608AE00201C50
:100A2800232D2308AB07240803110318240A031DE8
:100A3800AC07250803110318250A031DAD0701306B
:100A48000310A20CA10CA00CFF3E031D242D0130A5
:100A58000310A30DA40DA50DFF3E031D2C2D013081
:100A6800AE02031D132D0930A6002608AE00201C77
:100A78004B2D2308AB07240803110318240A031D70
:100A8800AC07250803110318250A031DAD0701301B
:100A98000310A20CA10CA00CFF3E031D4C2D01302D
:100AA8000310AD0CAC0CAB0CFF3E031D542D0130F4
:100AB800AE02031D3B2D2B08F0002C08F1002D0879
:100AC800F2002A08A6002608F3002F08A700270826
:100AD800F4000A128A119627700883120313A000E3
:100AE8007108A1007208A2000800C4308312031321
:100AF800C8004808D1004408F0004508F10046083D
:100B0800F2000030F3000030F4000030F5000A1263
:100B18008A1554230A128A110318B22D2D30831214
:100B28000313C8005108840048088313800001306B
:100B3800C8004808D1074408F0004508F1004608F5
:100B4800F2000A168A1149260A128A1170088312BD
:100B58000313C4007108C5007208C600831203138A
:100B68004408B0004508B1004608B2000A128A15C8
:100B780040260A128A11831203133308D000320860
:100B8800CF003108CE003008CD005008FB004F08D8
:100B9800FA004E08F9004D08F8000A168A11AA272B
:100BA8000A128A11780883120313A7007908A8008B
:100BB8007A08A9004408AA004508AB004608AC001A
:100BC8000A168A11E8260A128A11831203132708C3
:100BD800C4002808C5002908C6004408A300450821
:100BE800A4004608A5002430A0007430A1004930B4
:100BF800A2000A128A11A6240A128A118312031368
:100C08002008B0002108B1002208B2000A128A1593
:100C180040260A128A11831203133308CC003208C3
:100C2800CB003108CA003008C9006B30C80048083A
:100C3800AA005008AE004F08AD004E08AC004D08A1
:100C4800AB004C08B2004B08B1004A08B000490894
:100C5800AF0051080A128A113520C43008008312E7
:100C680003133308B6003408B7003508B80003107A
:100C7800370D380DB9003908BE00BE08031D4B2ECC
:100C88000030B0000030B1000030B2000800300879
:100C9800B6003108B7003208B8000310370D380D18
:100CA800B9003908BF00BF08031D612E0030B0002D
:100CB8000030B1000030B20008000030BB00003046
:100CC800BC000030BD0089303F07B6003608BE02C0
:100CD8003308B6003408B7003508B80010300310E0
:100CE800B80CB70CB60CFF3E031D732E3608B900BE
:100CF8003908BF003008B6003108B7003208B8001C
:100D080010300310B80CB70CB60CFF3E031D852E2F
:100D18003608B9003908BF068030B6003608BF0566
:100D2800B417FF30B305FF30B4050030B505B1176F
:100D3800FF30B005FF30B1050030B2051830B600FD
:100D48003608BA0001300310BB0DBC0DBD0DFF3EC7
:100D5800031DA72E32083502031DB82E31083402B0
:100D6800031DB82E30083302031CC52E3008B30209
:100D78003108031C310FB4023208031C320AB502D1
:100D88003B1401300310B30DB40DB50DFF3E031D28
:100D9800C62E0130BA02031DA62E3B08F0003C08FF
:100DA800F1003D08F2003E08B6003608F3003F089F
:100DB800B7003708F4000A128A11962770088312C0
:100DC8000313B0007108B1007208B200080083165E
:100DD8000313A200313084000A128A150A200A126D
:100DE8008A11A10022082106031D092F831203136B
:100DF80008118815313084000A128A150A200A124F
:100E08008A110A168A11642608002E3084000A12F4
:100E18008A150A200A128A1183160313A1002208D0
:100E28002106031D262F83120313081588112E305F
:100E380084000A128A150A200A128A110A168A11CF
:100E480064260800323084000A128A150A200A1221
:100E58008A1183160313A10022082106031D422FBD
:100E6800831203130816323084000A128A150A20E6
:100E78000A128A110A168A11642608002F30840083
:100E88000A128A150A200A128A1183160313A1006E
:100E980022082106031D5E2F8312031308122F3028
:100EA80084000A128A150A200A128A110A168A115F
:100EB80064260800303084000A128A150A200A12B3
:100EC8008A1183160313A10022082106031D7B2F14
:100ED8000130BE000030BF00303084000A128A158D
:100EE8000A200A128A110A168A11642608002D306F
:100EF80084000A128A150A200A128A11831603131B
:100F0800A10022082106031D0800BE01BF012D30E3
:100F180084000A128A150A200A128A110A168A11EE
:100F280064260800730803199E2F72087104700460
:100F3800031DB12F0030F0000030F1000030F20046
:100F480008000130F5007508F30701300310F20CB2
:100F5800F10CF00CFF3E031DAA2FFE307205031999
:100F6800CC2FA52F0130F5007508F3070130F007E5
:100F7800003003180130F107003003180130F20780
:100F880001300310F20CF10CF00CFF3E031DC52FCD
:100F9800FF3072050319DB2FB62F0130F302013041
:100FA8000310F00DF10DF20DFF3E031DD42FF11FBC
:100FB800D12F7318E52FFF30F0057F30F105FF3092
:100FC800F2050310F30C7308F500F601F701103071
:100FD8000310F50DF60DF70DFF3E031DEC2F7508F8
:100FE800F0047608F1047708F2047408031908007D
:040FF800F2170800E4
:10100000FF1B0A2883137F1883170008840A03191B
:10101000FF0A080008308A000408840A82070034A6
:1010200001340034003400340A3400340034003415
:101030006434003400340034E834033400340034C1
:101040001034273400340034A034863401340034A2
:10105000403442340F3400348034963498340034B1
:101060000034E134F53405340034CA349A343B3466
:101070001C340C34013406346C3462346D344C341A
:1010800042344D340A340D3420342D342D342D3473
:101090002D342D342D342D342034453453345434F0
:1010A0004F34553452344F34203444344534203492
:1010B000503449344C344834413420342D342D34A8
:1010C0002D342D342D342D342D3420340A340D3468
:1010D000203400340C344C346F346134643469345B
:1010E0006E34673420345034493443342E342E3433
:1010F0002E34003425346C3475342E342534363493
:101100002E3436346C34753400344E3469347634CD
:0C11100065346C343A340034253400346B
:10112800831603132008A200A20DA20DA20D83129C
:1011380003131F08831603132206C73922068312D6
:1011480003139F0083160313210883120313EE0170
:10115800EE0783160313200883120313ED01ED072E
:10116800293083160313A200A20BB82800008312AB
:1011780003131F151F1D0800BE28831603132D080F
:1011880083120313FF00831603132C0884008312B1
:1011980003130A128A1500200A128A150038031947
:1011A8000800831603132D0883120313FF00831608
:1011B80003132C088400831203130A128A150020D3
:1011C8000A128A150A128A151A220A128A15013079
:1011D80083160313AC070318AD0AC128831603133B
:1011E800A400831203138612633083160313A3002B
:1011F800A30BFC28FF2883160313240803190829C6
:101208008312031386160B29831203138612000018
:10121800831203130612831603132208A300043053
:101228000310A30CFF3E031D142923080A128A1574
:10123800FB220A128A158316031322080F390A1291
:101248008A15FB220800F100003071180130F00007
:101258008312031306087006FE39700686000030F4
:10126800F1180130F000F00D06087006FD3970061F
:101278008600003071190130F000F00DF00D0608FD
:101288007006FB39700686000030F1190130F00055
:10129800F00DF00DF00D06087006F739700686009F
:1012A80000008312031306160330F000F00B5A29CE
:1012B8008312031306120800FB008F29F201F20AB9
:1012C80000300A168A11D5270A128A150D30FA003D
:1012D800FB30F900F90B6E29FA0B6E297329080007
:1012E8000230F9007908F50001300A168A11B32690
:1012F80008001030F9007908F20000300A168A1147
:10130800D52708007B08F9007908F20001300A1691
:101318008A11D52708007B08083A03197D29023A63
:1013280003197429063A03196229862908008312C9
:101338000313C900CA01CB0149088400831380083C
:101348000319CE294B084A04031DB9296E086D04F8
:10135800031DB0295330B1294930F3004A08203E13
:101368008400730883138000C72949088400831305
:101378000008F3004A08203E84007308800001300A
:10138800F3007308C9070130CA070318CB0A0030F5
:10139800CB07A0292030F3007308C8004808F100E3
:1013A8000030F2000A168A11412708008316031339
:1013B800A201A20A00300A128A15F2200A128A151E
:1013C800413083160313A600EE30A500A50BEA29C9
:1013D800A60BEA2900000C3083160313A500250884
:1013E800A20000300A128A15F2200A128A15F93072
:1013F80083160313A5000000A50BFF29032A00008C
:10140800063083160313A5002508A20000300A122F
:101418008A15F2200A128A15F93083160313A500DB
:101428000000A50B142A182A0000080083160313CD
:10143800AB00532AA201A20A00300A128A15F22030
:101448000A128A150D3083160313AA00FB30A9006F
:10145800A90B2C2AAA0B2C2A312A08000230831641
:101468000313A9002908A50001300A168A110427C8
:101478000800103083160313A9002908A2000030C1
:101488000A128A15F2200800831603132B08A900F4
:101498002908A20001300A128A15F22008008316D2
:1014A80003132B08083A03193D2A023A0319322A72
:1014B800063A03191E2A482A080083120313B601A4
:1014C800B70126308400D530A2000408A3001030EC
:1014D800A4002208840083130008A500A20A230898
:1014E800840025088000A30AA40B6D2AA11B902A5A
:1014F800FF30A2003608263E840022088000FF3014
:10150800A0070318A10AFF30A1070130B607031886
:10151800B70A0030B7077A2A2630A2002208B80096
:101528003808FC000030FD000A168A1187270A12C5
:101538008A15063083120313A4001330A300B130B8
:10154800A200A20BA52AA30BA52AA40BA52AAC2AA4
:10155800080083120313230822042104200403191A
:10156800F22AA901A90AA31BC72A0130A80003105F
:10157800A00DA10DA20DA30DA80BBB2A0130A80038
:101588002808A907B72A23082702031DD52A2208F5
:101598002602031DD52A21082502031DD52A200865
:1015A8002402031CE52A2008A4022108031C210F99
:1015B800A5022208031C220FA6022308031C230FDE
:1015C800A70201300310A30CA20CA10CA00CFF3E33
:1015D800031DE62A0130A902031DC72A2708A30014
:1015E8002608A2002508A1002408A00008008316E8
:1015F8000313A100003021180130A0008312031347
:101608000608831603132006FE39200683120313E7
:101618008600003083160313A1180130A000A00D26
:10162800831203130608831603132006FD392006C8
:101638008312031386000030831603132119013027
:10164800A000A00DA00D8312031306088316031330
:101658002006FB3920068312031386000030831608
:101668000313A1190130A000A00DA00DA00D831235
:1016780003130608831603132006F739200683127E
:101688000313860000008312031306160330831623
:101698000313A000A00B4E2B83120313061208009D
:1016A800F21F7B2B0030F6000030F7008030F80086
:1016B8007009F9007109FA007209FB00F90A0319A7
:1016C800FA0A0319FB0A7908F6077A0803187A0F49
:1016D8006E2B6F2BF7077B0803187B0F742B752B6A
:1016E800F8077608F0007708F1007808F200F51F8F
:1016F800A22B0030F6000030F7008030F8007309A4
:10170800F9007409FA007509FB00F90A0319FA0AC5
:101718000319FB0A7908F6077A0803187A0F952B3C
:10172800962BF7077B0803187B0F9B2B9C2BF8073E
:101738007608F3007708F4007808F5008030F206A0
:101748008030F50675087202031D080074087102DE
:10175800031D08007308700208000030FC00003008
:10176800FB000030FA000030F900730872047104BD
:1017780070040319062CFD01FD0AF31BD12B01305F
:10178800F8000310F00DF10DF20DF30DF80BC52B59
:101798000130F8007808FD07C12B0130F80003106C
:1017A800F90DFA0DFB0DFC0DF80BD32B730877021E
:1017B800031DE82B72087602031DE82B71087502D9
:1017C800031DE82B70087402031CF92B7008F4023F
:1017D8007108031C710FF5027208031C720FF602E0
:1017E8007308031C730FF702791401300310F30C0C
:1017F800F20CF10CF00CFF3E031DFA2B0130FD0238
:10180800031DD12B7C08F3007B08F2007A08F10055
:101818007908F000080083160313B901BA013408E7
:101828003304031D292C2F08B5003008B6003108F1
:10183800B7003208B80006300310B50DB60DB70D65
:10184800B80DFF3E031D202C3A2C2F08B500300898
:10185800B6003108B7003208B80004300310B50DDF
:10186800B60DB70DB80DFF3E031D322C3808A30086
:101878003708A2003608A1003508A0000130A700EB
:101888003130A6002D30A5000030A4000A128A15B8
:10189800CE26831603132008FF3EB900210803183B
:1018A800013EFF3EBA003908990098171813981698
:1018B80018123308031D1815031918119814181055
:1018C80083120313981718139812181698111811E1
:1018D80098101810831603138C16831203138C1296
:1018E80008008316031306128612831203130612C6
:1018F80086128316031306108610061186118312AA
:10190800031306108610061186116230831603131E
:10191800A6006530A500A50B8F2CA60B8F2C942C48
:1019280083160313A701033027020318B62C0330CC
:101938000A128A15FB220A128A152130831603130C
:10194800A6007630A500A50BA72CA60BA72C000097
:10195800013083160313A5002508A70703302702C3
:10196800031C9B2C02300A128A15FB220A128A15C4
:1019780083160313A7010430270203180800270859
:10198800293E84000A128A150A200A128A15A5001F
:101998002508A20000300A128A15F2200A128A15B8
:1019A800013083160313A5002508A707BF2C83124F
:1019B8000313871D152D083083160313A5009D30CA
:1019C800A4000B30A300A30BE72CA40BE72CA50B5A
:1019D800E72CEE2C831603133F083E04031D072D46
:1019E800303084000A128A150A200A128A150A124F
:1019F8008A11EB260A128A15013083160313BE00DA
:101A08000030BF00152DBE01BF012D3084000A1221
:101A18008A150A200A128A150A128A11EB260A1256
:101A28008A150130831603133E063F04031D080080
:101A38000030A0000030A1000A128A1594200A1272
:101A48008A15083083160313A5009D30A4000B30B7
:101A5800A300A30B2D2DA40B2D2DA50B2D2D342D5F
:101A6800013083160313A0000030A1000A128A1562
:101A780094200A128A15083083160313A5009D3096
:101A8800A4000B30A300A30B472DA40B472DA50BD7
:101A9800472D4E2D0800003083160313B200003086
:101AA800B100E130B0000030AF000130B3000030C9
:101AB800B4000A128A150F240A128A15FF308316F9
:101AC8000313850088110811071487140715871553
:101AD80083120313051008158811871133308316F4
:101AE8000313BD00BC30BC001030BB00BB0B7A2D0B
:101AF800BC0B7A2DBD0B7A2D0A128A1575240A1291
:101B08008A15333083160313BD00BC30BC00103077
:101B1800BB00BB0B8D2DBC0B8D2DBD0B8D2D0B175D
:101B28008B171A3083160313BD005E30BC00863055
:101B3800BB00BB0B9D2DBC0B9D2DBD0B9D2D00002F
:101B48000A168A11A0260A128A155B308316031317
:101B5800AC008030AD000A128A15C1200A128A151D
:101B68007F3083160313BD00D430BC00AE30BB00F9
:101B7800BB0BBC2DBC0BBC2DBD0BBC2DC32D0A1241
:101B88008A15DA210800831203136E086D04031DF9
:101B9800042E6808803AFF0080307F02031DD62D8E
:101BA800503067020318E82D8312031308118815B3
:101BB800313084000A128A150A200A128A150A127C
:101BC8008A155D270A128A15831203136808803A5A
:101BD800FF0080307F02031DF32DC9306702031C0C
:101BE800080083120313081588112E3084000A1286
:101BF8008A150A200A128A150A128A155D27080012
:101C08000130831203136D066E04031D0800680873
:101C1800803AFF0080307F02031D142E5030670287
:101C28000318252E831203130812323084000A1277
:101C38008A150A200A128A150A128A155D270A12BD
:101C48008A15831203136808803AFF0080307F02E8
:101C5800031D302EC9306702031C080083120313CA
:101C680008162F3084000A128A150A200A128A15CB
:101C78000A128A155D270800831203133008B4007E
:101C88003108B5003208B6000310350D360DB7001F
:101C98003708BD00BD08031D5A2E0030B3000030C0
:101CA800B2000030B1000030B00008003008B400C5
:101CB8003108B5003208B60017300310B60CB50C61
:101CC800B40CFF3E031D612E3408B7003708B80076
:101CD800B117FF30B005FF30B1050030B20530084C
:101CE800B9003108BA003208BB00BC018E30BD0211
:101CF800BD1F9C2E3D08803A8F3E03188C2E003065
:101D0800B3000030B2000030B1000030B00008006D
:101D180001300310BC0CBB0CBA0CB90CFF3E031D00
:101D28008D2E0130B4003408BD070319B72E8C2E50
:101D380018303D02031CB42E0030B3000030B2004E
:101D48000030B1000030B00008000130B4000310CA
:101D5800B90DBA0DBB0DBC0DB40BAB2E0130BD02D5
:101D6800BD08031DA92E38080319C52EB909BA09DB
:101D7800BB09BC09B90A0319BA0A0319BB0A031932
:101D8800BC0A3C08B3003B08B2003A08B100390865
:101D9800B000080083160313AA01A31FE02EA009B0
:101DA800A109A209A309A00A0319A10A0319A20AF1
:101DB8000319A30AAA01AA0AA71FF12EA409A509B3
:101DC800A609A709A40A0319A50A0319A60A03194B
:101DD800A70A0130A8002808AA060030AE00003083
:101DE800AD000030AC000030AB0023082204210411
:101DF80020040319462FA901A90AA31B112F01309A
:101E0800A8000310A00DA10DA20DA30DA80B052F6E
:101E18000130A8002808A907012F0130A8000310E5
:101E2800AB0DAC0DAD0DAE0DA80B132F230827027B
:101E3800031D282F22082602031D282F210825020A
:101E4800031D282F20082402031C392F2008A40270
:101E58002108031C210FA5022208031C220FA60239
:101E68002308031C230FA7022B1401300310A30C13
:101E7800A20CA10CA00CFF3E031D3A2F0130A902B1
:101E8800031D112F2A080319542FAB09AC09AD09FA
:101E9800AE09AB0A0319AC0A0319AD0A0319AE0A55
:101EA8002E08A3002D08A2002C08A1002B08A000D2
:101EB8000800F200313084000A128A150A200A123A
:101EC8008A15F10072087106031D792F8312031316
:101ED80008118815313084000A128A150A200A125E
:101EE8008A150A168A11412608002E3084000A1223
:101EF8008A150A200A128A15F10072087106031D54
:101F0800942F83120313081588112E3084000A12A7
:101F18008A150A200A128A150A168A11412608000B
:101F2800323084000A128A150A200A128A15F10032
:101F380072087106031DAE2F831203130816323080
:101F480084000A128A150A200A128A150A168A11AA
:101F5800412608002F3084000A128A150A200A1226
:101F68008A15F10072087106031DC82F8312031326
:101F780008122F3084000A128A150A200A128A15BC
:101F88000A168A1141260800303084000A128A1580
:101F98000A200A128A15F10072087106031DE52F3E
:101FA800013083160313BE000030BF0030308400B8
:101FB8000A128A150A200A128A150A168A11412657
:101FC80008002D3084000A128A150A200A128A1580
:101FD800F10072087106031D080083160313BE0181
:101FE800BF012D3084000A128A150A200A128A15A8
:081FF8000A168A1141260800B7
:102C8200F000831203130C1E422E700899000800F4
:102C9200720871047004031908008030F2060800FB
:102CA20064008001840A0406031900340406522ECB
:102CB2000A128A154F250A168A110A128A15DB246E
:102CC2000A168A115E2E83160313A00083120C1EAD
:102CD200672E83160313200883120313990008003A
:102CE200F100F0013A30710203187D2E303071028A
:102CF200031C7D2EF001F00A700C080020342034F1
:102D02002034203420342034203420342034203421
:102D12002034203420342034203420347E088A00A9
:102D22007F0882008F260A168A118000840A04080E
:102D32007D0603190034FF0A0319FE0A932E831637
:102D420003139F179F111F119F101F10831203134C
:102D52009F171F131F14831603130C1783120313D9
:102D62000C130800F7007508013A0319BD2E403014
:102D7200F6007608F800BE2EF8017708FF3EF6004E
:102D82007608F80778088038F6007608F2000030F6
:102D92000A168A11D5270800831203139818D62E13
:102DA2001A08F3007308F400E52E3330F100803086
:102DB200F2000A168A1141278312031318121A0805
:102DC200F3007308F40018168C127408080080309F
:102DD20083120313A9062A08F8002B08F9002C080D
:102DE200FA002708FB002808FC002908FD000A1247
:102DF2008A119F23780883120313A7007908A80079
:102E02007A08A900080083160313A7002508013ACF
:102E12000319102F4030A6002608A800112FA80180
:102E22002708FF3EA6002608A80728088038A60023
:102E32002608A20000300A128A15F2200800FD01BD
:102E4200F91F2A2FF809F909F80A0319F90AFD01ED
:102E5200FD0A7808F0007908F100F2018E30FB00DB
:102E62007B08F3007D08FC007C08F4000A128A113A
:102E720096277008F8007108F9007208FA00080035
:102E8200720883120313FF00710884000A128A1564
:102E920000200A168A1100380319080072088312EA
:102EA2000313FF00710884000A128A1500200A1613
:102EB2008A110A168A1141260A168A110130F1076F
:102EC2000318F20A412FF401F501701C6E2F7208EB
:102ED200F4070318F50A7308F50701300310F20D21
:102EE200F30DFF3E031D6F2F01300310F10CF00CA8
:102EF200FF3E031D762F71087004031D662F7508AF
:102F0200F101F1077408F001F00708007D0883124F
:102F12000313FF007C0884000A128A1500200A1697
:102F22008A110038031908007D0883120313FF0079
:102F32007C0884000A128A1500200A168A110A12D5
:102F42008A1560210A168A110130FC070318FD0A4E
:102F5200872F8E30FC007C08FD00FF307B050319B3
:102F6200C02F01300310FB0CFA0CF90CF80CFF3ED9
:102F7200031DB32F0130FC007C08FD07AE2F78083B
:102F8200F0007908F1007A08F2007D08FC007C0864
:102F9200F300F4010A128A1196277008F8007108EA
:102FA200F9007208FA000800F40083120313861273
:102FB2006330F300F30BDB2FDE2F74080319E52FC8
:102FC200831203138616E82F83120313861200005E
:102FD2008312031306127208F30004300310F30C79
:102FE200FF3E031DEF2F73080A128A1527210A16C6
:0E2FF2008A1172080F390A128A152721080069
:02400E0072FF3F
:00000001FF
