:060000000A128A11122809
:10000800FE00030E83120313D4000408D5000A0867
:10001800D6007F08D7000A128A117B2A0A128A1191
:100028001528E701E801E901EA01EB01EC01831376
:10003800BE308400D7300A168A1151260A128A1156
:10004800E730FD001630FE007F30FF00D730840017
:100058000A168A1193260A128A110A128A158E2004
:100068000A128A11ED000A128A158F20EE00830108
:100078000A168A11592E83120313BE002B30B300BF
:100088003308B9000130AA07FF302A0784000A1292
:100098008A150A200A128A11B3003308C300C3085C
:1000A8000319762A4308253A031966284308B3003A
:1000B8003E0884003308831380000130B3003308FE
:1000C800BE074628BF01C001B8012A0884000A12E9
:1000D8008A150A200A128A110A168A1171260A122A
:1000E8008A11031CB92883120313BF01C0010A3007
:1000F800F0000030F100831203134008F301F30706
:100108003F08F201F2070A168A1164270A128A11B7
:10011800710883120313C001C0077008BF01BF072D
:100128002A0884000A128A150A200A128A11D03E67
:10013800B300FF3003180030B4003308BF070318BA
:10014800C00A3408C0070130B3003308AA072A08D8
:1001580084000A128A150A200A128A110A168A11BC
:1001680071260A128A1103187B28831203132A089E
:1001780084000A128A150A200A128A112E3A031DCF
:1001880007290130B3003308AA07C101C2012A08B0
:1001980084000A128A150A200A128A110A168A117C
:1001A80071260A128A11031C1329831203134208A9
:1001B800F101F1074108F001F0070A30F2000030C0
:1001C800F3000A168A1164270A128A11831203138C
:1001D8002A0884000A128A150A200A128A1170074E
:1001E800B3000030031801307107B4003308D03E63
:1001F800C10034080318013EFF3EC2000130B300BD
:100208003308AA07CB2883120313C101C20113299B
:1002180038161329C030B3003308B8042A2901302E
:1002280083120313AA07FF302A0784000A128A15CB
:100238000A200A128A11C300003A0319762A6C3A76
:1002480003190C29193A03190E294628381E3C2986
:100258003908840083130008BA00840A0008BB0028
:10026800840A0008BC00840A0008BD0004304B2939
:100278003908840083130008B300840A0008B40016
:100288003308BA003408BB00BC01BD010230B3001A
:100298003308B90742084104031D5E293D083C04A0
:1002A8003B043A04031D5E290130C1070318C20A42
:1002B8000030C207C301C30A43080A3A0319A02938
:1002C8004308B30001300310B30DFF3E031D672937
:1002D8000310330D013E84000A128A150A200A12FF
:1002E8008A11B4000A128A150A200A128A11B50066
:1002F8000A128A150A200A128A11B6000A128A15E9
:100308000A200A128A11B70037083D02031D9629F0
:1003180036083C02031D962935083B02031D962921
:1003280034083A02031CA0290130B3003308C3077C
:1003380043080A3A031D64294308B300B401B31BF8
:10034800B4033408803AB5004208803A3502031DE8
:10035800AF29410833020318B8298312031341084F
:10036800B3003308C300D229831203134308B30030
:10037800B401B31BB4034208803AB5003408803A8C
:100388003502031DC929330841020318D2298312F3
:1003980003134308C100C201C11BC2038312031324
:1003A8004308B300B401B31BB4033408803AB50062
:1003B8004008803A3502031DE3293F083302031839
:1003C800F329831203134308B300B401B31BB40326
:1003D8003308BF023408031CC003C002F729831284
:1003E8000313BF01C00140083F040319672A2030E6
:1003F800B3003E0884003308831380000130B30043
:100408003308BE07FF30BF070318C00AFF30C00714
:10041800F7290030A3000030A2000030A1000A3004
:10042800A0004108B30001300310B30DFF3E031DC7
:10043800182A0310330D013E84000A128A150A2077
:100448000A128A11F0000A128A150A200A128A1161
:10045800F1000A128A150A200A128A11F2000A12F9
:100468008A150A200A128A11F3003D08F7003C0891
:10047800F6003B08F5003A08F4000A128A15AD2385
:100488000A128A11730883120313A7007208A600C0
:100498007108A5007008A4000A128A15A9220A1278
:1004A8008A11831203132008303EB4003408C300B5
:1004B8004308B3003E0884003308831380000130EA
:1004C800B3003308BE07FF30C1070318C20AFF3064
:1004D800C207FF304206031D732AFF304106031985
:1004E80046280D2A3E0884008313800108000C1F4B
:1004F800862B1E08E801E807831603131E088312DB
:100508000313E701E7070030A000A030A1003B304B
:10051800A2006808F901F9076708F801F8070A1640
:100528008A1120270A128A11780883120313A3005C
:100538007908A4007A08A5000A128A11B0240A12C0
:100548008A11831203132008E0002108E100220821
:10055800E2006008C4006108C5006208C6005E3099
:10056800D2005208C7000A128A1183250A128A117A
:1005780083120313D3005308D800F501F50A00309D
:100588000A168A11B3260A128A117630FC008030C6
:10059800FD000A168A1187270A128A11F501F50A41
:1005A80007300A168A11B3260A128A1100308312FC
:1005B8000313B0008030B1003F30B2000030A0001B
:1005C800C830A1004230A2006008A3006108A4005E
:1005D8006208A5000A128A11B0240A128A1183122D
:1005E80003132008B3002108B4002208B5000A123A
:1005F8008A113D260A128A11831203133008E30078
:100608003108E4003208E5006308C4006408C50046
:100618006508C6005E30D2005208C7000A128A1167
:1006280083250A128A1183120313D3005308E600A4
:100638006608FC000030FD000A168A1187270A1296
:100648008A11F501F50A10300A168A11B3260A1222
:100658008A117D30FC008030FD000A168A11872738
:100668000A128A11F50100300A168A11B3260A12F5
:100678008A11D73083120313A0002330A1003E3023
:10068800A2006308A3006408A4006508A5000A1274
:100698008A11B0240A128A11831203132008D90080
:1006A8002108DA002208DB005908B0005A08B10016
:1006B8005B08B2000A128A154A260A128A118312A6
:1006C80003133108DD01DD073008DC01DC076608AB
:1006D8000A128A1597210A128A11831203135D08D8
:1006E800A101A1075C08A001A0070A128A155D22D2
:1006F8000A128A110A128A154D250A128A118312C2
:1007080003130C138C1E9C2B0A168A11CD260A1271
:100718008A110A168A1141260A128A110A168A11A2
:10072800CD260A128A110A128A1567270A128A1117
:10073800831203135708FF0056088A0055088400DF
:10074800540E8300FE0E7E0E0900780883120313F0
:10075800A0007908A1007A08A2000310210D220D3B
:10076800A3002308A6007B08A0007C08A1007D0840
:10077800A2000310210D220DA3002308A5002608BE
:100788000319D22B250826020318D92B2603FF3A72
:100798002507A00019302002031CD92B7B08F8007C
:1007A8007C08F9007D08FA000800250803190800EC
:1007B800260825020318E82B2503FF3A2607A00080
:1007C80019302002031808000630A0002008A400F1
:1007D800FA1BA417FD1B2417F917FF30F805FF3083
:1007E800F9050030FA05FC17FF30FB05FF30FC0562
:1007F8000030FD05250826020318282C01300310B7
:10080800FB0DFC0DFD0DFF3E031D032C0130A50261
:10081800250826060319232C0130A40224080739C9
:100828000319232C022C01300310FA0CF90CF80CD4
:10083800FF3E031D182C0130A0002008A60726083B
:1008480025060319512C172C260825020318512CAC
:1008580001300310F80DF90DFA0DFF3E031D2D2C84
:100868000130A6022508260603194D2C0130A402E2
:100878002408073903194D2C2C2C01300310FD0CCA
:10088800FC0CFB0CFF3E031D422C0130A00020088D
:10089800A50726082506031D412CA41F632CFF303D
:1008A800F806FF30F906FF30FA060130F807003085
:1008B80003180130F907003003180130FA07241F24
:1008C800752CFF30FB06FF30FC06FF30FD060130BB
:1008D800FB07003003180130FC0700300318013013
:1008E800FD07A4017808FB07790803110318790AA2
:1008F800031DFC077A08031103187A0A031DFD0774
:10090800FD1F982CFF30FB06FF30FC06FF30FD066C
:100918000130FB07003003180130FC0700300318D2
:100928000130FD07A401A40A7B08F0007C08F1004F
:100938007D08F2002608A0002008F3002408A10082
:100948002108F4000A128A1571247008F800710849
:10095800F9007208FA000800831203132008A600A1
:100968002108A7002208A8000310270D280DA900B8
:100978002908AA00AA08031DC82C0030A0000030CE
:10098800A1000030A20008002308A6002408A70040
:100998002508A8000310270D280DA9002908AF0075
:1009A800AF08031DDE2C0030A0000030A10000308D
:1009B800A20008002F087B3EA6002608AA072008E8
:1009C800A6002108A7002208A80010300310A80CD0
:1009D800A70CA60CFF3E031DEA2C2608A90029082F
:1009E800AF002308A6002408A7002508A800103097
:1009F8000310A80CA70CA60CFF3E031DFC2C260810
:100A0800A9002908AF068030A6002608AF05A1175F
:100A1800A417FF30A305FF30A4050030A50500305A
:100A2800AB000030AC000030AD000730A60026084F
:100A3800AE00201C2D2D2308AB0724080311031832
:100A4800240A031DAC07250803110318250A031DF2
:100A5800AD0701300310A20CA10CA00CFF3E031D32
:100A68002E2D01300310A30DA40DA50DFF3E031D6F
:100A7800362D0130AE02031D1D2D0930A6002608B3
:100A8800AE00201C552D2308AB07240803110318BA
:100A9800240A031DAC07250803110318250A031DA2
:100AA800AD0701300310A20CA10CA00CFF3E031DE2
:100AB800562D01300310AD0CAC0CAB0CFF3E031DE2
:100AC8005E2D0130AE02031D452D2B08F0002C08C9
:100AD800F1002D08F2002A08A6002608F3002F08C6
:100AE800A7002708F4000A128A15712470088312D7
:100AF8000313A0007108A1007208A2000800C63004
:100B080083120313C8004808D1004408F0004508C0
:100B1800F1004608F2000030F3000030F400003025
:100B2800F5000A128A1550230A128A110318BC2DDF
:100B38002D3083120313C80051088400480883131A
:100B480080000130C8004808D1074408F000450873
:100B5800F1004608F2000A168A1149260A128A117B
:100B6800700883120313C4007108C5007208C60018
:100B7800831203134408B0004508B1004608B200C8
:100B88000A128A154A260A128A1183120313330895
:100B9800D0003208CF003108CE003008CD00500810
:100BA800FB004F08FA004E08F9004D08F8000A1635
:100BB8008A11AA270A128A11780883120313A70038
:100BC8007908A8007A08A9004408AA004508AB00DB
:100BD8004608AC000A168A11E8260A128A118312FE
:100BE80003132708C4002808C5002908C6004408BC
:100BF800A3004508A4004608A5002430A0007430CE
:100C0800A1004930A2000A128A11B0240A128A11DE
:100C1800831203132008B0002108B1002208B20093
:100C28000A128A154A260A128A11831203133308F4
:100C3800CC003208CB003108CA003008C9006B303C
:100C4800C8004808AA005008AE004F08AD004E087A
:100C5800AC004D08AB004C08B2004B08B1004A0884
:100C6800B0004908AF0051080A128A113F20C63067
:100C78000800831203133308B6003408B700350898
:100C8800B8000310370D380DB9003908BE00BE088A
:100C9800031D552E0030B0000030B1000030B20006
:100CA80008003008B6003108B7003208B800031051
:100CB800370D380DB9003908BF00BF08031D6B2E6A
:100CC8000030B0000030B1000030B2000800003041
:100CD800BB000030BC000030BD0089303F07B600C3
:100CE8003608BE023308B6003408B7003508B80025
:100CF80010300310B80CB70CB60CFF3E031D7D2E48
:100D08003608B9003908BF003008B6003108B70006
:100D18003208B80010300310B80CB70CB60CFF3E00
:100D2800031D8F2E3608B9003908BF068030B6007B
:100D38003608BF05B417FF30B305FF30B4050030DF
:100D4800B505B117FF30B005FF30B1050030B20569
:100D58001830B6003608BA0001300310BB0DBC0DC0
:100D6800BD0DFF3E031DB12E32083502031DC22EF4
:100D780031083402031DC22E30083302031CCF2E63
:100D88003008B3023108031C310FB4023208031CC7
:100D9800320AB5023B1401300310B30DB40DB50D82
:100DA800FF3E031DD02E0130BA02031DB02E3B08B2
:100DB800F0003C08F1003D08F2003E08B600360895
:100DC800F3003F08B7003708F4000A128A157124A7
:100DD800700883120313B0007108B1007208B200E2
:100DE800080083160313A200313084000A128A1502
:100DF8000A200A128A11A10022082106031D132FB6
:100E08008312031308118815313084000A128A15D9
:100E18000A200A128A110A168A11642608002E303E
:100E280084000A128A150A200A128A1183160313EB
:100E3800A10022082106031D302F83120313081571
:100E480088112E3084000A128A150A200A128A1183
:100E58000A168A1164260800323084000A128A159C
:100E68000A200A128A1183160313A10022082106F8
:100E7800031D4C2F831203130816323084000A1204
:100E88008A150A200A128A110A168A11642608008D
:100E98002F3084000A128A150A200A128A11831632
:100EA8000313A10022082106031D682F83120313D0
:100EB80008122F3084000A128A150A200A128A1191
:100EC8000A168A1164260800303084000A128A152E
:100ED8000A200A128A1183160313A1002208210688
:100EE800031D812F303084000A128A150A200A1245
:100EF8008A110A168A11642608002D3084000A1205
:100F08008A150A200A128A1183160313A1002208DF
:100F18002106031D08002D3084000A128A150A20B4
:100F28000A128A110A168A11642608008316031306
:100F380006128612831203130612861283160313EF
:100F480006108610061186118312031306108610E8
:100F580006118611623083160313A6006530A500BA
:100F6800A50BB42FA60BB42FB92F83160313A70113
:100F7800033027020318DB2F03300A128A15F722E1
:100F88000A128A11213083160313A6007630A500B1
:100F9800A50BCC2FA60BCC2F000001308316031312
:100FA800A5002508A70703302702031CC02F02301D
:100FB8000A128A15F7220A128A1183160313A70147
:100FC80004302702031808002708293E84000A1263
:100FD8008A150A200A128A11A5002508A2000030E5
:100FE8000A128A15EE200A128A1101308316031399
:100FF800A5002508A707E42FFF1B0A2883137F18DD
:1010080083170008840A0319FF0A080008308A00B9
:101018000408840A820700340134003400340034A0
:101028000A340034003400346434003400340034AA
:10103800E8340334003400341034273400340034E6
:10104800A034863401340034403442340F34003440
:1010580080349634983400340034E134F53405345F
:101068000034CA349A343B341C340C34013406340A
:101078006C3462346D344C3442344D340A340D349B
:1010880020342D342D342D342D342D342D342D345D
:1010980020344534533454344F34553452344F3457
:1010A8002034443445342034503449344C344834A2
:1010B800413420342D342D342D342D342D342D3419
:1010C8002D3420340A340D34203400340C344C349C
:1010D8006F346134643469346E3467342034503486
:1010E800493443342E342E342E34003425346C34B1
:1010F80075342E34253436342E3436346C34753405
:1011080000344E346934763465346C343A340034FF
:1011180025340034FF34FF34831603132008A2005B
:10112800A20DA20DA20D831203131F088316031329
:101138002206C7392206831203139F00831603135E
:10114800210883120313EC01EC078316031320080C
:1011580083120313EB01EB07293083160313A20054
:10116800A20BB4280000831203131F151F1D0800CB
:10117800BA28831603132D0883120313FF0083165E
:1011880003132C088400831203130A128A15002003
:101198000A128A15003803190800831603132D084C
:1011A80083120313FF00831603132C088400831291
:1011B80003130A128A1500200A128A150A128A15C0
:1011C80016220A128A15013083160313AC07031876
:1011D800AD0ABD2883160313A400831203138612D5
:1011E800633083160313A300A30BF828FB28831688
:1011F80003132408031904298312031386160729E5
:101208008312031386120000831203130612831637
:1012180003132208A30004300310A30CFF3E031D90
:10122800102923080A128A15F7220A128A1583162A
:10123800031322080F390A128A15F7220800F10051
:10124800003071180130F00083120313060870068D
:10125800FE39700686000030F1180130F000F00DFC
:1012680006087006FD3970068600003071190130D5
:10127800F000F00DF00D06087006FB3970068600C8
:101288000030F1190130F000F00DF00DF00D0608F6
:101298007006F739700686000000831203130616DD
:1012A8000330F000F00B56298312031306120800CE
:1012B800FB008B29F201F20A00300A168A11D527A1
:1012C8000A128A150D30FA00FB30F900F90B6A2969
:1012D800FA0B6A296F2908000230F9007908F5002D
:1012E80001300A168A11B32608001030F90079086F
:1012F800F20000300A168A11D52708007B08F90089
:101308007908F20001300A168A11D52708007B08EF
:10131800083A03197929023A03197029063A031978
:101328005E298229080083120313C900CA01CB0170
:1013380049088400831380080319CA294B084A0402
:10134800031DB5296C086B04031DAC295330AD2966
:101358004930F3004A08203E840073088313800054
:10136800C3294908840083130008F3004A08203E73
:101378008400730880000130F3007308C907013046
:10138800CA070318CB0A0030CB079C292030F3008A
:101398007308C8004808F1000030F2000A168A11E4
:1013A8004127080083160313A201A20A00300A127B
:1013B8008A15EE200A128A15413083160313A600F7
:1013C800EE30A500A50BE629A60BE62900000C3097
:1013D80083160313A5002508A20000300A128A15F7
:1013E800EE200A128A15F93083160313A5000000AF
:1013F800A50BFB29FF290000063083160313A5005F
:101408002508A20000300A128A15EE200A128A1551
:10141800F93083160313A5000000A50B102A142A1F
:101428000000080083160313AB004F2AA201A20A8A
:1014380000300A128A15EE200A128A150D3083161A
:101448000313AA00FB30A900A90B282AAA0B282AF3
:101458002D2A0800023083160313A9002908A500C5
:1014680001300A168A110427080010308316031366
:10147800A9002908A20000300A128A15EE200800E7
:10148800831603132B08A9002908A20001300A12A9
:101498008A15EE200800831603132B08083A03194F
:1014A800392A023A03192E2A063A03191A2A442A13
:1014B800080083120313B601B70126308400D73021
:1014C800A2000408A3001030A4002208840083139B
:1014D8000008A500A20A2308840025088000A30AA2
:1014E800A40B692AA11B8C2AFF30A2003608263ECD
:1014F800840022088000FF30A0070318A10AFF30EB
:10150800A1070130B6070318B70A0030B707762AD3
:101518002630A2002208B8003808FC000030FD0080
:101528000A168A1187270A128A15063083120313AE
:10153800A4001330A300B130A200A20BA12AA30B70
:10154800A12AA40BA12AA82A08008312031323089E
:101558002204210420040319EE2AA901A90AA31BC5
:10156800C32A0130A8000310A00DA10DA20DA30DE0
:10157800A80BB72A0130A8002808A907B32A23080E
:101588002702031DD12A22082602031DD12A210879
:101598002502031DD12A20082402031CE12A200861
:1015A800A4022108031C210FA5022208031C220FF4
:1015B800A6022308031C230FA70201300310A30C63
:1015C800A20CA10CA00CFF3E031DE22A0130A902C7
:1015D800031DC32A2708A3002608A2002508A10086
:1015E8002408A000080083160313A1000030211866
:1015F8000130A00083120313060883160313200684
:10160800FE39200683120313860000308316031365
:10161800A1180130A000A00D831203130608831639
:1016280003132006FD3920068312031386000030B9
:101638008316031321190130A000A00DA00D8312F9
:1016480003130608831603132006FB3920068312AA
:1016580003138600003083160313A1190130A0007C
:10166800A00DA00DA00D8312031306088316031303
:101678002006F73920068312031386000000831220
:1016880003130616033083160313A000A00B4A2B7E
:101698008312031306120800F21F772B0030F6009E
:1016A8000030F7008030F8007009F9007109FA007D
:1016B8007209FB00F90A0319FA0A0319FB0A7908E7
:1016C800F6077A0803187A0F6A2B6B2BF7077B0843
:1016D80003187B0F702B712BF8077608F00077083A
:1016E800F1007808F200F51F9E2B0030F60000305C
:1016F800F7008030F8007309F9007409FA007509D9
:10170800FB00F90A0319FA0A0319FB0A7908F60714
:101718007A0803187A0F912B922BF7077B08031886
:101728007B0F972B982BF8077608F3007708F400BF
:101738007808F5008030F2068030F50675087202E8
:10174800031D080074087102031D08007308700265
:1017580008000030FC000030FB000030FA000030C8
:10176800F90073087204710470040319022CFD0156
:10177800FD0AF31BCD2B0130F8000310F00DF10D1D
:10178800F20DF30DF80BC12B0130F8007808FD07B6
:10179800BD2B0130F8000310F90DFA0DFB0DFC0DFF
:1017A800F80BCF2B73087702031DE42B720876021F
:1017B800031DE42B71087502031DE42B70087402E5
:1017C800031CF52B7008F4027108031C710FF50255
:1017D8007208031C720FF6027308031C730FF702DA
:1017E800791401300310F30CF20CF10CF00CFF3EED
:1017F800031DF62B0130FD02031DCD2B7C08F300E1
:101808007B08F2007A08F1007908F00008008316D6
:101818000313B901BA0134083304031D252C2F081A
:10182800B5003008B6003108B7003208B8000630F5
:101838000310B50DB60DB70DB80DFF3E031D1C2CDA
:10184800362C2F08B5003008B6003108B70032082A
:10185800B80004300310B50DB60DB70DB80DFF3E36
:10186800031D2E2C3808A3003708A2003608A10053
:101878003508A0000130A7003130A6002D30A500A2
:101888000030A4000A128A15D826831603132008EC
:10189800FF3EB90021080318013EFF3EBA0039088F
:1018A800990098171813981618123308031D18155D
:1018B8000319181198141810831203139817181382
:1018C80098121816981118119810181083160313E7
:1018D8008C16831203138C12080073080319792CD1
:1018E800720871047004031D8C2C0030F000003065
:1018F800F1000030F20008000130F5007508F30728
:1019080001300310F20CF10CF00CFF3E031D852C86
:10191800FE3072050319A72C802C0130F5007508DC
:10192800F3070130F007003003180130F1070030E9
:1019380003180130F20701300310F20CF10CF00C1F
:10194800FF3E031DA02CFF3072050319B62C912C05
:101958000130F30201300310F00DF10DF20DFF3EDE
:10196800031DAF2CF11FAC2C7318C02CFF30F005F1
:101978007F30F105FF30F2050310F30C7308F50012
:10198800F601F70110300310F50DF60DF70DFF3EC7
:10199800031DC72C7508F0047608F1047708F204D3
:1019A800740803190800F217080083120313871D2F
:1019B800132D083083160313A5009D30A4000B30A7
:1019C800A300A30BE52CA40BE52CA50BE52CEC2C14
:1019D8008316031341084004031D052D303084008D
:1019E8000A128A150A200A128A150A128A11F5267D
:1019F8000A128A15013083160313C0000030C10093
:101A0800132DC001C1012D3084000A128A150A2045
:101A18000A128A150A128A11F5260A128A15013045
:101A28008316031340064104031D08000030A0007C
:101A38000030A1000A128A1590200A128A1508306F
:101A480083160313A5009D30A4000B30A300A30B3D
:101A58002B2DA40B2B2DA50B2B2D322D01308316EE
:101A68000313A0000030A1000A128A1590200A1260
:101A78008A15083083160313A5009D30A4000B3087
:101A8800A300A30B452DA40B452DA50B452D4C2DCF
:101A98000800831203136C086B04031D8A2D680861
:101AA800803AFF0080307F02031D5C2D50306702B2
:101AB80003186E2D83120313081188153130840022
:101AC8000A128A150A200A128A150A128A15672725
:101AD8000A128A15831203136808803AFF008030BF
:101AE8007F02031D792DC9306702031C0800831289
:101AF8000313081588112E3084000A128A150A204B
:101B08000A128A150A128A156727080001308312FB
:101B180003136B066C04031D08006808803AFF0075
:101B280080307F02031D9A2D503067020318AB2DB9
:101B3800831203130812323084000A128A150A200D
:101B48000A128A150A128A1567270A128A15831239
:101B580003136808803AFF0080307F02031DB62D0A
:101B6800C9306702031C08008312031308162F30BC
:101B780084000A128A150A200A128A150A128A157E
:101B880067270800003083160313B2000030B10045
:101B9800E130B0000030AF000130B3000030B400D5
:101BA8000A128A150B240A128A15FF3083160313AA
:101BB800850083120313051083160313081183127B
:101BC800031308158316031388118312031388114E
:101BD8008316031307148714071587158312031335
:101BE8008711333083160313BD00BC30BC0010309E
:101BF800BB00BB0BFD2DBC0BFD2DBD0BFD2D0A1233
:101C08008A119A270A128A15333083160313BD00E6
:101C1800BC30BC001030BB00BB0B102EBC0B102E10
:101C2800BD0B102E0B178B171A3083160313BD002C
:101C38005E30BC008630BB00BB0B202EBC0B202EB8
:101C4800BD0B202E00000A168A11A0260A128A153A
:101C58005B3083160313AC008030AD000A128A157E
:101C6800BD200A128A157F3083160313BD00D430B5
:101C7800BC00AE30BB00BB0B3F2EBC0B3F2EBD0BD8
:101C88003F2E462E0A128A15D62108008312031306
:101C98003008B4003108B5003208B6000310350D1D
:101CA800360DB7003708BD00BD08031D642E00308F
:101CB800B3000030B2000030B1000030B0000800BE
:101CC8003008B4003108B5003208B60017300310E8
:101CD800B60CB50CB40CFF3E031D6B2E3408B700D0
:101CE8003708B800B117FF30B005FF30B105003034
:101CF800B2053008B9003108BA003208BB00BC018F
:101D08008E30BD02BD1FA62E3D08803A8F3E0318B7
:101D1800962E0030B3000030B2000030B100003021
:101D2800B000080001300310BC0CBB0CBA0CB90C95
:101D3800FF3E031D972E0130B4003408BD07031978
:101D4800C12E962E18303D02031CBE2E0030B30063
:101D58000030B2000030B1000030B000080001309F
:101D6800B4000310B90DBA0DBB0DBC0DB40BB52EE4
:101D78000130BD02BD08031DB32E38080319CF2E4C
:101D8800B909BA09BB09BC09B90A0319BA0A03197E
:101D9800BB0A0319BC0A3C08B3003B08B2003A0866
:101DA800B1003908B000080083160313AA01A31F65
:101DB800EA2EA009A109A209A309A00A0319A10AE8
:101DC8000319A20A0319A30AAA01AA0AA71FFB2E2C
:101DD800A409A509A609A709A40A0319A50A0319AC
:101DE800A60A0319A70A0130A8002808AA06003085
:101DF800AE000030AD000030AC000030AB0023086E
:101E08002204210420040319502FA901A90AA31BA5
:101E18001B2F0130A8000310A00DA10DA20DA30DCA
:101E2800A80B0F2F0130A8002808A9070B2F013095
:101E3800A8000310AB0DAC0DAD0DAE0DA80B1D2FFA
:101E480023082702031D322F22082602031D322FE2
:101E580021082502031D322F20082402031C432FCA
:101E68002008A4022108031C210FA5022208031C34
:101E7800220FA6022308031C230FA7022B140130EC
:101E88000310A30CA20CA10CA00CFF3E031D442FB1
:101E98000130A902031D1B2F2A0803195E2FAB0965
:101EA800AC09AD09AE09AB0A0319AC0A0319AD0AAE
:101EB8000319AE0A2E08A3002D08A2002C08A100C1
:101EC8002B08A0000800F200313084000A128A159D
:101ED8000A200A128A15F10072087106031D832F61
:101EE8008312031308118815313084000A128A15E9
:101EF8000A200A128A150A168A11412608002E306D
:101F080084000A128A150A200A128A15F10072083A
:101F18007106031D9E2F83120313081588112E3096
:101F280084000A128A150A200A128A150A168A11CA
:101F380041260800323084000A128A150A200A1243
:101F48008A15F10072087106031DB82F8312031356
:101F58000816323084000A128A150A200A128A15D5
:101F68000A168A11412608002F3084000A128A15A1
:101F78000A200A128A15F10072087106031DD22F71
:101F88008312031308122F3084000A128A150A20BC
:101F98000A128A150A168A11412608003030840070
:101FA8000A128A150A200A128A15F10072087106A7
:101FB800031DE92F303084000A128A150A200A12FC
:101FC8008A150A168A11412608002D3084000A1243
:101FD8008A150A200A128A15F10072087106031D73
:101FE80008002D3084000A128A150A200A128A1560
:081FF8000A168A1141260800B7
:102C8200F000831203130C1E422E700899000800F4
:102C9200720871047004031908008030F2060800FB
:102CA20064008001840A0406031900340406522ECB
:102CB2000A128A15C6250A168A110A128A15D924F9
:102CC2000A168A115E2E83160313A00083120C1EAD
:102CD200672E83160313200883120313990008003A
:102CE200F100F0013A30710203187D2E303071028A
:102CF200031C7D2EF001F00A700C080020342034F1
:102D02002034203420342034203420342034203421
:102D12002034203420342034203420347E088A00A9
:102D22007F0882008F260A168A118000840A04080E
:102D32007D0603190034FF0A0319FE0A932E831637
:102D420003139F179F111F119F101F10831203134C
:102D52009F171F131F14831603130C1783120313D9
:102D62000C130800F7007508013A0319BD2E403014
:102D7200F6007608F800BE2EF8017708FF3EF6004E
:102D82007608F80778088038F6007608F2000030F6
:102D92000A168A11D5270800831203139818D62E13
:102DA2001A08F3007308F400E52E3330F100803086
:102DB200F2000A168A1141278312031318121A0805
:102DC200F3007308F40018168C127408080080309F
:102DD20083120313A9062A08F8002B08F9002C080D
:102DE200FA002708FB002808FC002908FD000A1247
:102DF2008A11A923780883120313A7007908A8006F
:102E02007A08A900080083160313A7002508013ACF
:102E12000319102F4030A6002608A800112FA80180
:102E22002708FF3EA6002608A80728088038A60023
:102E32002608A20000300A128A15EE200800FD01C1
:102E4200F91F2A2FF809F909F80A0319F90AFD01ED
:102E5200FD0A7808F0007908F100F2018E30FB00DB
:102E62007B08F3007D08FC007C08F4000A128A1536
:102E720071247008F8007108F9007208FA0008005D
:102E8200720883120313FF00710884000A128A1564
:102E920000200A168A1100380319080072088312EA
:102EA2000313FF00710884000A128A1500200A1613
:102EB2008A110A168A1141260A168A110130F1076F
:102EC2000318F20A412FF401F501701C6E2F7208EB
:102ED200F4070318F50A7308F50701300310F20D21
:102EE200F30DFF3E031D6F2F01300310F10CF00CA8
:102EF200FF3E031D762F71087004031D662F7508AF
:102F0200F101F1077408F001F00708007D0883124F
:102F12000313FF007C0884000A128A1500200A1697
:102F22008A110038031908007D0883120313FF0079
:102F32007C0884000A128A1500200A168A110A12D5
:102F42008A155C210A168A110130FC070318FD0A52
:102F5200872F8E30FC007C08FD00FF307B050319B3
:102F6200C02F01300310FB0CFA0CF90CF80CFF3ED9
:102F7200031DB32F0130FC007C08FD07AE2F78083B
:102F8200F0007908F1007A08F2007D08FC007C0864
:102F9200F300F4010A128A1571247008F80071080E
:102FA200F9007208FA000800F40083120313861273
:102FB2006330F300F30BDB2FDE2F74080319E52FC8
:102FC200831203138616E82F83120313861200005E
:102FD2008312031306127208F30004300310F30C79
:102FE200FF3E031DEF2F73080A128A1523210A16CA
:0E2FF2008A1172080F390A128A15232108006D
:02400E0072FF3F
:00000001FF
